{
  "_format": "hh-sol-artifact-1",
  "contractName": "LicensePlace",
  "sourceName": "contracts/LicensePlace.sol",
  "abi": [
    {
      "inputs": [
        {
          "internalType": "string",
          "name": "name",
          "type": "string"
        }
      ],
      "name": "DuplicateError",
      "type": "error"
    },
    {
      "inputs": [
        {
          "internalType": "uint256",
          "name": "required",
          "type": "uint256"
        },
        {
          "internalType": "uint256",
          "name": "actual",
          "type": "uint256"
        }
      ],
      "name": "NotEnoughBalanceError",
      "type": "error"
    },
    {
      "inputs": [
        {
          "internalType": "string",
          "name": "name",
          "type": "string"
        }
      ],
      "name": "NotExistedResourceError",
      "type": "error"
    },
    {
      "inputs": [],
      "name": "UnauthorizedError",
      "type": "error"
    },
    {
      "anonymous": false,
      "inputs": [
        {
          "indexed": true,
          "internalType": "address",
          "name": "previousOwner",
          "type": "address"
        },
        {
          "indexed": true,
          "internalType": "address",
          "name": "newOwner",
          "type": "address"
        }
      ],
      "name": "OwnershipTransferred",
      "type": "event"
    },
    {
      "inputs": [],
      "name": "appPrice",
      "outputs": [
        {
          "internalType": "uint256",
          "name": "",
          "type": "uint256"
        }
      ],
      "stateMutability": "view",
      "type": "function"
    },
    {
      "inputs": [],
      "name": "getAppAddresses",
      "outputs": [
        {
          "internalType": "address[]",
          "name": "",
          "type": "address[]"
        }
      ],
      "stateMutability": "view",
      "type": "function"
    },
    {
      "inputs": [],
      "name": "owner",
      "outputs": [
        {
          "internalType": "address",
          "name": "",
          "type": "address"
        }
      ],
      "stateMutability": "view",
      "type": "function"
    },
    {
      "inputs": [
        {
          "internalType": "address",
          "name": "_appAddress",
          "type": "address"
        }
      ],
      "name": "registerApp",
      "outputs": [],
      "stateMutability": "payable",
      "type": "function"
    },
    {
      "inputs": [
        {
          "internalType": "address",
          "name": "_address",
          "type": "address"
        }
      ],
      "name": "removeApp",
      "outputs": [],
      "stateMutability": "nonpayable",
      "type": "function"
    },
    {
      "inputs": [],
      "name": "renounceOwnership",
      "outputs": [],
      "stateMutability": "nonpayable",
      "type": "function"
    },
    {
      "inputs": [
        {
          "internalType": "uint256",
          "name": "_price",
          "type": "uint256"
        }
      ],
      "name": "setAppPrice",
      "outputs": [],
      "stateMutability": "nonpayable",
      "type": "function"
    },
    {
      "inputs": [
        {
          "internalType": "address",
          "name": "newOwner",
          "type": "address"
        }
      ],
      "name": "transferOwnership",
      "outputs": [],
      "stateMutability": "nonpayable",
      "type": "function"
    }
  ],
  "bytecode": "0x6080604052600a60015534801561001557600080fd5b5061003261002761003760201b60201c565b61003f60201b60201c565b610103565b600033905090565b60008060009054906101000a900473ffffffffffffffffffffffffffffffffffffffff169050816000806101000a81548173ffffffffffffffffffffffffffffffffffffffff021916908373ffffffffffffffffffffffffffffffffffffffff1602179055508173ffffffffffffffffffffffffffffffffffffffff168173ffffffffffffffffffffffffffffffffffffffff167f8be0079c531659141344cd1fd0a4f28419497f9722a3daafe3b4186f6b6457e060405160405180910390a35050565b6110db806101126000396000f3fe60806040526004361061007a5760003560e01c8063715018a61161004e578063715018a61461011a5780638da5cb5b14610131578063d0c6fdb71461015c578063f2fde38b146101855761007a565b8062e3b77a1461007f5780630fc1dc95146100aa57806317a1d80f146100d557806351f0f45b146100f1575b600080fd5b34801561008b57600080fd5b506100946101ae565b6040516100a19190610e04565b60405180910390f35b3480156100b657600080fd5b506100bf6101bf565b6040516100cc9190610e86565b60405180910390f35b6100ef60048036038101906100ea9190610c39565b6101c5565b005b3480156100fd57600080fd5b5061011860048036038101906101139190610cb4565b610364565b005b34801561012657600080fd5b5061012f610376565b005b34801561013d57600080fd5b5061014661038a565b6040516101539190610de9565b60405180910390f35b34801561016857600080fd5b50610183600480360381019061017e9190610c39565b6103b3565b005b34801561019157600080fd5b506101ac60048036038101906101a79190610c39565b6106f1565b005b60606101ba6002610775565b905090565b60015481565b60015434101561021057600154346040517f48c36544000000000000000000000000000000000000000000000000000000008152600401610207929190610ea1565b60405180910390fd5b61022481600261079690919063ffffffff16565b15610264576040517f138760d100000000000000000000000000000000000000000000000000000000815260040161025b90610e66565b60405180910390fd5b60008190503373ffffffffffffffffffffffffffffffffffffffff168173ffffffffffffffffffffffffffffffffffffffff16638c72c54e6040518163ffffffff1660e01b815260040160206040518083038186803b1580156102c657600080fd5b505afa1580156102da573d6000803e3d6000fd5b505050506040513d601f19601f820116820180604052508101906102fe9190610c62565b73ffffffffffffffffffffffffffffffffffffffff161461034b576040517f8b5701f700000000000000000000000000000000000000000000000000000000815260040160405180910390fd5b61035f8260026107c690919063ffffffff16565b505050565b61036c6107f6565b8060018190555050565b61037e6107f6565b6103886000610874565b565b60008060009054906101000a900473ffffffffffffffffffffffffffffffffffffffff16905090565b6103c781600261079690919063ffffffff16565b610406576040517f5ada8afd0000000000000000000000000000000000000000000000000000000081526004016103fd90610e66565b60405180910390fd5b60008190503373ffffffffffffffffffffffffffffffffffffffff168173ffffffffffffffffffffffffffffffffffffffff16638c72c54e6040518163ffffffff1660e01b815260040160206040518083038186803b15801561046857600080fd5b505afa15801561047c573d6000803e3d6000fd5b505050506040513d601f19601f820116820180604052508101906104a09190610c62565b73ffffffffffffffffffffffffffffffffffffffff161415801561056d57503373ffffffffffffffffffffffffffffffffffffffff168173ffffffffffffffffffffffffffffffffffffffff16638da5cb5b6040518163ffffffff1660e01b815260040160206040518083038186803b15801561051c57600080fd5b505afa158015610530573d6000803e3d6000fd5b505050506040513d601f19601f820116820180604052508101906105549190610c62565b73ffffffffffffffffffffffffffffffffffffffff1614155b801561062257503373ffffffffffffffffffffffffffffffffffffffff163073ffffffffffffffffffffffffffffffffffffffff16638da5cb5b6040518163ffffffff1660e01b815260040160206040518083038186803b1580156105d157600080fd5b505afa1580156105e5573d6000803e3d6000fd5b505050506040513d601f19601f820116820180604052508101906106099190610c62565b73ffffffffffffffffffffffffffffffffffffffff1614155b15610659576040517f8b5701f700000000000000000000000000000000000000000000000000000000815260040160405180910390fd5b61066d82600261093890919063ffffffff16565b508073ffffffffffffffffffffffffffffffffffffffff16635c975abb6040518163ffffffff1660e01b815260040160206040518083038186803b1580156106b457600080fd5b505afa1580156106c8573d6000803e3d6000fd5b505050506040513d601f19601f820116820180604052508101906106ec9190610c8b565b505050565b6106f96107f6565b600073ffffffffffffffffffffffffffffffffffffffff168173ffffffffffffffffffffffffffffffffffffffff161415610769576040517f08c379a000000000000000000000000000000000000000000000000000000000815260040161076090610e26565b60405180910390fd5b61077281610874565b50565b6060600061078583600001610968565b905060608190508092505050919050565b60006107be836000018373ffffffffffffffffffffffffffffffffffffffff1660001b6109c4565b905092915050565b60006107ee836000018373ffffffffffffffffffffffffffffffffffffffff1660001b6109e7565b905092915050565b6107fe610a57565b73ffffffffffffffffffffffffffffffffffffffff1661081c61038a565b73ffffffffffffffffffffffffffffffffffffffff1614610872576040517f08c379a000000000000000000000000000000000000000000000000000000000815260040161086990610e46565b60405180910390fd5b565b60008060009054906101000a900473ffffffffffffffffffffffffffffffffffffffff169050816000806101000a81548173ffffffffffffffffffffffffffffffffffffffff021916908373ffffffffffffffffffffffffffffffffffffffff1602179055508173ffffffffffffffffffffffffffffffffffffffff168173ffffffffffffffffffffffffffffffffffffffff167f8be0079c531659141344cd1fd0a4f28419497f9722a3daafe3b4186f6b6457e060405160405180910390a35050565b6000610960836000018373ffffffffffffffffffffffffffffffffffffffff1660001b610a5f565b905092915050565b6060816000018054806020026020016040519081016040528092919081815260200182805480156109b857602002820191906000526020600020905b8154815260200190600101908083116109a4575b50505050509050919050565b600080836001016000848152602001908152602001600020541415905092915050565b60006109f383836109c4565b610a4c578260000182908060018154018082558091505060019003906000526020600020016000909190919091505582600001805490508360010160008481526020019081526020016000208190555060019050610a51565b600090505b92915050565b600033905090565b60008083600101600084815260200190815260200160002054905060008114610bd9576000600182610a919190610f14565b9050600060018660000180549050610aa99190610f14565b9050818114610b64576000866000018281548110610af0577f4e487b7100000000000000000000000000000000000000000000000000000000600052603260045260246000fd5b9060005260206000200154905080876000018481548110610b3a577f4e487b7100000000000000000000000000000000000000000000000000000000600052603260045260246000fd5b90600052602060002001819055508387600101600083815260200190815260200160002081905550505b85600001805480610b9e577f4e487b7100000000000000000000000000000000000000000000000000000000600052603160045260246000fd5b600190038181906000526020600020016000905590558560010160008681526020019081526020016000206000905560019350505050610bdf565b60009150505b92915050565b600081359050610bf481611060565b92915050565b600081519050610c0981611060565b92915050565b600081519050610c1e81611077565b92915050565b600081359050610c338161108e565b92915050565b600060208284031215610c4b57600080fd5b6000610c5984828501610be5565b91505092915050565b600060208284031215610c7457600080fd5b6000610c8284828501610bfa565b91505092915050565b600060208284031215610c9d57600080fd5b6000610cab84828501610c0f565b91505092915050565b600060208284031215610cc657600080fd5b6000610cd484828501610c24565b91505092915050565b6000610ce98383610cf5565b60208301905092915050565b610cfe81610f48565b82525050565b610d0d81610f48565b82525050565b6000610d1e82610eda565b610d288185610ef2565b9350610d3383610eca565b8060005b83811015610d64578151610d4b8882610cdd565b9750610d5683610ee5565b925050600181019050610d37565b5085935050505092915050565b6000610d7e602683610f03565b9150610d8982610fbf565b604082019050919050565b6000610da1602083610f03565b9150610dac8261100e565b602082019050919050565b6000610dc4601383610f03565b9150610dcf82611037565b602082019050919050565b610de381610f86565b82525050565b6000602082019050610dfe6000830184610d04565b92915050565b60006020820190508181036000830152610e1e8184610d13565b905092915050565b60006020820190508181036000830152610e3f81610d71565b9050919050565b60006020820190508181036000830152610e5f81610d94565b9050919050565b60006020820190508181036000830152610e7f81610db7565b9050919050565b6000602082019050610e9b6000830184610dda565b92915050565b6000604082019050610eb66000830185610dda565b610ec36020830184610dda565b9392505050565b6000819050602082019050919050565b600081519050919050565b6000602082019050919050565b600082825260208201905092915050565b600082825260208201905092915050565b6000610f1f82610f86565b9150610f2a83610f86565b925082821015610f3d57610f3c610f90565b5b828203905092915050565b6000610f5382610f66565b9050919050565b60008115159050919050565b600073ffffffffffffffffffffffffffffffffffffffff82169050919050565b6000819050919050565b7f4e487b7100000000000000000000000000000000000000000000000000000000600052601160045260246000fd5b7f4f776e61626c653a206e6577206f776e657220697320746865207a65726f206160008201527f6464726573730000000000000000000000000000000000000000000000000000602082015250565b7f4f776e61626c653a2063616c6c6572206973206e6f7420746865206f776e6572600082015250565b7f4170706c69636174696f6e206164647265737300000000000000000000000000600082015250565b61106981610f48565b811461107457600080fd5b50565b61108081610f5a565b811461108b57600080fd5b50565b61109781610f86565b81146110a257600080fd5b5056fea26469706673582212209f1a42a10ef8858e8c035def5b5426190289f3e38203d0f87e22fbbfc3818c0664736f6c63430008040033",
  "linkReferences": {},
  "deployedLinkReferences": {}
}