{
  "_format": "hh-sol-artifact-1",
  "contractName": "Application",
  "sourceName": "contracts/Application.sol",
  "abi": [
    {
      "inputs": [
        {
          "components": [
            {
              "internalType": "string",
              "name": "name",
              "type": "string"
            },
            {
              "internalType": "string",
              "name": "symbol",
              "type": "string"
            },
            {
              "internalType": "bytes32",
              "name": "cid",
              "type": "bytes32"
            },
            {
              "internalType": "address",
              "name": "publisher",
              "type": "address"
            }
          ],
          "internalType": "struct AppInitRequest",
          "name": "request",
          "type": "tuple"
        }
      ],
      "stateMutability": "nonpayable",
      "type": "constructor"
    },
    {
      "inputs": [
        {
          "internalType": "string",
          "name": "fieldName",
          "type": "string"
        }
      ],
      "name": "EmptyField",
      "type": "error"
    },
    {
      "inputs": [],
      "name": "UnauthorizedError",
      "type": "error"
    },
    {
      "anonymous": false,
      "inputs": [
        {
          "indexed": true,
          "internalType": "address",
          "name": "previousOwner",
          "type": "address"
        },
        {
          "indexed": true,
          "internalType": "address",
          "name": "newOwner",
          "type": "address"
        }
      ],
      "name": "OwnershipTransferred",
      "type": "event"
    },
    {
      "anonymous": false,
      "inputs": [
        {
          "indexed": false,
          "internalType": "address",
          "name": "account",
          "type": "address"
        }
      ],
      "name": "Paused",
      "type": "event"
    },
    {
      "anonymous": false,
      "inputs": [
        {
          "indexed": true,
          "internalType": "bytes32",
          "name": "role",
          "type": "bytes32"
        },
        {
          "indexed": true,
          "internalType": "bytes32",
          "name": "previousAdminRole",
          "type": "bytes32"
        },
        {
          "indexed": true,
          "internalType": "bytes32",
          "name": "newAdminRole",
          "type": "bytes32"
        }
      ],
      "name": "RoleAdminChanged",
      "type": "event"
    },
    {
      "anonymous": false,
      "inputs": [
        {
          "indexed": true,
          "internalType": "bytes32",
          "name": "role",
          "type": "bytes32"
        },
        {
          "indexed": true,
          "internalType": "address",
          "name": "account",
          "type": "address"
        },
        {
          "indexed": true,
          "internalType": "address",
          "name": "sender",
          "type": "address"
        }
      ],
      "name": "RoleGranted",
      "type": "event"
    },
    {
      "anonymous": false,
      "inputs": [
        {
          "indexed": true,
          "internalType": "bytes32",
          "name": "role",
          "type": "bytes32"
        },
        {
          "indexed": true,
          "internalType": "address",
          "name": "account",
          "type": "address"
        },
        {
          "indexed": true,
          "internalType": "address",
          "name": "sender",
          "type": "address"
        }
      ],
      "name": "RoleRevoked",
      "type": "event"
    },
    {
      "anonymous": false,
      "inputs": [
        {
          "indexed": false,
          "internalType": "address",
          "name": "account",
          "type": "address"
        }
      ],
      "name": "Unpaused",
      "type": "event"
    },
    {
      "inputs": [],
      "name": "ADMIN",
      "outputs": [
        {
          "internalType": "bytes32",
          "name": "",
          "type": "bytes32"
        }
      ],
      "stateMutability": "view",
      "type": "function"
    },
    {
      "inputs": [],
      "name": "DEFAULT_ADMIN_ROLE",
      "outputs": [
        {
          "internalType": "bytes32",
          "name": "",
          "type": "bytes32"
        }
      ],
      "stateMutability": "view",
      "type": "function"
    },
    {
      "inputs": [
        {
          "internalType": "address",
          "name": "_licenseContract",
          "type": "address"
        }
      ],
      "name": "addLicenseContract",
      "outputs": [],
      "stateMutability": "nonpayable",
      "type": "function"
    },
    {
      "inputs": [],
      "name": "cid",
      "outputs": [
        {
          "internalType": "bytes32",
          "name": "",
          "type": "bytes32"
        }
      ],
      "stateMutability": "view",
      "type": "function"
    },
    {
      "inputs": [],
      "name": "getLicenseContracts",
      "outputs": [
        {
          "internalType": "address[]",
          "name": "",
          "type": "address[]"
        }
      ],
      "stateMutability": "view",
      "type": "function"
    },
    {
      "inputs": [
        {
          "internalType": "bytes32",
          "name": "role",
          "type": "bytes32"
        }
      ],
      "name": "getRoleAdmin",
      "outputs": [
        {
          "internalType": "bytes32",
          "name": "",
          "type": "bytes32"
        }
      ],
      "stateMutability": "view",
      "type": "function"
    },
    {
      "inputs": [
        {
          "internalType": "bytes32",
          "name": "role",
          "type": "bytes32"
        },
        {
          "internalType": "uint256",
          "name": "index",
          "type": "uint256"
        }
      ],
      "name": "getRoleMember",
      "outputs": [
        {
          "internalType": "address",
          "name": "",
          "type": "address"
        }
      ],
      "stateMutability": "view",
      "type": "function"
    },
    {
      "inputs": [
        {
          "internalType": "bytes32",
          "name": "role",
          "type": "bytes32"
        }
      ],
      "name": "getRoleMemberCount",
      "outputs": [
        {
          "internalType": "uint256",
          "name": "",
          "type": "uint256"
        }
      ],
      "stateMutability": "view",
      "type": "function"
    },
    {
      "inputs": [
        {
          "internalType": "bytes32",
          "name": "role",
          "type": "bytes32"
        },
        {
          "internalType": "address",
          "name": "account",
          "type": "address"
        }
      ],
      "name": "grantRole",
      "outputs": [],
      "stateMutability": "nonpayable",
      "type": "function"
    },
    {
      "inputs": [
        {
          "internalType": "bytes32",
          "name": "role",
          "type": "bytes32"
        },
        {
          "internalType": "address",
          "name": "account",
          "type": "address"
        }
      ],
      "name": "hasRole",
      "outputs": [
        {
          "internalType": "bool",
          "name": "",
          "type": "bool"
        }
      ],
      "stateMutability": "view",
      "type": "function"
    },
    {
      "inputs": [],
      "name": "name",
      "outputs": [
        {
          "internalType": "string",
          "name": "",
          "type": "string"
        }
      ],
      "stateMutability": "view",
      "type": "function"
    },
    {
      "inputs": [],
      "name": "owner",
      "outputs": [
        {
          "internalType": "address",
          "name": "",
          "type": "address"
        }
      ],
      "stateMutability": "view",
      "type": "function"
    },
    {
      "inputs": [],
      "name": "paused",
      "outputs": [
        {
          "internalType": "bool",
          "name": "",
          "type": "bool"
        }
      ],
      "stateMutability": "view",
      "type": "function"
    },
    {
      "inputs": [],
      "name": "publisher",
      "outputs": [
        {
          "internalType": "address",
          "name": "",
          "type": "address"
        }
      ],
      "stateMutability": "view",
      "type": "function"
    },
    {
      "inputs": [
        {
          "internalType": "address",
          "name": "_licenseContract",
          "type": "address"
        }
      ],
      "name": "removeLicenseContract",
      "outputs": [],
      "stateMutability": "nonpayable",
      "type": "function"
    },
    {
      "inputs": [],
      "name": "renounceOwnership",
      "outputs": [],
      "stateMutability": "nonpayable",
      "type": "function"
    },
    {
      "inputs": [
        {
          "internalType": "bytes32",
          "name": "role",
          "type": "bytes32"
        },
        {
          "internalType": "address",
          "name": "account",
          "type": "address"
        }
      ],
      "name": "renounceRole",
      "outputs": [],
      "stateMutability": "nonpayable",
      "type": "function"
    },
    {
      "inputs": [
        {
          "internalType": "bytes32",
          "name": "role",
          "type": "bytes32"
        },
        {
          "internalType": "address",
          "name": "account",
          "type": "address"
        }
      ],
      "name": "revokeRole",
      "outputs": [],
      "stateMutability": "nonpayable",
      "type": "function"
    },
    {
      "inputs": [
        {
          "internalType": "bytes32",
          "name": "_cid",
          "type": "bytes32"
        }
      ],
      "name": "setCid",
      "outputs": [],
      "stateMutability": "nonpayable",
      "type": "function"
    },
    {
      "inputs": [
        {
          "internalType": "string",
          "name": "_name",
          "type": "string"
        }
      ],
      "name": "setName",
      "outputs": [],
      "stateMutability": "nonpayable",
      "type": "function"
    },
    {
      "inputs": [
        {
          "internalType": "address",
          "name": "_publisher",
          "type": "address"
        }
      ],
      "name": "setPublisher",
      "outputs": [],
      "stateMutability": "nonpayable",
      "type": "function"
    },
    {
      "inputs": [
        {
          "internalType": "bytes4",
          "name": "interfaceId",
          "type": "bytes4"
        }
      ],
      "name": "supportsInterface",
      "outputs": [
        {
          "internalType": "bool",
          "name": "",
          "type": "bool"
        }
      ],
      "stateMutability": "view",
      "type": "function"
    },
    {
      "inputs": [],
      "name": "symbol",
      "outputs": [
        {
          "internalType": "string",
          "name": "",
          "type": "string"
        }
      ],
      "stateMutability": "view",
      "type": "function"
    },
    {
      "inputs": [
        {
          "internalType": "address",
          "name": "newOwner",
          "type": "address"
        }
      ],
      "name": "transferOwnership",
      "outputs": [],
      "stateMutability": "nonpayable",
      "type": "function"
    }
  ],
  "bytecode": "0x60806040526000600660006101000a81548173ffffffffffffffffffffffffffffffffffffffff021916908373ffffffffffffffffffffffffffffffffffffffff1602179055503480156200005357600080fd5b506040516200303d3803806200303d83398181016040528101906200007991906200086c565b620000996200008d6200032660201b60201c565b6200032e60201b60201c565b60008060146101000a81548160ff02191690831515021790555060008160000151511415620000ff576040517fa69290e7000000000000000000000000000000000000000000000000000000008152600401620000f6906200094d565b60405180910390fd5b600081602001515114156200014b576040517fa69290e70000000000000000000000000000000000000000000000000000000081526004016200014290620009b3565b60405180910390fd5b6000801b8160400151141562000198576040517fa69290e70000000000000000000000000000000000000000000000000000000081526004016200018f9062000991565b60405180910390fd5b600073ffffffffffffffffffffffffffffffffffffffff16816060015173ffffffffffffffffffffffffffffffffffffffff1614156200020f576040517fa69290e700000000000000000000000000000000000000000000000000000000815260040162000206906200096f565b60405180910390fd5b8060000151600390805190602001906200022b9291906200066b565b50806020015160049080519060200190620002489291906200066b565b5080604001516005819055508060600151600660006101000a81548173ffffffffffffffffffffffffffffffffffffffff021916908373ffffffffffffffffffffffffffffffffffffffff160217905550620002cb7fdf8b4c520ffe197c5343c6f5aec59570151ef9a492f2c624fd45ddde6135ec4233620003f260201b60201c565b6200031f7fdf8b4c520ffe197c5343c6f5aec59570151ef9a492f2c624fd45ddde6135ec42600660009054906101000a900473ffffffffffffffffffffffffffffffffffffffff16620003f260201b60201c565b5062000c6c565b600033905090565b60008060009054906101000a900473ffffffffffffffffffffffffffffffffffffffff169050816000806101000a81548173ffffffffffffffffffffffffffffffffffffffff021916908373ffffffffffffffffffffffffffffffffffffffff1602179055508173ffffffffffffffffffffffffffffffffffffffff168173ffffffffffffffffffffffffffffffffffffffff167f8be0079c531659141344cd1fd0a4f28419497f9722a3daafe3b4186f6b6457e060405160405180910390a35050565b6200040982826200043a60201b62000bf01760201c565b6200043581600260008581526020019081526020016000206200052b60201b62000cd01790919060201c565b505050565b6200044c82826200056360201b60201c565b6200052757600180600084815260200190815260200160002060000160008373ffffffffffffffffffffffffffffffffffffffff1673ffffffffffffffffffffffffffffffffffffffff16815260200190815260200160002060006101000a81548160ff021916908315150217905550620004cc6200032660201b60201c565b73ffffffffffffffffffffffffffffffffffffffff168173ffffffffffffffffffffffffffffffffffffffff16837f2f8788117e7eff1d82e926ec794901d17c78024a50270940304540a733656f0d60405160405180910390a45b5050565b60006200055b836000018373ffffffffffffffffffffffffffffffffffffffff1660001b620005ce60201b60201c565b905092915050565b60006001600084815260200190815260200160002060000160008373ffffffffffffffffffffffffffffffffffffffff1673ffffffffffffffffffffffffffffffffffffffff16815260200190815260200160002060009054906101000a900460ff16905092915050565b6000620005e283836200064860201b60201c565b6200063d57826000018290806001815401808255809150506001900390600052602060002001600090919091909150558260000180549050836001016000848152602001908152602001600020819055506001905062000642565b600090505b92915050565b600080836001016000848152602001908152602001600020541415905092915050565b828054620006799062000ab9565b90600052602060002090601f0160209004810192826200069d5760008555620006e9565b82601f10620006b857805160ff1916838001178555620006e9565b82800160010185558215620006e9579182015b82811115620006e8578251825591602001919060010190620006cb565b5b509050620006f89190620006fc565b5090565b5b8082111562000717576000816000905550600101620006fd565b5090565b6000620007326200072c84620009fe565b620009d5565b9050828152602081018484840111156200074b57600080fd5b6200075884828562000a83565b509392505050565b600081519050620007718162000c38565b92915050565b600081519050620007888162000c52565b92915050565b600082601f830112620007a057600080fd5b8151620007b28482602086016200071b565b91505092915050565b600060808284031215620007ce57600080fd5b620007da6080620009d5565b9050600082015167ffffffffffffffff811115620007f757600080fd5b62000805848285016200078e565b600083015250602082015167ffffffffffffffff8111156200082657600080fd5b62000834848285016200078e565b60208301525060406200084a8482850162000777565b6040830152506060620008608482850162000760565b60608301525092915050565b6000602082840312156200087f57600080fd5b600082015167ffffffffffffffff8111156200089a57600080fd5b620008a884828501620007bb565b91505092915050565b6000620008c060048362000a34565b9150620008cd8262000b94565b602082019050919050565b6000620008e760098362000a34565b9150620008f48262000bbd565b602082019050919050565b60006200090e60038362000a34565b91506200091b8262000be6565b602082019050919050565b60006200093560068362000a34565b9150620009428262000c0f565b602082019050919050565b600060208201905081810360008301526200096881620008b1565b9050919050565b600060208201905081810360008301526200098a81620008d8565b9050919050565b60006020820190508181036000830152620009ac81620008ff565b9050919050565b60006020820190508181036000830152620009ce8162000926565b9050919050565b6000620009e1620009f4565b9050620009ef828262000aef565b919050565b6000604051905090565b600067ffffffffffffffff82111562000a1c5762000a1b62000b54565b5b62000a278262000b83565b9050602081019050919050565b600082825260208201905092915050565b600062000a528262000a63565b9050919050565b6000819050919050565b600073ffffffffffffffffffffffffffffffffffffffff82169050919050565b60005b8381101562000aa357808201518184015260208101905062000a86565b8381111562000ab3576000848401525b50505050565b6000600282049050600182168062000ad257607f821691505b6020821081141562000ae95762000ae862000b25565b5b50919050565b62000afa8262000b83565b810181811067ffffffffffffffff8211171562000b1c5762000b1b62000b54565b5b80604052505050565b7f4e487b7100000000000000000000000000000000000000000000000000000000600052602260045260246000fd5b7f4e487b7100000000000000000000000000000000000000000000000000000000600052604160045260246000fd5b6000601f19601f8301169050919050565b7f6e616d6500000000000000000000000000000000000000000000000000000000600082015250565b7f7075626c69736865720000000000000000000000000000000000000000000000600082015250565b7f6369640000000000000000000000000000000000000000000000000000000000600082015250565b7f73796d626f6c0000000000000000000000000000000000000000000000000000600082015250565b62000c438162000a45565b811462000c4f57600080fd5b50565b62000c5d8162000a59565b811462000c6957600080fd5b50565b6123c18062000c7c6000396000f3fe608060405234801561001057600080fd5b50600436106101585760003560e01c80638da5cb5b116100c3578063c47f00271161007c578063c47f0027146103a5578063ca15c873146103c1578063cab63661146103f1578063d547741f1461040d578063ef8b860a14610429578063f2fde38b1461044557610158565b80638da5cb5b146102cd5780639010d07c146102eb57806391d148541461031b57806395d89b411461034b578063a217fddf14610369578063aa3ec0a91461038757610158565b80632f2ff15d116101155780632f2ff15d1461023157806336568abe1461024d5780635c975abb14610269578063715018a6146102875780637d600b9f146102915780638c72c54e146102af57610158565b806301ffc9a71461015d57806306fdde031461018d5780631b26c461146101ab57806320356ea5146101c7578063248a9ca3146101e35780632a0acc6a14610213575b600080fd5b61017760048036038101906101729190611a2b565b610461565b6040516101849190611d2c565b60405180910390f35b6101956104db565b6040516101a29190611d62565b60405180910390f35b6101c560048036038101906101c09190611938565b610569565b005b6101e160048036038101906101dc919061198a565b6105b4565b005b6101fd60048036038101906101f8919061198a565b6105f1565b60405161020a9190611d47565b60405180910390f35b61021b610611565b6040516102289190611d47565b60405180910390f35b61024b600480360381019061024691906119b3565b610635565b005b610267600480360381019061026291906119b3565b610656565b005b6102716106d9565b60405161027e9190611d2c565b60405180910390f35b61028f6106ef565b005b610299610703565b6040516102a69190611d0a565b60405180910390f35b6102b7610714565b6040516102c49190611cef565b60405180910390f35b6102d561073a565b6040516102e29190611cef565b60405180910390f35b610305600480360381019061030091906119ef565b610763565b6040516103129190611cef565b60405180910390f35b610335600480360381019061033091906119b3565b610792565b6040516103429190611d2c565b60405180910390f35b6103536107fd565b6040516103609190611d62565b60405180910390f35b61037161088b565b60405161037e9190611d47565b60405180910390f35b61038f610892565b60405161039c9190611d47565b60405180910390f35b6103bf60048036038101906103ba9190611a54565b610898565b005b6103db60048036038101906103d6919061198a565b6108e5565b6040516103e89190611e24565b60405180910390f35b61040b60048036038101906104069190611938565b610909565b005b610427600480360381019061042291906119b3565b6109f6565b005b610443600480360381019061043e9190611938565b610a17565b005b61045f600480360381019061045a9190611938565b610b6c565b005b60007f5a05180f000000000000000000000000000000000000000000000000000000007bffffffffffffffffffffffffffffffffffffffffffffffffffffffff1916827bffffffffffffffffffffffffffffffffffffffffffffffffffffffff191614806104d457506104d382610d00565b5b9050919050565b600380546104e8906120c3565b80601f0160208091040260200160405190810160405280929190818152602001828054610514906120c3565b80156105615780601f1061053657610100808354040283529160200191610561565b820191906000526020600020905b81548152906001019060200180831161054457829003601f168201915b505050505081565b7fdf8b4c520ffe197c5343c6f5aec59570151ef9a492f2c624fd45ddde6135ec4261059381610d7a565b61059b610d8e565b6105af826007610dd890919063ffffffff16565b505050565b7fdf8b4c520ffe197c5343c6f5aec59570151ef9a492f2c624fd45ddde6135ec426105de81610d7a565b6105e6610d8e565b816005819055505050565b600060016000838152602001908152602001600020600101549050919050565b7fdf8b4c520ffe197c5343c6f5aec59570151ef9a492f2c624fd45ddde6135ec4281565b61063e826105f1565b61064781610d7a565b6106518383610e08565b505050565b61065e610e3c565b73ffffffffffffffffffffffffffffffffffffffff168173ffffffffffffffffffffffffffffffffffffffff16146106cb576040517f08c379a00000000000000000000000000000000000000000000000000000000081526004016106c290611e04565b60405180910390fd5b6106d58282610e44565b5050565b60008060149054906101000a900460ff16905090565b6106f7610e78565b6107016000610ef6565b565b606061070f6007610fba565b905090565b600660009054906101000a900473ffffffffffffffffffffffffffffffffffffffff1681565b60008060009054906101000a900473ffffffffffffffffffffffffffffffffffffffff16905090565b600061078a8260026000868152602001908152602001600020610fdb90919063ffffffff16565b905092915050565b60006001600084815260200190815260200160002060000160008373ffffffffffffffffffffffffffffffffffffffff1673ffffffffffffffffffffffffffffffffffffffff16815260200190815260200160002060009054906101000a900460ff16905092915050565b6004805461080a906120c3565b80601f0160208091040260200160405190810160405280929190818152602001828054610836906120c3565b80156108835780601f1061085857610100808354040283529160200191610883565b820191906000526020600020905b81548152906001019060200180831161086657829003601f168201915b505050505081565b6000801b81565b60055481565b7fdf8b4c520ffe197c5343c6f5aec59570151ef9a492f2c624fd45ddde6135ec426108c281610d7a565b6108ca610d8e565b81600390805190602001906108e09291906117c4565b505050565b600061090260026000848152602001908152602001600020610ff5565b9050919050565b7fdf8b4c520ffe197c5343c6f5aec59570151ef9a492f2c624fd45ddde6135ec4261093381610d7a565b61093b610d8e565b6109877fdf8b4c520ffe197c5343c6f5aec59570151ef9a492f2c624fd45ddde6135ec42600660009054906101000a900473ffffffffffffffffffffffffffffffffffffffff16610e44565b81600660006101000a81548173ffffffffffffffffffffffffffffffffffffffff021916908373ffffffffffffffffffffffffffffffffffffffff1602179055506109f27fdf8b4c520ffe197c5343c6f5aec59570151ef9a492f2c624fd45ddde6135ec4283610e08565b5050565b6109ff826105f1565b610a0881610d7a565b610a128383610e44565b505050565b7fdf8b4c520ffe197c5343c6f5aec59570151ef9a492f2c624fd45ddde6135ec42610a4181610d7a565b610a49610d8e565b6000829050600660009054906101000a900473ffffffffffffffffffffffffffffffffffffffff1673ffffffffffffffffffffffffffffffffffffffff168173ffffffffffffffffffffffffffffffffffffffff16638da5cb5b6040518163ffffffff1660e01b815260040160206040518083038186803b158015610acd57600080fd5b505afa158015610ae1573d6000803e3d6000fd5b505050506040513d601f19601f82011682018060405250810190610b059190611961565b73ffffffffffffffffffffffffffffffffffffffff1614610b52576040517f8b5701f700000000000000000000000000000000000000000000000000000000815260040160405180910390fd5b610b66836007610cd090919063ffffffff16565b50505050565b610b74610e78565b600073ffffffffffffffffffffffffffffffffffffffff168173ffffffffffffffffffffffffffffffffffffffff161415610be4576040517f08c379a0000000000000000000000000000000000000000000000000000000008152600401610bdb90611da4565b60405180910390fd5b610bed81610ef6565b50565b610bfa8282610792565b610ccc57600180600084815260200190815260200160002060000160008373ffffffffffffffffffffffffffffffffffffffff1673ffffffffffffffffffffffffffffffffffffffff16815260200190815260200160002060006101000a81548160ff021916908315150217905550610c71610e3c565b73ffffffffffffffffffffffffffffffffffffffff168173ffffffffffffffffffffffffffffffffffffffff16837f2f8788117e7eff1d82e926ec794901d17c78024a50270940304540a733656f0d60405160405180910390a45b5050565b6000610cf8836000018373ffffffffffffffffffffffffffffffffffffffff1660001b61100a565b905092915050565b60007f7965db0b000000000000000000000000000000000000000000000000000000007bffffffffffffffffffffffffffffffffffffffffffffffffffffffff1916827bffffffffffffffffffffffffffffffffffffffffffffffffffffffff19161480610d735750610d728261107a565b5b9050919050565b610d8b81610d86610e3c565b6110e4565b50565b610d966106d9565b15610dd6576040517f08c379a0000000000000000000000000000000000000000000000000000000008152600401610dcd90611dc4565b60405180910390fd5b565b6000610e00836000018373ffffffffffffffffffffffffffffffffffffffff1660001b611181565b905092915050565b610e128282610bf0565b610e378160026000858152602001908152602001600020610cd090919063ffffffff16565b505050565b600033905090565b610e4e8282611307565b610e738160026000858152602001908152602001600020610dd890919063ffffffff16565b505050565b610e80610e3c565b73ffffffffffffffffffffffffffffffffffffffff16610e9e61073a565b73ffffffffffffffffffffffffffffffffffffffff1614610ef4576040517f08c379a0000000000000000000000000000000000000000000000000000000008152600401610eeb90611de4565b60405180910390fd5b565b60008060009054906101000a900473ffffffffffffffffffffffffffffffffffffffff169050816000806101000a81548173ffffffffffffffffffffffffffffffffffffffff021916908373ffffffffffffffffffffffffffffffffffffffff1602179055508173ffffffffffffffffffffffffffffffffffffffff168173ffffffffffffffffffffffffffffffffffffffff167f8be0079c531659141344cd1fd0a4f28419497f9722a3daafe3b4186f6b6457e060405160405180910390a35050565b60606000610fca836000016113e9565b905060608190508092505050919050565b6000610fea8360000183611445565b60001c905092915050565b600061100382600001611496565b9050919050565b600061101683836114a7565b61106f578260000182908060018154018082558091505060019003906000526020600020016000909190919091505582600001805490508360010160008481526020019081526020016000208190555060019050611074565b600090505b92915050565b60007f01ffc9a7000000000000000000000000000000000000000000000000000000007bffffffffffffffffffffffffffffffffffffffffffffffffffffffff1916827bffffffffffffffffffffffffffffffffffffffffffffffffffffffff1916149050919050565b6110ee8282610792565b61117d576111138173ffffffffffffffffffffffffffffffffffffffff1660146114ca565b6111218360001c60206114ca565b604051602001611132929190611cb5565b6040516020818303038152906040526040517f08c379a00000000000000000000000000000000000000000000000000000000081526004016111749190611d62565b60405180910390fd5b5050565b600080836001016000848152602001908152602001600020549050600081146112fb5760006001826111b39190611fa5565b90506000600186600001805490506111cb9190611fa5565b9050818114611286576000866000018281548110611212577f4e487b7100000000000000000000000000000000000000000000000000000000600052603260045260246000fd5b906000526020600020015490508087600001848154811061125c577f4e487b7100000000000000000000000000000000000000000000000000000000600052603260045260246000fd5b90600052602060002001819055508387600101600083815260200190815260200160002081905550505b856000018054806112c0577f4e487b7100000000000000000000000000000000000000000000000000000000600052603160045260246000fd5b600190038181906000526020600020016000905590558560010160008681526020019081526020016000206000905560019350505050611301565b60009150505b92915050565b6113118282610792565b156113e55760006001600084815260200190815260200160002060000160008373ffffffffffffffffffffffffffffffffffffffff1673ffffffffffffffffffffffffffffffffffffffff16815260200190815260200160002060006101000a81548160ff02191690831515021790555061138a610e3c565b73ffffffffffffffffffffffffffffffffffffffff168173ffffffffffffffffffffffffffffffffffffffff16837ff6391f5c32d9c69d2a47ea670b442974b53935d1edc7fd64eb21e047a839171b60405160405180910390a45b5050565b60608160000180548060200260200160405190810160405280929190818152602001828054801561143957602002820191906000526020600020905b815481526020019060010190808311611425575b50505050509050919050565b6000826000018281548110611483577f4e487b7100000000000000000000000000000000000000000000000000000000600052603260045260246000fd5b9060005260206000200154905092915050565b600081600001805490509050919050565b600080836001016000848152602001908152602001600020541415905092915050565b6060600060028360026114dd9190611f4b565b6114e79190611ef5565b67ffffffffffffffff811115611526577f4e487b7100000000000000000000000000000000000000000000000000000000600052604160045260246000fd5b6040519080825280601f01601f1916602001820160405280156115585781602001600182028036833780820191505090505b5090507f3000000000000000000000000000000000000000000000000000000000000000816000815181106115b6577f4e487b7100000000000000000000000000000000000000000000000000000000600052603260045260246000fd5b60200101907effffffffffffffffffffffffffffffffffffffffffffffffffffffffffffff1916908160001a9053507f780000000000000000000000000000000000000000000000000000000000000081600181518110611640577f4e487b7100000000000000000000000000000000000000000000000000000000600052603260045260246000fd5b60200101907effffffffffffffffffffffffffffffffffffffffffffffffffffffffffffff1916908160001a905350600060018460026116809190611f4b565b61168a9190611ef5565b90505b6001811115611776577f3031323334353637383961626364656600000000000000000000000000000000600f8616601081106116f2577f4e487b7100000000000000000000000000000000000000000000000000000000600052603260045260246000fd5b1a60f81b82828151811061172f577f4e487b7100000000000000000000000000000000000000000000000000000000600052603260045260246000fd5b60200101907effffffffffffffffffffffffffffffffffffffffffffffffffffffffffffff1916908160001a905350600485901c94508061176f90612099565b905061168d565b50600084146117ba576040517f08c379a00000000000000000000000000000000000000000000000000000000081526004016117b190611d84565b60405180910390fd5b8091505092915050565b8280546117d0906120c3565b90600052602060002090601f0160209004810192826117f25760008555611839565b82601f1061180b57805160ff1916838001178555611839565b82800160010185558215611839579182015b8281111561183857825182559160200191906001019061181d565b5b509050611846919061184a565b5090565b5b8082111561186357600081600090555060010161184b565b5090565b600061187a61187584611e64565b611e3f565b90508281526020810184848401111561189257600080fd5b61189d848285612057565b509392505050565b6000813590506118b48161232f565b92915050565b6000815190506118c98161232f565b92915050565b6000813590506118de81612346565b92915050565b6000813590506118f38161235d565b92915050565b600082601f83011261190a57600080fd5b813561191a848260208601611867565b91505092915050565b60008135905061193281612374565b92915050565b60006020828403121561194a57600080fd5b6000611958848285016118a5565b91505092915050565b60006020828403121561197357600080fd5b6000611981848285016118ba565b91505092915050565b60006020828403121561199c57600080fd5b60006119aa848285016118cf565b91505092915050565b600080604083850312156119c657600080fd5b60006119d4858286016118cf565b92505060206119e5858286016118a5565b9150509250929050565b60008060408385031215611a0257600080fd5b6000611a10858286016118cf565b9250506020611a2185828601611923565b9150509250929050565b600060208284031215611a3d57600080fd5b6000611a4b848285016118e4565b91505092915050565b600060208284031215611a6657600080fd5b600082013567ffffffffffffffff811115611a8057600080fd5b611a8c848285016118f9565b91505092915050565b6000611aa18383611aad565b60208301905092915050565b611ab681611fd9565b82525050565b611ac581611fd9565b82525050565b6000611ad682611ea5565b611ae08185611ec8565b9350611aeb83611e95565b8060005b83811015611b1c578151611b038882611a95565b9750611b0e83611ebb565b925050600181019050611aef565b5085935050505092915050565b611b3281611feb565b82525050565b611b4181611ff7565b82525050565b6000611b5282611eb0565b611b5c8185611ed9565b9350611b6c818560208601612066565b611b75816121b3565b840191505092915050565b6000611b8b82611eb0565b611b958185611eea565b9350611ba5818560208601612066565b80840191505092915050565b6000611bbe602083611ed9565b9150611bc9826121c4565b602082019050919050565b6000611be1602683611ed9565b9150611bec826121ed565b604082019050919050565b6000611c04601083611ed9565b9150611c0f8261223c565b602082019050919050565b6000611c27602083611ed9565b9150611c3282612265565b602082019050919050565b6000611c4a601783611eea565b9150611c558261228e565b601782019050919050565b6000611c6d601183611eea565b9150611c78826122b7565b601182019050919050565b6000611c90602f83611ed9565b9150611c9b826122e0565b604082019050919050565b611caf8161204d565b82525050565b6000611cc082611c3d565b9150611ccc8285611b80565b9150611cd782611c60565b9150611ce38284611b80565b91508190509392505050565b6000602082019050611d046000830184611abc565b92915050565b60006020820190508181036000830152611d248184611acb565b905092915050565b6000602082019050611d416000830184611b29565b92915050565b6000602082019050611d5c6000830184611b38565b92915050565b60006020820190508181036000830152611d7c8184611b47565b905092915050565b60006020820190508181036000830152611d9d81611bb1565b9050919050565b60006020820190508181036000830152611dbd81611bd4565b9050919050565b60006020820190508181036000830152611ddd81611bf7565b9050919050565b60006020820190508181036000830152611dfd81611c1a565b9050919050565b60006020820190508181036000830152611e1d81611c83565b9050919050565b6000602082019050611e396000830184611ca6565b92915050565b6000611e49611e5a565b9050611e5582826120f5565b919050565b6000604051905090565b600067ffffffffffffffff821115611e7f57611e7e612184565b5b611e88826121b3565b9050602081019050919050565b6000819050602082019050919050565b600081519050919050565b600081519050919050565b6000602082019050919050565b600082825260208201905092915050565b600082825260208201905092915050565b600081905092915050565b6000611f008261204d565b9150611f0b8361204d565b9250827fffffffffffffffffffffffffffffffffffffffffffffffffffffffffffffffff03821115611f4057611f3f612126565b5b828201905092915050565b6000611f568261204d565b9150611f618361204d565b9250817fffffffffffffffffffffffffffffffffffffffffffffffffffffffffffffffff0483118215151615611f9a57611f99612126565b5b828202905092915050565b6000611fb08261204d565b9150611fbb8361204d565b925082821015611fce57611fcd612126565b5b828203905092915050565b6000611fe48261202d565b9050919050565b60008115159050919050565b6000819050919050565b60007fffffffff0000000000000000000000000000000000000000000000000000000082169050919050565b600073ffffffffffffffffffffffffffffffffffffffff82169050919050565b6000819050919050565b82818337600083830152505050565b60005b83811015612084578082015181840152602081019050612069565b83811115612093576000848401525b50505050565b60006120a48261204d565b915060008214156120b8576120b7612126565b5b600182039050919050565b600060028204905060018216806120db57607f821691505b602082108114156120ef576120ee612155565b5b50919050565b6120fe826121b3565b810181811067ffffffffffffffff8211171561211d5761211c612184565b5b80604052505050565b7f4e487b7100000000000000000000000000000000000000000000000000000000600052601160045260246000fd5b7f4e487b7100000000000000000000000000000000000000000000000000000000600052602260045260246000fd5b7f4e487b7100000000000000000000000000000000000000000000000000000000600052604160045260246000fd5b6000601f19601f8301169050919050565b7f537472696e67733a20686578206c656e67746820696e73756666696369656e74600082015250565b7f4f776e61626c653a206e6577206f776e657220697320746865207a65726f206160008201527f6464726573730000000000000000000000000000000000000000000000000000602082015250565b7f5061757361626c653a2070617573656400000000000000000000000000000000600082015250565b7f4f776e61626c653a2063616c6c6572206973206e6f7420746865206f776e6572600082015250565b7f416363657373436f6e74726f6c3a206163636f756e7420000000000000000000600082015250565b7f206973206d697373696e6720726f6c6520000000000000000000000000000000600082015250565b7f416363657373436f6e74726f6c3a2063616e206f6e6c792072656e6f756e636560008201527f20726f6c657320666f722073656c660000000000000000000000000000000000602082015250565b61233881611fd9565b811461234357600080fd5b50565b61234f81611ff7565b811461235a57600080fd5b50565b61236681612001565b811461237157600080fd5b50565b61237d8161204d565b811461238857600080fd5b5056fea264697066735822122031652f6651c9aa151be6d0bda0c71890be87034c4014871a49aeecb758695c0764736f6c63430008040033",
  "linkReferences": {},
  "deployedLinkReferences": {}
}