{
  "contractName": "ERC721App",
  "abi": [
    {
      "inputs": [
        {
          "components": [
            {
              "internalType": "string",
              "name": "name",
              "type": "string"
            },
            {
              "internalType": "string",
              "name": "symbol",
              "type": "string"
            },
            {
              "internalType": "bytes32",
              "name": "cid",
              "type": "bytes32"
            },
            {
              "internalType": "address",
              "name": "publisher",
              "type": "address"
            }
          ],
          "internalType": "struct AppInitRequest",
          "name": "request",
          "type": "tuple"
        }
      ],
      "stateMutability": "nonpayable",
      "type": "constructor"
    },
    {
      "anonymous": false,
      "inputs": [
        {
          "indexed": true,
          "internalType": "address",
          "name": "owner",
          "type": "address"
        },
        {
          "indexed": true,
          "internalType": "address",
          "name": "approved",
          "type": "address"
        },
        {
          "indexed": true,
          "internalType": "uint256",
          "name": "tokenId",
          "type": "uint256"
        }
      ],
      "name": "Approval",
      "type": "event"
    },
    {
      "anonymous": false,
      "inputs": [
        {
          "indexed": true,
          "internalType": "address",
          "name": "owner",
          "type": "address"
        },
        {
          "indexed": true,
          "internalType": "address",
          "name": "operator",
          "type": "address"
        },
        {
          "indexed": false,
          "internalType": "bool",
          "name": "approved",
          "type": "bool"
        }
      ],
      "name": "ApprovalForAll",
      "type": "event"
    },
    {
      "anonymous": false,
      "inputs": [
        {
          "indexed": true,
          "internalType": "address",
          "name": "previousOwner",
          "type": "address"
        },
        {
          "indexed": true,
          "internalType": "address",
          "name": "newOwner",
          "type": "address"
        }
      ],
      "name": "OwnershipTransferred",
      "type": "event"
    },
    {
      "anonymous": false,
      "inputs": [
        {
          "indexed": true,
          "internalType": "address",
          "name": "from",
          "type": "address"
        },
        {
          "indexed": true,
          "internalType": "address",
          "name": "to",
          "type": "address"
        },
        {
          "indexed": true,
          "internalType": "uint256",
          "name": "tokenId",
          "type": "uint256"
        }
      ],
      "name": "Transfer",
      "type": "event"
    },
    {
      "inputs": [
        {
          "internalType": "address",
          "name": "to",
          "type": "address"
        },
        {
          "internalType": "uint256",
          "name": "tokenId",
          "type": "uint256"
        }
      ],
      "name": "approve",
      "outputs": [],
      "stateMutability": "nonpayable",
      "type": "function"
    },
    {
      "inputs": [
        {
          "internalType": "address",
          "name": "owner",
          "type": "address"
        }
      ],
      "name": "balanceOf",
      "outputs": [
        {
          "internalType": "uint256",
          "name": "",
          "type": "uint256"
        }
      ],
      "stateMutability": "view",
      "type": "function"
    },
    {
      "inputs": [
        {
          "internalType": "uint256",
          "name": "tokenId",
          "type": "uint256"
        }
      ],
      "name": "getApproved",
      "outputs": [
        {
          "internalType": "address",
          "name": "",
          "type": "address"
        }
      ],
      "stateMutability": "view",
      "type": "function"
    },
    {
      "inputs": [
        {
          "internalType": "address",
          "name": "owner",
          "type": "address"
        },
        {
          "internalType": "address",
          "name": "operator",
          "type": "address"
        }
      ],
      "name": "isApprovedForAll",
      "outputs": [
        {
          "internalType": "bool",
          "name": "",
          "type": "bool"
        }
      ],
      "stateMutability": "view",
      "type": "function"
    },
    {
      "inputs": [],
      "name": "name",
      "outputs": [
        {
          "internalType": "string",
          "name": "",
          "type": "string"
        }
      ],
      "stateMutability": "view",
      "type": "function"
    },
    {
      "inputs": [],
      "name": "owner",
      "outputs": [
        {
          "internalType": "address",
          "name": "",
          "type": "address"
        }
      ],
      "stateMutability": "view",
      "type": "function"
    },
    {
      "inputs": [
        {
          "internalType": "uint256",
          "name": "tokenId",
          "type": "uint256"
        }
      ],
      "name": "ownerOf",
      "outputs": [
        {
          "internalType": "address",
          "name": "",
          "type": "address"
        }
      ],
      "stateMutability": "view",
      "type": "function"
    },
    {
      "inputs": [],
      "name": "publisher",
      "outputs": [
        {
          "internalType": "address",
          "name": "",
          "type": "address"
        }
      ],
      "stateMutability": "view",
      "type": "function"
    },
    {
      "inputs": [],
      "name": "renounceOwnership",
      "outputs": [],
      "stateMutability": "nonpayable",
      "type": "function"
    },
    {
      "inputs": [
        {
          "internalType": "address",
          "name": "from",
          "type": "address"
        },
        {
          "internalType": "address",
          "name": "to",
          "type": "address"
        },
        {
          "internalType": "uint256",
          "name": "tokenId",
          "type": "uint256"
        }
      ],
      "name": "safeTransferFrom",
      "outputs": [],
      "stateMutability": "nonpayable",
      "type": "function"
    },
    {
      "inputs": [
        {
          "internalType": "address",
          "name": "from",
          "type": "address"
        },
        {
          "internalType": "address",
          "name": "to",
          "type": "address"
        },
        {
          "internalType": "uint256",
          "name": "tokenId",
          "type": "uint256"
        },
        {
          "internalType": "bytes",
          "name": "data",
          "type": "bytes"
        }
      ],
      "name": "safeTransferFrom",
      "outputs": [],
      "stateMutability": "nonpayable",
      "type": "function"
    },
    {
      "inputs": [
        {
          "internalType": "address",
          "name": "operator",
          "type": "address"
        },
        {
          "internalType": "bool",
          "name": "approved",
          "type": "bool"
        }
      ],
      "name": "setApprovalForAll",
      "outputs": [],
      "stateMutability": "nonpayable",
      "type": "function"
    },
    {
      "inputs": [
        {
          "internalType": "bytes4",
          "name": "interfaceId",
          "type": "bytes4"
        }
      ],
      "name": "supportsInterface",
      "outputs": [
        {
          "internalType": "bool",
          "name": "",
          "type": "bool"
        }
      ],
      "stateMutability": "view",
      "type": "function"
    },
    {
      "inputs": [],
      "name": "symbol",
      "outputs": [
        {
          "internalType": "string",
          "name": "",
          "type": "string"
        }
      ],
      "stateMutability": "view",
      "type": "function"
    },
    {
      "inputs": [
        {
          "internalType": "uint256",
          "name": "tokenId",
          "type": "uint256"
        }
      ],
      "name": "tokenURI",
      "outputs": [
        {
          "internalType": "string",
          "name": "",
          "type": "string"
        }
      ],
      "stateMutability": "view",
      "type": "function"
    },
    {
      "inputs": [
        {
          "internalType": "address",
          "name": "from",
          "type": "address"
        },
        {
          "internalType": "address",
          "name": "to",
          "type": "address"
        },
        {
          "internalType": "uint256",
          "name": "tokenId",
          "type": "uint256"
        }
      ],
      "name": "transferFrom",
      "outputs": [],
      "stateMutability": "nonpayable",
      "type": "function"
    },
    {
      "inputs": [
        {
          "internalType": "address",
          "name": "newOwner",
          "type": "address"
        }
      ],
      "name": "transferOwnership",
      "outputs": [],
      "stateMutability": "nonpayable",
      "type": "function"
    }
  ],
  "bytecode": "0x60806040526000600960006101000a81548173ffffffffffffffffffffffffffffffffffffffff021916908373ffffffffffffffffffffffffffffffffffffffff1602179055503480156200005357600080fd5b5060405162003a2538038062003a25833981810160405281019062000079919062000b50565b80600001518160200151816000908162000094919062000dec565b508060019081620000a6919062000dec565b505050620000c9620000bd6200020b60201b60201c565b6200021360201b60201c565b600073ffffffffffffffffffffffffffffffffffffffff16816060015173ffffffffffffffffffffffffffffffffffffffff16036200013f576040517f08c379a0000000000000000000000000000000000000000000000000000000008152600401620001369062000f34565b60405180910390fd5b8060600151600960006101000a81548173ffffffffffffffffffffffffffffffffffffffff021916908373ffffffffffffffffffffffffffffffffffffffff16021790555060006200019d6008620002d960201b62000baa1760201c565b9050620001b5826060015182620002e760201b60201c565b620001ec818360400151604051602001620001d1919062000f7b565b6040516020818303038152906040526200030d60201b60201c565b6200020360086200038760201b62000bb81760201c565b50506200139a565b600033905090565b6000600760009054906101000a900473ffffffffffffffffffffffffffffffffffffffff16905081600760006101000a81548173ffffffffffffffffffffffffffffffffffffffff021916908373ffffffffffffffffffffffffffffffffffffffff1602179055508173ffffffffffffffffffffffffffffffffffffffff168173ffffffffffffffffffffffffffffffffffffffff167f8be0079c531659141344cd1fd0a4f28419497f9722a3daafe3b4186f6b6457e060405160405180910390a35050565b600081600001549050919050565b620003098282604051806020016040528060008152506200039d60201b60201c565b5050565b6200031e826200040b60201b60201c565b62000360576040517f08c379a000000000000000000000000000000000000000000000000000000000815260040162000357906200100e565b60405180910390fd5b8060066000848152602001908152602001600020908162000382919062000dec565b505050565b6001816000016000828254019250508190555050565b620003af83836200047760201b60201c565b620003c460008484846200067060201b60201c565b62000406576040517f08c379a0000000000000000000000000000000000000000000000000000000008152600401620003fd90620010a6565b60405180910390fd5b505050565b60008073ffffffffffffffffffffffffffffffffffffffff166002600084815260200190815260200160002060009054906101000a900473ffffffffffffffffffffffffffffffffffffffff1673ffffffffffffffffffffffffffffffffffffffff1614159050919050565b600073ffffffffffffffffffffffffffffffffffffffff168273ffffffffffffffffffffffffffffffffffffffff1603620004e9576040517f08c379a0000000000000000000000000000000000000000000000000000000008152600401620004e09062001118565b60405180910390fd5b620004fa816200040b60201b60201c565b156200053d576040517f08c379a000000000000000000000000000000000000000000000000000000000815260040162000534906200118a565b60405180910390fd5b62000551600083836200081960201b60201c565b6001600360008473ffffffffffffffffffffffffffffffffffffffff1673ffffffffffffffffffffffffffffffffffffffff1681526020019081526020016000206000828254620005a39190620011db565b92505081905550816002600083815260200190815260200160002060006101000a81548173ffffffffffffffffffffffffffffffffffffffff021916908373ffffffffffffffffffffffffffffffffffffffff160217905550808273ffffffffffffffffffffffffffffffffffffffff16600073ffffffffffffffffffffffffffffffffffffffff167fddf252ad1be2c89b69c2b068fc378daa952ba7f163c4a11628f55a4df523b3ef60405160405180910390a46200066c600083836200081e60201b60201c565b5050565b60006200069e8473ffffffffffffffffffffffffffffffffffffffff166200082360201b62000bce1760201c565b156200080c578373ffffffffffffffffffffffffffffffffffffffff1663150b7a02620006d06200020b60201b60201c565b8786866040518563ffffffff1660e01b8152600401620006f49493929190620012b7565b6020604051808303816000875af19250505080156200073357506040513d601f19601f8201168201806040525081019062000730919062001368565b60015b620007bb573d806000811462000766576040519150601f19603f3d011682016040523d82523d6000602084013e6200076b565b606091505b506000815103620007b3576040517f08c379a0000000000000000000000000000000000000000000000000000000008152600401620007aa90620010a6565b60405180910390fd5b805181602001fd5b63150b7a0260e01b7bffffffffffffffffffffffffffffffffffffffffffffffffffffffff1916817bffffffffffffffffffffffffffffffffffffffffffffffffffffffff19161491505062000811565b600190505b949350505050565b505050565b505050565b6000808273ffffffffffffffffffffffffffffffffffffffff163b119050919050565b6000604051905090565b600080fd5b600080fd5b600080fd5b6000601f19601f8301169050919050565b7f4e487b7100000000000000000000000000000000000000000000000000000000600052604160045260246000fd5b620008aa826200085f565b810181811067ffffffffffffffff82111715620008cc57620008cb62000870565b5b80604052505050565b6000620008e162000846565b9050620008ef82826200089f565b919050565b600080fd5b600080fd5b600080fd5b600067ffffffffffffffff82111562000921576200092062000870565b5b6200092c826200085f565b9050602081019050919050565b60005b83811015620009595780820151818401526020810190506200093c565b8381111562000969576000848401525b50505050565b600062000986620009808462000903565b620008d5565b905082815260208101848484011115620009a557620009a4620008fe565b5b620009b284828562000939565b509392505050565b600082601f830112620009d257620009d1620008f9565b5b8151620009e48482602086016200096f565b91505092915050565b6000819050919050565b62000a0281620009ed565b811462000a0e57600080fd5b50565b60008151905062000a2281620009f7565b92915050565b600073ffffffffffffffffffffffffffffffffffffffff82169050919050565b600062000a558262000a28565b9050919050565b62000a678162000a48565b811462000a7357600080fd5b50565b60008151905062000a878162000a5c565b92915050565b60006080828403121562000aa65762000aa56200085a565b5b62000ab26080620008d5565b9050600082015167ffffffffffffffff81111562000ad55762000ad4620008f4565b5b62000ae384828501620009ba565b600083015250602082015167ffffffffffffffff81111562000b0a5762000b09620008f4565b5b62000b1884828501620009ba565b602083015250604062000b2e8482850162000a11565b604083015250606062000b448482850162000a76565b60608301525092915050565b60006020828403121562000b695762000b6862000850565b5b600082015167ffffffffffffffff81111562000b8a5762000b8962000855565b5b62000b988482850162000a8d565b91505092915050565b600081519050919050565b7f4e487b7100000000000000000000000000000000000000000000000000000000600052602260045260246000fd5b6000600282049050600182168062000bf457607f821691505b60208210810362000c0a5762000c0962000bac565b5b50919050565b60008190508160005260206000209050919050565b60006020601f8301049050919050565b600082821b905092915050565b60006008830262000c747fffffffffffffffffffffffffffffffffffffffffffffffffffffffffffffffff8262000c35565b62000c80868362000c35565b95508019841693508086168417925050509392505050565b6000819050919050565b6000819050919050565b600062000ccd62000cc762000cc18462000c98565b62000ca2565b62000c98565b9050919050565b6000819050919050565b62000ce98362000cac565b62000d0162000cf88262000cd4565b84845462000c42565b825550505050565b600090565b62000d1862000d09565b62000d2581848462000cde565b505050565b5b8181101562000d4d5762000d4160008262000d0e565b60018101905062000d2b565b5050565b601f82111562000d9c5762000d668162000c10565b62000d718462000c25565b8101602085101562000d81578190505b62000d9962000d908562000c25565b83018262000d2a565b50505b505050565b600082821c905092915050565b600062000dc16000198460080262000da1565b1980831691505092915050565b600062000ddc838362000dae565b9150826002028217905092915050565b62000df78262000ba1565b67ffffffffffffffff81111562000e135762000e1262000870565b5b62000e1f825462000bdb565b62000e2c82828562000d51565b600060209050601f83116001811462000e64576000841562000e4f578287015190505b62000e5b858262000dce565b86555062000ecb565b601f19841662000e748662000c10565b60005b8281101562000e9e5784890151825560018201915060208501945060208101905062000e77565b8683101562000ebe578489015162000eba601f89168262000dae565b8355505b6001600288020188555050505b505050505050565b600082825260208201905092915050565b7f5075626c69736865722061646472657373206973206e6f742073657400000000600082015250565b600062000f1c601c8362000ed3565b915062000f298262000ee4565b602082019050919050565b6000602082019050818103600083015262000f4f8162000f0d565b9050919050565b6000819050919050565b62000f7562000f6f82620009ed565b62000f56565b82525050565b600062000f89828462000f60565b60208201915081905092915050565b7f45524337323155524953746f726167653a2055524920736574206f66206e6f6e60008201527f6578697374656e7420746f6b656e000000000000000000000000000000000000602082015250565b600062000ff6602e8362000ed3565b9150620010038262000f98565b604082019050919050565b60006020820190508181036000830152620010298162000fe7565b9050919050565b7f4552433732313a207472616e7366657220746f206e6f6e20455243373231526560008201527f63656976657220696d706c656d656e7465720000000000000000000000000000602082015250565b60006200108e60328362000ed3565b91506200109b8262001030565b604082019050919050565b60006020820190508181036000830152620010c1816200107f565b9050919050565b7f4552433732313a206d696e7420746f20746865207a65726f2061646472657373600082015250565b60006200110060208362000ed3565b91506200110d82620010c8565b602082019050919050565b600060208201905081810360008301526200113381620010f1565b9050919050565b7f4552433732313a20746f6b656e20616c7265616479206d696e74656400000000600082015250565b600062001172601c8362000ed3565b91506200117f826200113a565b602082019050919050565b60006020820190508181036000830152620011a58162001163565b9050919050565b7f4e487b7100000000000000000000000000000000000000000000000000000000600052601160045260246000fd5b6000620011e88262000c98565b9150620011f58362000c98565b9250827fffffffffffffffffffffffffffffffffffffffffffffffffffffffffffffffff038211156200122d576200122c620011ac565b5b828201905092915050565b620012438162000a48565b82525050565b620012548162000c98565b82525050565b600081519050919050565b600082825260208201905092915050565b600062001283826200125a565b6200128f818562001265565b9350620012a181856020860162000939565b620012ac816200085f565b840191505092915050565b6000608082019050620012ce600083018762001238565b620012dd602083018662001238565b620012ec604083018562001249565b818103606083015262001300818462001276565b905095945050505050565b60007fffffffff0000000000000000000000000000000000000000000000000000000082169050919050565b62001342816200130b565b81146200134e57600080fd5b50565b600081519050620013628162001337565b92915050565b60006020828403121562001381576200138062000850565b5b6000620013918482850162001351565b91505092915050565b61267b80620013aa6000396000f3fe608060405234801561001057600080fd5b506004361061010b5760003560e01c8063715018a6116100a2578063a22cb46511610071578063a22cb465146102a6578063b88d4fde146102c2578063c87b56dd146102de578063e985e9c51461030e578063f2fde38b1461033e5761010b565b8063715018a6146102425780638c72c54e1461024c5780638da5cb5b1461026a57806395d89b41146102885761010b565b806323b872dd116100de57806323b872dd146101aa57806342842e0e146101c65780636352211e146101e257806370a08231146102125761010b565b806301ffc9a71461011057806306fdde0314610140578063081812fc1461015e578063095ea7b31461018e575b600080fd5b61012a600480360381019061012591906117b6565b61035a565b60405161013791906117fe565b60405180910390f35b61014861043c565b60405161015591906118b2565b60405180910390f35b6101786004803603810190610173919061190a565b6104ce565b6040516101859190611978565b60405180910390f35b6101a860048036038101906101a391906119bf565b610514565b005b6101c460048036038101906101bf91906119ff565b61062b565b005b6101e060048036038101906101db91906119ff565b61068b565b005b6101fc60048036038101906101f7919061190a565b6106ab565b6040516102099190611978565b60405180910390f35b61022c60048036038101906102279190611a52565b61075c565b6040516102399190611a8e565b60405180910390f35b61024a610813565b005b610254610827565b6040516102619190611978565b60405180910390f35b61027261084d565b60405161027f9190611978565b60405180910390f35b610290610877565b60405161029d91906118b2565b60405180910390f35b6102c060048036038101906102bb9190611ad5565b610909565b005b6102dc60048036038101906102d79190611c4a565b61091f565b005b6102f860048036038101906102f3919061190a565b610981565b60405161030591906118b2565b60405180910390f35b61032860048036038101906103239190611ccd565b610a93565b60405161033591906117fe565b60405180910390f35b61035860048036038101906103539190611a52565b610b27565b005b60007f80ac58cd000000000000000000000000000000000000000000000000000000007bffffffffffffffffffffffffffffffffffffffffffffffffffffffff1916827bffffffffffffffffffffffffffffffffffffffffffffffffffffffff1916148061042557507f5b5e139f000000000000000000000000000000000000000000000000000000007bffffffffffffffffffffffffffffffffffffffffffffffffffffffff1916827bffffffffffffffffffffffffffffffffffffffffffffffffffffffff1916145b80610435575061043482610bf1565b5b9050919050565b60606000805461044b90611d3c565b80601f016020809104026020016040519081016040528092919081815260200182805461047790611d3c565b80156104c45780601f10610499576101008083540402835291602001916104c4565b820191906000526020600020905b8154815290600101906020018083116104a757829003601f168201915b5050505050905090565b60006104d982610c5b565b6004600083815260200190815260200160002060009054906101000a900473ffffffffffffffffffffffffffffffffffffffff169050919050565b600061051f826106ab565b90508073ffffffffffffffffffffffffffffffffffffffff168373ffffffffffffffffffffffffffffffffffffffff160361058f576040517f08c379a000000000000000000000000000000000000000000000000000000000815260040161058690611ddf565b60405180910390fd5b8073ffffffffffffffffffffffffffffffffffffffff166105ae610ca6565b73ffffffffffffffffffffffffffffffffffffffff1614806105dd57506105dc816105d7610ca6565b610a93565b5b61061c576040517f08c379a000000000000000000000000000000000000000000000000000000000815260040161061390611e71565b60405180910390fd5b6106268383610cae565b505050565b61063c610636610ca6565b82610d67565b61067b576040517f08c379a000000000000000000000000000000000000000000000000000000000815260040161067290611f03565b60405180910390fd5b610686838383610dfc565b505050565b6106a68383836040518060200160405280600081525061091f565b505050565b6000806002600084815260200190815260200160002060009054906101000a900473ffffffffffffffffffffffffffffffffffffffff169050600073ffffffffffffffffffffffffffffffffffffffff168173ffffffffffffffffffffffffffffffffffffffff1603610753576040517f08c379a000000000000000000000000000000000000000000000000000000000815260040161074a90611f6f565b60405180910390fd5b80915050919050565b60008073ffffffffffffffffffffffffffffffffffffffff168273ffffffffffffffffffffffffffffffffffffffff16036107cc576040517f08c379a00000000000000000000000000000000000000000000000000000000081526004016107c390612001565b60405180910390fd5b600360008373ffffffffffffffffffffffffffffffffffffffff1673ffffffffffffffffffffffffffffffffffffffff168152602001908152602001600020549050919050565b61081b611062565b61082560006110e0565b565b600960009054906101000a900473ffffffffffffffffffffffffffffffffffffffff1681565b6000600760009054906101000a900473ffffffffffffffffffffffffffffffffffffffff16905090565b60606001805461088690611d3c565b80601f01602080910402602001604051908101604052809291908181526020018280546108b290611d3c565b80156108ff5780601f106108d4576101008083540402835291602001916108ff565b820191906000526020600020905b8154815290600101906020018083116108e257829003601f168201915b5050505050905090565b61091b610914610ca6565b83836111a6565b5050565b61093061092a610ca6565b83610d67565b61096f576040517f08c379a000000000000000000000000000000000000000000000000000000000815260040161096690611f03565b60405180910390fd5b61097b84848484611312565b50505050565b606061098c82610c5b565b60006006600084815260200190815260200160002080546109ac90611d3c565b80601f01602080910402602001604051908101604052809291908181526020018280546109d890611d3c565b8015610a255780601f106109fa57610100808354040283529160200191610a25565b820191906000526020600020905b815481529060010190602001808311610a0857829003601f168201915b505050505090506000610a3661136e565b90506000815103610a4b578192505050610a8e565b600082511115610a80578082604051602001610a6892919061205d565b60405160208183030381529060405292505050610a8e565b610a8984611385565b925050505b919050565b6000600560008473ffffffffffffffffffffffffffffffffffffffff1673ffffffffffffffffffffffffffffffffffffffff16815260200190815260200160002060008373ffffffffffffffffffffffffffffffffffffffff1673ffffffffffffffffffffffffffffffffffffffff16815260200190815260200160002060009054906101000a900460ff16905092915050565b610b2f611062565b600073ffffffffffffffffffffffffffffffffffffffff168173ffffffffffffffffffffffffffffffffffffffff1603610b9e576040517f08c379a0000000000000000000000000000000000000000000000000000000008152600401610b95906120f3565b60405180910390fd5b610ba7816110e0565b50565b600081600001549050919050565b6001816000016000828254019250508190555050565b6000808273ffffffffffffffffffffffffffffffffffffffff163b119050919050565b60007f01ffc9a7000000000000000000000000000000000000000000000000000000007bffffffffffffffffffffffffffffffffffffffffffffffffffffffff1916827bffffffffffffffffffffffffffffffffffffffffffffffffffffffff1916149050919050565b610c64816113ed565b610ca3576040517f08c379a0000000000000000000000000000000000000000000000000000000008152600401610c9a90611f6f565b60405180910390fd5b50565b600033905090565b816004600083815260200190815260200160002060006101000a81548173ffffffffffffffffffffffffffffffffffffffff021916908373ffffffffffffffffffffffffffffffffffffffff160217905550808273ffffffffffffffffffffffffffffffffffffffff16610d21836106ab565b73ffffffffffffffffffffffffffffffffffffffff167f8c5be1e5ebec7d5bd14f71427d1e84f3dd0314c0f7b2291e5b200ac8c7c3b92560405160405180910390a45050565b600080610d73836106ab565b90508073ffffffffffffffffffffffffffffffffffffffff168473ffffffffffffffffffffffffffffffffffffffff161480610db55750610db48185610a93565b5b80610df357508373ffffffffffffffffffffffffffffffffffffffff16610ddb846104ce565b73ffffffffffffffffffffffffffffffffffffffff16145b91505092915050565b8273ffffffffffffffffffffffffffffffffffffffff16610e1c826106ab565b73ffffffffffffffffffffffffffffffffffffffff1614610e72576040517f08c379a0000000000000000000000000000000000000000000000000000000008152600401610e6990612185565b60405180910390fd5b600073ffffffffffffffffffffffffffffffffffffffff168273ffffffffffffffffffffffffffffffffffffffff1603610ee1576040517f08c379a0000000000000000000000000000000000000000000000000000000008152600401610ed890612217565b60405180910390fd5b610eec838383611459565b610ef7600082610cae565b6001600360008573ffffffffffffffffffffffffffffffffffffffff1673ffffffffffffffffffffffffffffffffffffffff1681526020019081526020016000206000828254610f479190612266565b925050819055506001600360008473ffffffffffffffffffffffffffffffffffffffff1673ffffffffffffffffffffffffffffffffffffffff1681526020019081526020016000206000828254610f9e919061229a565b92505081905550816002600083815260200190815260200160002060006101000a81548173ffffffffffffffffffffffffffffffffffffffff021916908373ffffffffffffffffffffffffffffffffffffffff160217905550808273ffffffffffffffffffffffffffffffffffffffff168473ffffffffffffffffffffffffffffffffffffffff167fddf252ad1be2c89b69c2b068fc378daa952ba7f163c4a11628f55a4df523b3ef60405160405180910390a461105d83838361145e565b505050565b61106a610ca6565b73ffffffffffffffffffffffffffffffffffffffff1661108861084d565b73ffffffffffffffffffffffffffffffffffffffff16146110de576040517f08c379a00000000000000000000000000000000000000000000000000000000081526004016110d59061233c565b60405180910390fd5b565b6000600760009054906101000a900473ffffffffffffffffffffffffffffffffffffffff16905081600760006101000a81548173ffffffffffffffffffffffffffffffffffffffff021916908373ffffffffffffffffffffffffffffffffffffffff1602179055508173ffffffffffffffffffffffffffffffffffffffff168173ffffffffffffffffffffffffffffffffffffffff167f8be0079c531659141344cd1fd0a4f28419497f9722a3daafe3b4186f6b6457e060405160405180910390a35050565b8173ffffffffffffffffffffffffffffffffffffffff168373ffffffffffffffffffffffffffffffffffffffff1603611214576040517f08c379a000000000000000000000000000000000000000000000000000000000815260040161120b906123a8565b60405180910390fd5b80600560008573ffffffffffffffffffffffffffffffffffffffff1673ffffffffffffffffffffffffffffffffffffffff16815260200190815260200160002060008473ffffffffffffffffffffffffffffffffffffffff1673ffffffffffffffffffffffffffffffffffffffff16815260200190815260200160002060006101000a81548160ff0219169083151502179055508173ffffffffffffffffffffffffffffffffffffffff168373ffffffffffffffffffffffffffffffffffffffff167f17307eab39ab6107e8899845ad3d59bd9653f200f220920489ca2b5937696c318360405161130591906117fe565b60405180910390a3505050565b61131d848484610dfc565b61132984848484611463565b611368576040517f08c379a000000000000000000000000000000000000000000000000000000000815260040161135f9061243a565b60405180910390fd5b50505050565b606060405180602001604052806000815250905090565b606061139082610c5b565b600061139a61136e565b905060008151116113ba57604051806020016040528060008152506113e5565b806113c4846115ea565b6040516020016113d592919061205d565b6040516020818303038152906040525b915050919050565b60008073ffffffffffffffffffffffffffffffffffffffff166002600084815260200190815260200160002060009054906101000a900473ffffffffffffffffffffffffffffffffffffffff1673ffffffffffffffffffffffffffffffffffffffff1614159050919050565b505050565b505050565b60006114848473ffffffffffffffffffffffffffffffffffffffff16610bce565b156115dd578373ffffffffffffffffffffffffffffffffffffffff1663150b7a026114ad610ca6565b8786866040518563ffffffff1660e01b81526004016114cf94939291906124af565b6020604051808303816000875af192505050801561150b57506040513d601f19601f820116820180604052508101906115089190612510565b60015b61158d573d806000811461153b576040519150601f19603f3d011682016040523d82523d6000602084013e611540565b606091505b506000815103611585576040517f08c379a000000000000000000000000000000000000000000000000000000000815260040161157c9061243a565b60405180910390fd5b805181602001fd5b63150b7a0260e01b7bffffffffffffffffffffffffffffffffffffffffffffffffffffffff1916817bffffffffffffffffffffffffffffffffffffffffffffffffffffffff1916149150506115e2565b600190505b949350505050565b606060008203611631576040518060400160405280600181526020017f30000000000000000000000000000000000000000000000000000000000000008152509050611745565b600082905060005b6000821461166357808061164c9061253d565b915050600a8261165c91906125b4565b9150611639565b60008167ffffffffffffffff81111561167f5761167e611b1f565b5b6040519080825280601f01601f1916602001820160405280156116b15781602001600182028036833780820191505090505b5090505b6000851461173e576001826116ca9190612266565b9150600a856116d991906125e5565b60306116e5919061229a565b60f81b8183815181106116fb576116fa612616565b5b60200101907effffffffffffffffffffffffffffffffffffffffffffffffffffffffffffff1916908160001a905350600a8561173791906125b4565b94506116b5565b8093505050505b919050565b6000604051905090565b600080fd5b600080fd5b60007fffffffff0000000000000000000000000000000000000000000000000000000082169050919050565b6117938161175e565b811461179e57600080fd5b50565b6000813590506117b08161178a565b92915050565b6000602082840312156117cc576117cb611754565b5b60006117da848285016117a1565b91505092915050565b60008115159050919050565b6117f8816117e3565b82525050565b600060208201905061181360008301846117ef565b92915050565b600081519050919050565b600082825260208201905092915050565b60005b83811015611853578082015181840152602081019050611838565b83811115611862576000848401525b50505050565b6000601f19601f8301169050919050565b600061188482611819565b61188e8185611824565b935061189e818560208601611835565b6118a781611868565b840191505092915050565b600060208201905081810360008301526118cc8184611879565b905092915050565b6000819050919050565b6118e7816118d4565b81146118f257600080fd5b50565b600081359050611904816118de565b92915050565b6000602082840312156119205761191f611754565b5b600061192e848285016118f5565b91505092915050565b600073ffffffffffffffffffffffffffffffffffffffff82169050919050565b600061196282611937565b9050919050565b61197281611957565b82525050565b600060208201905061198d6000830184611969565b92915050565b61199c81611957565b81146119a757600080fd5b50565b6000813590506119b981611993565b92915050565b600080604083850312156119d6576119d5611754565b5b60006119e4858286016119aa565b92505060206119f5858286016118f5565b9150509250929050565b600080600060608486031215611a1857611a17611754565b5b6000611a26868287016119aa565b9350506020611a37868287016119aa565b9250506040611a48868287016118f5565b9150509250925092565b600060208284031215611a6857611a67611754565b5b6000611a76848285016119aa565b91505092915050565b611a88816118d4565b82525050565b6000602082019050611aa36000830184611a7f565b92915050565b611ab2816117e3565b8114611abd57600080fd5b50565b600081359050611acf81611aa9565b92915050565b60008060408385031215611aec57611aeb611754565b5b6000611afa858286016119aa565b9250506020611b0b85828601611ac0565b9150509250929050565b600080fd5b600080fd5b7f4e487b7100000000000000000000000000000000000000000000000000000000600052604160045260246000fd5b611b5782611868565b810181811067ffffffffffffffff82111715611b7657611b75611b1f565b5b80604052505050565b6000611b8961174a565b9050611b958282611b4e565b919050565b600067ffffffffffffffff821115611bb557611bb4611b1f565b5b611bbe82611868565b9050602081019050919050565b82818337600083830152505050565b6000611bed611be884611b9a565b611b7f565b905082815260208101848484011115611c0957611c08611b1a565b5b611c14848285611bcb565b509392505050565b600082601f830112611c3157611c30611b15565b5b8135611c41848260208601611bda565b91505092915050565b60008060008060808587031215611c6457611c63611754565b5b6000611c72878288016119aa565b9450506020611c83878288016119aa565b9350506040611c94878288016118f5565b925050606085013567ffffffffffffffff811115611cb557611cb4611759565b5b611cc187828801611c1c565b91505092959194509250565b60008060408385031215611ce457611ce3611754565b5b6000611cf2858286016119aa565b9250506020611d03858286016119aa565b9150509250929050565b7f4e487b7100000000000000000000000000000000000000000000000000000000600052602260045260246000fd5b60006002820490506001821680611d5457607f821691505b602082108103611d6757611d66611d0d565b5b50919050565b7f4552433732313a20617070726f76616c20746f2063757272656e74206f776e6560008201527f7200000000000000000000000000000000000000000000000000000000000000602082015250565b6000611dc9602183611824565b9150611dd482611d6d565b604082019050919050565b60006020820190508181036000830152611df881611dbc565b9050919050565b7f4552433732313a20617070726f76652063616c6c6572206973206e6f7420746f60008201527f6b656e206f776e6572206e6f7220617070726f76656420666f7220616c6c0000602082015250565b6000611e5b603e83611824565b9150611e6682611dff565b604082019050919050565b60006020820190508181036000830152611e8a81611e4e565b9050919050565b7f4552433732313a2063616c6c6572206973206e6f7420746f6b656e206f776e6560008201527f72206e6f7220617070726f766564000000000000000000000000000000000000602082015250565b6000611eed602e83611824565b9150611ef882611e91565b604082019050919050565b60006020820190508181036000830152611f1c81611ee0565b9050919050565b7f4552433732313a20696e76616c696420746f6b656e2049440000000000000000600082015250565b6000611f59601883611824565b9150611f6482611f23565b602082019050919050565b60006020820190508181036000830152611f8881611f4c565b9050919050565b7f4552433732313a2061646472657373207a65726f206973206e6f74206120766160008201527f6c6964206f776e65720000000000000000000000000000000000000000000000602082015250565b6000611feb602983611824565b9150611ff682611f8f565b604082019050919050565b6000602082019050818103600083015261201a81611fde565b9050919050565b600081905092915050565b600061203782611819565b6120418185612021565b9350612051818560208601611835565b80840191505092915050565b6000612069828561202c565b9150612075828461202c565b91508190509392505050565b7f4f776e61626c653a206e6577206f776e657220697320746865207a65726f206160008201527f6464726573730000000000000000000000000000000000000000000000000000602082015250565b60006120dd602683611824565b91506120e882612081565b604082019050919050565b6000602082019050818103600083015261210c816120d0565b9050919050565b7f4552433732313a207472616e736665722066726f6d20696e636f72726563742060008201527f6f776e6572000000000000000000000000000000000000000000000000000000602082015250565b600061216f602583611824565b915061217a82612113565b604082019050919050565b6000602082019050818103600083015261219e81612162565b9050919050565b7f4552433732313a207472616e7366657220746f20746865207a65726f2061646460008201527f7265737300000000000000000000000000000000000000000000000000000000602082015250565b6000612201602483611824565b915061220c826121a5565b604082019050919050565b60006020820190508181036000830152612230816121f4565b9050919050565b7f4e487b7100000000000000000000000000000000000000000000000000000000600052601160045260246000fd5b6000612271826118d4565b915061227c836118d4565b92508282101561228f5761228e612237565b5b828203905092915050565b60006122a5826118d4565b91506122b0836118d4565b9250827fffffffffffffffffffffffffffffffffffffffffffffffffffffffffffffffff038211156122e5576122e4612237565b5b828201905092915050565b7f4f776e61626c653a2063616c6c6572206973206e6f7420746865206f776e6572600082015250565b6000612326602083611824565b9150612331826122f0565b602082019050919050565b6000602082019050818103600083015261235581612319565b9050919050565b7f4552433732313a20617070726f766520746f2063616c6c657200000000000000600082015250565b6000612392601983611824565b915061239d8261235c565b602082019050919050565b600060208201905081810360008301526123c181612385565b9050919050565b7f4552433732313a207472616e7366657220746f206e6f6e20455243373231526560008201527f63656976657220696d706c656d656e7465720000000000000000000000000000602082015250565b6000612424603283611824565b915061242f826123c8565b604082019050919050565b6000602082019050818103600083015261245381612417565b9050919050565b600081519050919050565b600082825260208201905092915050565b60006124818261245a565b61248b8185612465565b935061249b818560208601611835565b6124a481611868565b840191505092915050565b60006080820190506124c46000830187611969565b6124d16020830186611969565b6124de6040830185611a7f565b81810360608301526124f08184612476565b905095945050505050565b60008151905061250a8161178a565b92915050565b60006020828403121561252657612525611754565b5b6000612534848285016124fb565b91505092915050565b6000612548826118d4565b91507fffffffffffffffffffffffffffffffffffffffffffffffffffffffffffffffff820361257a57612579612237565b5b600182019050919050565b7f4e487b7100000000000000000000000000000000000000000000000000000000600052601260045260246000fd5b60006125bf826118d4565b91506125ca836118d4565b9250826125da576125d9612585565b5b828204905092915050565b60006125f0826118d4565b91506125fb836118d4565b92508261260b5761260a612585565b5b828206905092915050565b7f4e487b7100000000000000000000000000000000000000000000000000000000600052603260045260246000fdfea264697066735822122047a89ea9d407ee5890f7403c1b54aa4279ffa7791b76cf7afb12fdd69ba4de4a64736f6c634300080f0033",
  "immutableReferences": {},
  "source": "// SPDX-License-Identifier: MIT\r\npragma solidity ^0.8.4;\r\n\r\nimport \"@openzeppelin/contracts/token/ERC721/extensions/ERC721URIStorage.sol\";\r\nimport \"@openzeppelin/contracts/access/Ownable.sol\";\r\nimport \"@openzeppelin/contracts/utils/Counters.sol\";\r\nimport \"../dtos/AppInitRequest.sol\";\r\n\r\ncontract ERC721App is ERC721URIStorage, Ownable {\r\n    using Counters for Counters.Counter;\r\n\r\n    Counters.Counter private _tokenIdCounter;\r\n\r\n    address public publisher = address(0x0);\r\n\r\n    constructor(AppInitRequest memory request)\r\n        ERC721(request.name, request.symbol)\r\n    {\r\n        require(\r\n            request.publisher != address(0x0),\r\n            \"Publisher address is not set\"\r\n        );\r\n\r\n        publisher = request.publisher;\r\n\r\n        uint256 newItemId = _tokenIdCounter.current();\r\n\r\n        _safeMint(request.publisher, newItemId);\r\n        _setTokenURI(newItemId, string(abi.encodePacked(request.cid)));\r\n\r\n        _tokenIdCounter.increment();\r\n    }\r\n}\r\n",
  "sourcePath": "D:\\Projects\\SE New Tech\\LicensePlace\\app\\smart-contract\\contracts\\ERC721App.sol",
  "compiler": {
    "name": "solc",
    "version": "0.8.15+commit.e14f2714.Emscripten.clang"
  },
  "schemaVersion": "3.4.8",
  "updatedAt": "2022-08-04T16:35:32.216Z",
  "devdoc": {
    "kind": "dev",
    "methods": {
      "approve(address,uint256)": {
        "details": "See {IERC721-approve}."
      },
      "balanceOf(address)": {
        "details": "See {IERC721-balanceOf}."
      },
      "getApproved(uint256)": {
        "details": "See {IERC721-getApproved}."
      },
      "isApprovedForAll(address,address)": {
        "details": "See {IERC721-isApprovedForAll}."
      },
      "name()": {
        "details": "See {IERC721Metadata-name}."
      },
      "owner()": {
        "details": "Returns the address of the current owner."
      },
      "ownerOf(uint256)": {
        "details": "See {IERC721-ownerOf}."
      },
      "renounceOwnership()": {
        "details": "Leaves the contract without owner. It will not be possible to call `onlyOwner` functions anymore. Can only be called by the current owner. NOTE: Renouncing ownership will leave the contract without an owner, thereby removing any functionality that is only available to the owner."
      },
      "safeTransferFrom(address,address,uint256)": {
        "details": "See {IERC721-safeTransferFrom}."
      },
      "safeTransferFrom(address,address,uint256,bytes)": {
        "details": "See {IERC721-safeTransferFrom}."
      },
      "setApprovalForAll(address,bool)": {
        "details": "See {IERC721-setApprovalForAll}."
      },
      "supportsInterface(bytes4)": {
        "details": "See {IERC165-supportsInterface}."
      },
      "symbol()": {
        "details": "See {IERC721Metadata-symbol}."
      },
      "tokenURI(uint256)": {
        "details": "See {IERC721Metadata-tokenURI}."
      },
      "transferFrom(address,address,uint256)": {
        "details": "See {IERC721-transferFrom}."
      },
      "transferOwnership(address)": {
        "details": "Transfers ownership of the contract to a new account (`newOwner`). Can only be called by the current owner."
      }
    },
    "version": 1
  },
  "userdoc": {
    "kind": "user",
    "methods": {},
    "version": 1
  }
}