{
  "_format": "hh-sol-artifact-1",
  "contractName": "Application",
  "sourceName": "contracts/Application.sol",
  "abi": [
    {
      "inputs": [
        {
          "components": [
            {
              "internalType": "string",
              "name": "name",
              "type": "string"
            },
            {
              "internalType": "string",
              "name": "symbol",
              "type": "string"
            },
            {
              "internalType": "bytes32",
              "name": "cid",
              "type": "bytes32"
            },
            {
              "internalType": "address",
              "name": "publisher",
              "type": "address"
            }
          ],
          "internalType": "struct AppInitRequest",
          "name": "request",
          "type": "tuple"
        }
      ],
      "stateMutability": "nonpayable",
      "type": "constructor"
    },
    {
      "inputs": [
        {
          "internalType": "string",
          "name": "fieldName",
          "type": "string"
        }
      ],
      "name": "EmptyField",
      "type": "error"
    },
    {
      "inputs": [],
      "name": "UnauthorizedError",
      "type": "error"
    },
    {
      "anonymous": false,
      "inputs": [
        {
          "indexed": true,
          "internalType": "address",
          "name": "previousOwner",
          "type": "address"
        },
        {
          "indexed": true,
          "internalType": "address",
          "name": "newOwner",
          "type": "address"
        }
      ],
      "name": "OwnershipTransferred",
      "type": "event"
    },
    {
      "anonymous": false,
      "inputs": [
        {
          "indexed": false,
          "internalType": "address",
          "name": "account",
          "type": "address"
        }
      ],
      "name": "Paused",
      "type": "event"
    },
    {
      "anonymous": false,
      "inputs": [
        {
          "indexed": true,
          "internalType": "bytes32",
          "name": "role",
          "type": "bytes32"
        },
        {
          "indexed": true,
          "internalType": "bytes32",
          "name": "previousAdminRole",
          "type": "bytes32"
        },
        {
          "indexed": true,
          "internalType": "bytes32",
          "name": "newAdminRole",
          "type": "bytes32"
        }
      ],
      "name": "RoleAdminChanged",
      "type": "event"
    },
    {
      "anonymous": false,
      "inputs": [
        {
          "indexed": true,
          "internalType": "bytes32",
          "name": "role",
          "type": "bytes32"
        },
        {
          "indexed": true,
          "internalType": "address",
          "name": "account",
          "type": "address"
        },
        {
          "indexed": true,
          "internalType": "address",
          "name": "sender",
          "type": "address"
        }
      ],
      "name": "RoleGranted",
      "type": "event"
    },
    {
      "anonymous": false,
      "inputs": [
        {
          "indexed": true,
          "internalType": "bytes32",
          "name": "role",
          "type": "bytes32"
        },
        {
          "indexed": true,
          "internalType": "address",
          "name": "account",
          "type": "address"
        },
        {
          "indexed": true,
          "internalType": "address",
          "name": "sender",
          "type": "address"
        }
      ],
      "name": "RoleRevoked",
      "type": "event"
    },
    {
      "anonymous": false,
      "inputs": [
        {
          "indexed": false,
          "internalType": "address",
          "name": "account",
          "type": "address"
        }
      ],
      "name": "Unpaused",
      "type": "event"
    },
    {
      "inputs": [],
      "name": "ADMIN",
      "outputs": [
        {
          "internalType": "bytes32",
          "name": "",
          "type": "bytes32"
        }
      ],
      "stateMutability": "view",
      "type": "function"
    },
    {
      "inputs": [],
      "name": "DEFAULT_ADMIN_ROLE",
      "outputs": [
        {
          "internalType": "bytes32",
          "name": "",
          "type": "bytes32"
        }
      ],
      "stateMutability": "view",
      "type": "function"
    },
    {
      "inputs": [
        {
          "internalType": "address",
          "name": "_licenseContract",
          "type": "address"
        }
      ],
      "name": "addLicenseContract",
      "outputs": [],
      "stateMutability": "nonpayable",
      "type": "function"
    },
    {
      "inputs": [],
      "name": "cid",
      "outputs": [
        {
          "internalType": "bytes32",
          "name": "",
          "type": "bytes32"
        }
      ],
      "stateMutability": "view",
      "type": "function"
    },
    {
      "inputs": [],
      "name": "getLicenseContracts",
      "outputs": [
        {
          "internalType": "address[]",
          "name": "",
          "type": "address[]"
        }
      ],
      "stateMutability": "view",
      "type": "function"
    },
    {
      "inputs": [
        {
          "internalType": "bytes32",
          "name": "role",
          "type": "bytes32"
        }
      ],
      "name": "getRoleAdmin",
      "outputs": [
        {
          "internalType": "bytes32",
          "name": "",
          "type": "bytes32"
        }
      ],
      "stateMutability": "view",
      "type": "function"
    },
    {
      "inputs": [
        {
          "internalType": "bytes32",
          "name": "role",
          "type": "bytes32"
        },
        {
          "internalType": "uint256",
          "name": "index",
          "type": "uint256"
        }
      ],
      "name": "getRoleMember",
      "outputs": [
        {
          "internalType": "address",
          "name": "",
          "type": "address"
        }
      ],
      "stateMutability": "view",
      "type": "function"
    },
    {
      "inputs": [
        {
          "internalType": "bytes32",
          "name": "role",
          "type": "bytes32"
        }
      ],
      "name": "getRoleMemberCount",
      "outputs": [
        {
          "internalType": "uint256",
          "name": "",
          "type": "uint256"
        }
      ],
      "stateMutability": "view",
      "type": "function"
    },
    {
      "inputs": [
        {
          "internalType": "bytes32",
          "name": "role",
          "type": "bytes32"
        },
        {
          "internalType": "address",
          "name": "account",
          "type": "address"
        }
      ],
      "name": "grantRole",
      "outputs": [],
      "stateMutability": "nonpayable",
      "type": "function"
    },
    {
      "inputs": [
        {
          "internalType": "bytes32",
          "name": "role",
          "type": "bytes32"
        },
        {
          "internalType": "address",
          "name": "account",
          "type": "address"
        }
      ],
      "name": "hasRole",
      "outputs": [
        {
          "internalType": "bool",
          "name": "",
          "type": "bool"
        }
      ],
      "stateMutability": "view",
      "type": "function"
    },
    {
      "inputs": [],
      "name": "name",
      "outputs": [
        {
          "internalType": "string",
          "name": "",
          "type": "string"
        }
      ],
      "stateMutability": "view",
      "type": "function"
    },
    {
      "inputs": [],
      "name": "owner",
      "outputs": [
        {
          "internalType": "address",
          "name": "",
          "type": "address"
        }
      ],
      "stateMutability": "view",
      "type": "function"
    },
    {
      "inputs": [],
      "name": "paused",
      "outputs": [
        {
          "internalType": "bool",
          "name": "",
          "type": "bool"
        }
      ],
      "stateMutability": "view",
      "type": "function"
    },
    {
      "inputs": [],
      "name": "publisher",
      "outputs": [
        {
          "internalType": "address",
          "name": "",
          "type": "address"
        }
      ],
      "stateMutability": "view",
      "type": "function"
    },
    {
      "inputs": [
        {
          "internalType": "address",
          "name": "_licenseContract",
          "type": "address"
        }
      ],
      "name": "removeLicenseContract",
      "outputs": [],
      "stateMutability": "nonpayable",
      "type": "function"
    },
    {
      "inputs": [],
      "name": "renounceOwnership",
      "outputs": [],
      "stateMutability": "nonpayable",
      "type": "function"
    },
    {
      "inputs": [
        {
          "internalType": "bytes32",
          "name": "role",
          "type": "bytes32"
        },
        {
          "internalType": "address",
          "name": "account",
          "type": "address"
        }
      ],
      "name": "renounceRole",
      "outputs": [],
      "stateMutability": "nonpayable",
      "type": "function"
    },
    {
      "inputs": [
        {
          "internalType": "bytes32",
          "name": "role",
          "type": "bytes32"
        },
        {
          "internalType": "address",
          "name": "account",
          "type": "address"
        }
      ],
      "name": "revokeRole",
      "outputs": [],
      "stateMutability": "nonpayable",
      "type": "function"
    },
    {
      "inputs": [
        {
          "internalType": "bytes32",
          "name": "_cid",
          "type": "bytes32"
        }
      ],
      "name": "setCid",
      "outputs": [],
      "stateMutability": "nonpayable",
      "type": "function"
    },
    {
      "inputs": [
        {
          "internalType": "string",
          "name": "_name",
          "type": "string"
        }
      ],
      "name": "setName",
      "outputs": [],
      "stateMutability": "nonpayable",
      "type": "function"
    },
    {
      "inputs": [
        {
          "internalType": "address",
          "name": "_publisher",
          "type": "address"
        }
      ],
      "name": "setPublisher",
      "outputs": [],
      "stateMutability": "nonpayable",
      "type": "function"
    },
    {
      "inputs": [
        {
          "internalType": "bytes4",
          "name": "interfaceId",
          "type": "bytes4"
        }
      ],
      "name": "supportsInterface",
      "outputs": [
        {
          "internalType": "bool",
          "name": "",
          "type": "bool"
        }
      ],
      "stateMutability": "view",
      "type": "function"
    },
    {
      "inputs": [],
      "name": "symbol",
      "outputs": [
        {
          "internalType": "string",
          "name": "",
          "type": "string"
        }
      ],
      "stateMutability": "view",
      "type": "function"
    },
    {
      "inputs": [
        {
          "internalType": "address",
          "name": "newOwner",
          "type": "address"
        }
      ],
      "name": "transferOwnership",
      "outputs": [],
      "stateMutability": "nonpayable",
      "type": "function"
    },
    {
      "inputs": [
        {
          "components": [
            {
              "internalType": "string",
              "name": "name",
              "type": "string"
            },
            {
              "internalType": "string",
              "name": "symbol",
              "type": "string"
            },
            {
              "internalType": "bytes32",
              "name": "cid",
              "type": "bytes32"
            },
            {
              "internalType": "address",
              "name": "publisher",
              "type": "address"
            }
          ],
          "internalType": "struct AppInitRequest",
          "name": "request",
          "type": "tuple"
        }
      ],
      "name": "update",
      "outputs": [],
      "stateMutability": "nonpayable",
      "type": "function"
    }
  ],
  "bytecode": "0x60806040526000600660006101000a81548173ffffffffffffffffffffffffffffffffffffffff021916908373ffffffffffffffffffffffffffffffffffffffff1602179055503480156200005357600080fd5b506040516200358b3803806200358b83398181016040528101906200007991906200086c565b620000996200008d6200032660201b60201c565b6200032e60201b60201c565b60008060146101000a81548160ff02191690831515021790555060008160000151511415620000ff576040517fa69290e7000000000000000000000000000000000000000000000000000000008152600401620000f6906200094d565b60405180910390fd5b600081602001515114156200014b576040517fa69290e70000000000000000000000000000000000000000000000000000000081526004016200014290620009b3565b60405180910390fd5b6000801b8160400151141562000198576040517fa69290e70000000000000000000000000000000000000000000000000000000081526004016200018f9062000991565b60405180910390fd5b600073ffffffffffffffffffffffffffffffffffffffff16816060015173ffffffffffffffffffffffffffffffffffffffff1614156200020f576040517fa69290e700000000000000000000000000000000000000000000000000000000815260040162000206906200096f565b60405180910390fd5b8060000151600390805190602001906200022b9291906200066b565b50806020015160049080519060200190620002489291906200066b565b5080604001516005819055508060600151600660006101000a81548173ffffffffffffffffffffffffffffffffffffffff021916908373ffffffffffffffffffffffffffffffffffffffff160217905550620002cb7fdf8b4c520ffe197c5343c6f5aec59570151ef9a492f2c624fd45ddde6135ec4233620003f260201b60201c565b6200031f7fdf8b4c520ffe197c5343c6f5aec59570151ef9a492f2c624fd45ddde6135ec42600660009054906101000a900473ffffffffffffffffffffffffffffffffffffffff16620003f260201b60201c565b5062000c6c565b600033905090565b60008060009054906101000a900473ffffffffffffffffffffffffffffffffffffffff169050816000806101000a81548173ffffffffffffffffffffffffffffffffffffffff021916908373ffffffffffffffffffffffffffffffffffffffff1602179055508173ffffffffffffffffffffffffffffffffffffffff168173ffffffffffffffffffffffffffffffffffffffff167f8be0079c531659141344cd1fd0a4f28419497f9722a3daafe3b4186f6b6457e060405160405180910390a35050565b6200040982826200043a60201b62000ea91760201c565b6200043581600260008581526020019081526020016000206200052b60201b62000f891790919060201c565b505050565b6200044c82826200056360201b60201c565b6200052757600180600084815260200190815260200160002060000160008373ffffffffffffffffffffffffffffffffffffffff1673ffffffffffffffffffffffffffffffffffffffff16815260200190815260200160002060006101000a81548160ff021916908315150217905550620004cc6200032660201b60201c565b73ffffffffffffffffffffffffffffffffffffffff168173ffffffffffffffffffffffffffffffffffffffff16837f2f8788117e7eff1d82e926ec794901d17c78024a50270940304540a733656f0d60405160405180910390a45b5050565b60006200055b836000018373ffffffffffffffffffffffffffffffffffffffff1660001b620005ce60201b60201c565b905092915050565b60006001600084815260200190815260200160002060000160008373ffffffffffffffffffffffffffffffffffffffff1673ffffffffffffffffffffffffffffffffffffffff16815260200190815260200160002060009054906101000a900460ff16905092915050565b6000620005e283836200064860201b60201c565b6200063d57826000018290806001815401808255809150506001900390600052602060002001600090919091909150558260000180549050836001016000848152602001908152602001600020819055506001905062000642565b600090505b92915050565b600080836001016000848152602001908152602001600020541415905092915050565b828054620006799062000ab9565b90600052602060002090601f0160209004810192826200069d5760008555620006e9565b82601f10620006b857805160ff1916838001178555620006e9565b82800160010185558215620006e9579182015b82811115620006e8578251825591602001919060010190620006cb565b5b509050620006f89190620006fc565b5090565b5b8082111562000717576000816000905550600101620006fd565b5090565b6000620007326200072c84620009fe565b620009d5565b9050828152602081018484840111156200074b57600080fd5b6200075884828562000a83565b509392505050565b600081519050620007718162000c38565b92915050565b600081519050620007888162000c52565b92915050565b600082601f830112620007a057600080fd5b8151620007b28482602086016200071b565b91505092915050565b600060808284031215620007ce57600080fd5b620007da6080620009d5565b9050600082015167ffffffffffffffff811115620007f757600080fd5b62000805848285016200078e565b600083015250602082015167ffffffffffffffff8111156200082657600080fd5b62000834848285016200078e565b60208301525060406200084a8482850162000777565b6040830152506060620008608482850162000760565b60608301525092915050565b6000602082840312156200087f57600080fd5b600082015167ffffffffffffffff8111156200089a57600080fd5b620008a884828501620007bb565b91505092915050565b6000620008c060048362000a34565b9150620008cd8262000b94565b602082019050919050565b6000620008e760098362000a34565b9150620008f48262000bbd565b602082019050919050565b60006200090e60038362000a34565b91506200091b8262000be6565b602082019050919050565b60006200093560068362000a34565b9150620009428262000c0f565b602082019050919050565b600060208201905081810360008301526200096881620008b1565b9050919050565b600060208201905081810360008301526200098a81620008d8565b9050919050565b60006020820190508181036000830152620009ac81620008ff565b9050919050565b60006020820190508181036000830152620009ce8162000926565b9050919050565b6000620009e1620009f4565b9050620009ef828262000aef565b919050565b6000604051905090565b600067ffffffffffffffff82111562000a1c5762000a1b62000b54565b5b62000a278262000b83565b9050602081019050919050565b600082825260208201905092915050565b600062000a528262000a63565b9050919050565b6000819050919050565b600073ffffffffffffffffffffffffffffffffffffffff82169050919050565b60005b8381101562000aa357808201518184015260208101905062000a86565b8381111562000ab3576000848401525b50505050565b6000600282049050600182168062000ad257607f821691505b6020821081141562000ae95762000ae862000b25565b5b50919050565b62000afa8262000b83565b810181811067ffffffffffffffff8211171562000b1c5762000b1b62000b54565b5b80604052505050565b7f4e487b7100000000000000000000000000000000000000000000000000000000600052602260045260246000fd5b7f4e487b7100000000000000000000000000000000000000000000000000000000600052604160045260246000fd5b6000601f19601f8301169050919050565b7f6e616d6500000000000000000000000000000000000000000000000000000000600082015250565b7f7075626c69736865720000000000000000000000000000000000000000000000600082015250565b7f6369640000000000000000000000000000000000000000000000000000000000600082015250565b7f73796d626f6c0000000000000000000000000000000000000000000000000000600082015250565b62000c438162000a45565b811462000c4f57600080fd5b50565b62000c5d8162000a59565b811462000c6957600080fd5b50565b61290f8062000c7c6000396000f3fe608060405234801561001057600080fd5b50600436106101735760003560e01c80638c72c54e116100de578063aa3ec0a911610097578063cab6366111610071578063cab6366114610428578063d547741f14610444578063ef8b860a14610460578063f2fde38b1461047c57610173565b8063aa3ec0a9146103be578063c47f0027146103dc578063ca15c873146103f857610173565b80638c72c54e146102e65780638da5cb5b146103045780639010d07c1461032257806391d148541461035257806395d89b4114610382578063a217fddf146103a057610173565b80632a0acc6a116101305780632a0acc6a1461024a5780632f2ff15d1461026857806336568abe146102845780635c975abb146102a0578063715018a6146102be5780637d600b9f146102c857610173565b806301ffc9a71461017857806306fdde03146101a857806319cc7dee146101c65780631b26c461146101e257806320356ea5146101fe578063248a9ca31461021a575b600080fd5b610192600480360381019061018d9190611d88565b610498565b60405161019f9190612156565b60405180910390f35b6101b0610512565b6040516101bd919061218c565b60405180910390f35b6101e060048036038101906101db9190611df2565b6105a0565b005b6101fc60048036038101906101f79190611c95565b610822565b005b61021860048036038101906102139190611ce7565b61086d565b005b610234600480360381019061022f9190611ce7565b6108aa565b6040516102419190612171565b60405180910390f35b6102526108ca565b60405161025f9190612171565b60405180910390f35b610282600480360381019061027d9190611d10565b6108ee565b005b61029e60048036038101906102999190611d10565b61090f565b005b6102a8610992565b6040516102b59190612156565b60405180910390f35b6102c66109a8565b005b6102d06109bc565b6040516102dd9190612134565b60405180910390f35b6102ee6109cd565b6040516102fb9190612119565b60405180910390f35b61030c6109f3565b6040516103199190612119565b60405180910390f35b61033c60048036038101906103379190611d4c565b610a1c565b6040516103499190612119565b60405180910390f35b61036c60048036038101906103679190611d10565b610a4b565b6040516103799190612156565b60405180910390f35b61038a610ab6565b604051610397919061218c565b60405180910390f35b6103a8610b44565b6040516103b59190612171565b60405180910390f35b6103c6610b4b565b6040516103d39190612171565b60405180910390f35b6103f660048036038101906103f19190611db1565b610b51565b005b610412600480360381019061040d9190611ce7565b610b9e565b60405161041f91906122ce565b60405180910390f35b610442600480360381019061043d9190611c95565b610bc2565b005b61045e60048036038101906104599190611d10565b610caf565b005b61047a60048036038101906104759190611c95565b610cd0565b005b61049660048036038101906104919190611c95565b610e25565b005b60007f5a05180f000000000000000000000000000000000000000000000000000000007bffffffffffffffffffffffffffffffffffffffffffffffffffffffff1916827bffffffffffffffffffffffffffffffffffffffffffffffffffffffff1916148061050b575061050a82610fb9565b5b9050919050565b6003805461051f9061256d565b80601f016020809104026020016040519081016040528092919081815260200182805461054b9061256d565b80156105985780601f1061056d57610100808354040283529160200191610598565b820191906000526020600020905b81548152906001019060200180831161057b57829003601f168201915b505050505081565b7fdf8b4c520ffe197c5343c6f5aec59570151ef9a492f2c624fd45ddde6135ec426105ca81611033565b6105d2611047565b6000826000015151141561061b576040517fa69290e7000000000000000000000000000000000000000000000000000000008152600401610612906121ce565b60405180910390fd5b60008260200151511415610664576040517fa69290e700000000000000000000000000000000000000000000000000000000815260040161065b9061228e565b60405180910390fd5b6000801b826040015114156106ae576040517fa69290e70000000000000000000000000000000000000000000000000000000081526004016106a59061222e565b60405180910390fd5b600073ffffffffffffffffffffffffffffffffffffffff16826060015173ffffffffffffffffffffffffffffffffffffffff161415610722576040517fa69290e70000000000000000000000000000000000000000000000000000000081526004016107199061220e565b60405180910390fd5b81600001516003908051906020019061073c929190611a7d565b50816020015160049080519060200190610757929190611a7d565b5081604001516005819055508160600151600660006101000a81548173ffffffffffffffffffffffffffffffffffffffff021916908373ffffffffffffffffffffffffffffffffffffffff1602179055506107d27fdf8b4c520ffe197c5343c6f5aec59570151ef9a492f2c624fd45ddde6135ec4233611091565b61081e7fdf8b4c520ffe197c5343c6f5aec59570151ef9a492f2c624fd45ddde6135ec42600660009054906101000a900473ffffffffffffffffffffffffffffffffffffffff16611091565b5050565b7fdf8b4c520ffe197c5343c6f5aec59570151ef9a492f2c624fd45ddde6135ec4261084c81611033565b610854611047565b6108688260076110c590919063ffffffff16565b505050565b7fdf8b4c520ffe197c5343c6f5aec59570151ef9a492f2c624fd45ddde6135ec4261089781611033565b61089f611047565b816005819055505050565b600060016000838152602001908152602001600020600101549050919050565b7fdf8b4c520ffe197c5343c6f5aec59570151ef9a492f2c624fd45ddde6135ec4281565b6108f7826108aa565b61090081611033565b61090a8383611091565b505050565b6109176110f5565b73ffffffffffffffffffffffffffffffffffffffff168173ffffffffffffffffffffffffffffffffffffffff1614610984576040517f08c379a000000000000000000000000000000000000000000000000000000000815260040161097b906122ae565b60405180910390fd5b61098e82826110fd565b5050565b60008060149054906101000a900460ff16905090565b6109b0611131565b6109ba60006111af565b565b60606109c86007611273565b905090565b600660009054906101000a900473ffffffffffffffffffffffffffffffffffffffff1681565b60008060009054906101000a900473ffffffffffffffffffffffffffffffffffffffff16905090565b6000610a43826002600086815260200190815260200160002061129490919063ffffffff16565b905092915050565b60006001600084815260200190815260200160002060000160008373ffffffffffffffffffffffffffffffffffffffff1673ffffffffffffffffffffffffffffffffffffffff16815260200190815260200160002060009054906101000a900460ff16905092915050565b60048054610ac39061256d565b80601f0160208091040260200160405190810160405280929190818152602001828054610aef9061256d565b8015610b3c5780601f10610b1157610100808354040283529160200191610b3c565b820191906000526020600020905b815481529060010190602001808311610b1f57829003601f168201915b505050505081565b6000801b81565b60055481565b7fdf8b4c520ffe197c5343c6f5aec59570151ef9a492f2c624fd45ddde6135ec42610b7b81611033565b610b83611047565b8160039080519060200190610b99929190611a7d565b505050565b6000610bbb600260008481526020019081526020016000206112ae565b9050919050565b7fdf8b4c520ffe197c5343c6f5aec59570151ef9a492f2c624fd45ddde6135ec42610bec81611033565b610bf4611047565b610c407fdf8b4c520ffe197c5343c6f5aec59570151ef9a492f2c624fd45ddde6135ec42600660009054906101000a900473ffffffffffffffffffffffffffffffffffffffff166110fd565b81600660006101000a81548173ffffffffffffffffffffffffffffffffffffffff021916908373ffffffffffffffffffffffffffffffffffffffff160217905550610cab7fdf8b4c520ffe197c5343c6f5aec59570151ef9a492f2c624fd45ddde6135ec4283611091565b5050565b610cb8826108aa565b610cc181611033565b610ccb83836110fd565b505050565b7fdf8b4c520ffe197c5343c6f5aec59570151ef9a492f2c624fd45ddde6135ec42610cfa81611033565b610d02611047565b6000829050600660009054906101000a900473ffffffffffffffffffffffffffffffffffffffff1673ffffffffffffffffffffffffffffffffffffffff168173ffffffffffffffffffffffffffffffffffffffff16638da5cb5b6040518163ffffffff1660e01b815260040160206040518083038186803b158015610d8657600080fd5b505afa158015610d9a573d6000803e3d6000fd5b505050506040513d601f19601f82011682018060405250810190610dbe9190611cbe565b73ffffffffffffffffffffffffffffffffffffffff1614610e0b576040517f8b5701f700000000000000000000000000000000000000000000000000000000815260040160405180910390fd5b610e1f836007610f8990919063ffffffff16565b50505050565b610e2d611131565b600073ffffffffffffffffffffffffffffffffffffffff168173ffffffffffffffffffffffffffffffffffffffff161415610e9d576040517f08c379a0000000000000000000000000000000000000000000000000000000008152600401610e94906121ee565b60405180910390fd5b610ea6816111af565b50565b610eb38282610a4b565b610f8557600180600084815260200190815260200160002060000160008373ffffffffffffffffffffffffffffffffffffffff1673ffffffffffffffffffffffffffffffffffffffff16815260200190815260200160002060006101000a81548160ff021916908315150217905550610f2a6110f5565b73ffffffffffffffffffffffffffffffffffffffff168173ffffffffffffffffffffffffffffffffffffffff16837f2f8788117e7eff1d82e926ec794901d17c78024a50270940304540a733656f0d60405160405180910390a45b5050565b6000610fb1836000018373ffffffffffffffffffffffffffffffffffffffff1660001b6112c3565b905092915050565b60007f7965db0b000000000000000000000000000000000000000000000000000000007bffffffffffffffffffffffffffffffffffffffffffffffffffffffff1916827bffffffffffffffffffffffffffffffffffffffffffffffffffffffff1916148061102c575061102b82611333565b5b9050919050565b6110448161103f6110f5565b61139d565b50565b61104f610992565b1561108f576040517f08c379a00000000000000000000000000000000000000000000000000000000081526004016110869061224e565b60405180910390fd5b565b61109b8282610ea9565b6110c08160026000858152602001908152602001600020610f8990919063ffffffff16565b505050565b60006110ed836000018373ffffffffffffffffffffffffffffffffffffffff1660001b61143a565b905092915050565b600033905090565b61110782826115c0565b61112c81600260008581526020019081526020016000206110c590919063ffffffff16565b505050565b6111396110f5565b73ffffffffffffffffffffffffffffffffffffffff166111576109f3565b73ffffffffffffffffffffffffffffffffffffffff16146111ad576040517f08c379a00000000000000000000000000000000000000000000000000000000081526004016111a49061226e565b60405180910390fd5b565b60008060009054906101000a900473ffffffffffffffffffffffffffffffffffffffff169050816000806101000a81548173ffffffffffffffffffffffffffffffffffffffff021916908373ffffffffffffffffffffffffffffffffffffffff1602179055508173ffffffffffffffffffffffffffffffffffffffff168173ffffffffffffffffffffffffffffffffffffffff167f8be0079c531659141344cd1fd0a4f28419497f9722a3daafe3b4186f6b6457e060405160405180910390a35050565b60606000611283836000016116a2565b905060608190508092505050919050565b60006112a383600001836116fe565b60001c905092915050565b60006112bc8260000161174f565b9050919050565b60006112cf8383611760565b61132857826000018290806001815401808255809150506001900390600052602060002001600090919091909150558260000180549050836001016000848152602001908152602001600020819055506001905061132d565b600090505b92915050565b60007f01ffc9a7000000000000000000000000000000000000000000000000000000007bffffffffffffffffffffffffffffffffffffffffffffffffffffffff1916827bffffffffffffffffffffffffffffffffffffffffffffffffffffffff1916149050919050565b6113a78282610a4b565b611436576113cc8173ffffffffffffffffffffffffffffffffffffffff166014611783565b6113da8360001c6020611783565b6040516020016113eb9291906120df565b6040516020818303038152906040526040517f08c379a000000000000000000000000000000000000000000000000000000000815260040161142d919061218c565b60405180910390fd5b5050565b600080836001016000848152602001908152602001600020549050600081146115b457600060018261146c919061244f565b9050600060018660000180549050611484919061244f565b905081811461153f5760008660000182815481106114cb577f4e487b7100000000000000000000000000000000000000000000000000000000600052603260045260246000fd5b9060005260206000200154905080876000018481548110611515577f4e487b7100000000000000000000000000000000000000000000000000000000600052603260045260246000fd5b90600052602060002001819055508387600101600083815260200190815260200160002081905550505b85600001805480611579577f4e487b7100000000000000000000000000000000000000000000000000000000600052603160045260246000fd5b6001900381819060005260206000200160009055905585600101600086815260200190815260200160002060009055600193505050506115ba565b60009150505b92915050565b6115ca8282610a4b565b1561169e5760006001600084815260200190815260200160002060000160008373ffffffffffffffffffffffffffffffffffffffff1673ffffffffffffffffffffffffffffffffffffffff16815260200190815260200160002060006101000a81548160ff0219169083151502179055506116436110f5565b73ffffffffffffffffffffffffffffffffffffffff168173ffffffffffffffffffffffffffffffffffffffff16837ff6391f5c32d9c69d2a47ea670b442974b53935d1edc7fd64eb21e047a839171b60405160405180910390a45b5050565b6060816000018054806020026020016040519081016040528092919081815260200182805480156116f257602002820191906000526020600020905b8154815260200190600101908083116116de575b50505050509050919050565b600082600001828154811061173c577f4e487b7100000000000000000000000000000000000000000000000000000000600052603260045260246000fd5b9060005260206000200154905092915050565b600081600001805490509050919050565b600080836001016000848152602001908152602001600020541415905092915050565b60606000600283600261179691906123f5565b6117a0919061239f565b67ffffffffffffffff8111156117df577f4e487b7100000000000000000000000000000000000000000000000000000000600052604160045260246000fd5b6040519080825280601f01601f1916602001820160405280156118115781602001600182028036833780820191505090505b5090507f30000000000000000000000000000000000000000000000000000000000000008160008151811061186f577f4e487b7100000000000000000000000000000000000000000000000000000000600052603260045260246000fd5b60200101907effffffffffffffffffffffffffffffffffffffffffffffffffffffffffffff1916908160001a9053507f7800000000000000000000000000000000000000000000000000000000000000816001815181106118f9577f4e487b7100000000000000000000000000000000000000000000000000000000600052603260045260246000fd5b60200101907effffffffffffffffffffffffffffffffffffffffffffffffffffffffffffff1916908160001a9053506000600184600261193991906123f5565b611943919061239f565b90505b6001811115611a2f577f3031323334353637383961626364656600000000000000000000000000000000600f8616601081106119ab577f4e487b7100000000000000000000000000000000000000000000000000000000600052603260045260246000fd5b1a60f81b8282815181106119e8577f4e487b7100000000000000000000000000000000000000000000000000000000600052603260045260246000fd5b60200101907effffffffffffffffffffffffffffffffffffffffffffffffffffffffffffff1916908160001a905350600485901c945080611a2890612543565b9050611946565b5060008414611a73576040517f08c379a0000000000000000000000000000000000000000000000000000000008152600401611a6a906121ae565b60405180910390fd5b8091505092915050565b828054611a899061256d565b90600052602060002090601f016020900481019282611aab5760008555611af2565b82601f10611ac457805160ff1916838001178555611af2565b82800160010185558215611af2579182015b82811115611af1578251825591602001919060010190611ad6565b5b509050611aff9190611b03565b5090565b5b80821115611b1c576000816000905550600101611b04565b5090565b6000611b33611b2e8461230e565b6122e9565b905082815260208101848484011115611b4b57600080fd5b611b56848285612501565b509392505050565b600081359050611b6d8161287d565b92915050565b600081519050611b828161287d565b92915050565b600081359050611b9781612894565b92915050565b600081359050611bac816128ab565b92915050565b600082601f830112611bc357600080fd5b8135611bd3848260208601611b20565b91505092915050565b600060808284031215611bee57600080fd5b611bf860806122e9565b9050600082013567ffffffffffffffff811115611c1457600080fd5b611c2084828501611bb2565b600083015250602082013567ffffffffffffffff811115611c4057600080fd5b611c4c84828501611bb2565b6020830152506040611c6084828501611b88565b6040830152506060611c7484828501611b5e565b60608301525092915050565b600081359050611c8f816128c2565b92915050565b600060208284031215611ca757600080fd5b6000611cb584828501611b5e565b91505092915050565b600060208284031215611cd057600080fd5b6000611cde84828501611b73565b91505092915050565b600060208284031215611cf957600080fd5b6000611d0784828501611b88565b91505092915050565b60008060408385031215611d2357600080fd5b6000611d3185828601611b88565b9250506020611d4285828601611b5e565b9150509250929050565b60008060408385031215611d5f57600080fd5b6000611d6d85828601611b88565b9250506020611d7e85828601611c80565b9150509250929050565b600060208284031215611d9a57600080fd5b6000611da884828501611b9d565b91505092915050565b600060208284031215611dc357600080fd5b600082013567ffffffffffffffff811115611ddd57600080fd5b611de984828501611bb2565b91505092915050565b600060208284031215611e0457600080fd5b600082013567ffffffffffffffff811115611e1e57600080fd5b611e2a84828501611bdc565b91505092915050565b6000611e3f8383611e4b565b60208301905092915050565b611e5481612483565b82525050565b611e6381612483565b82525050565b6000611e748261234f565b611e7e8185612372565b9350611e898361233f565b8060005b83811015611eba578151611ea18882611e33565b9750611eac83612365565b925050600181019050611e8d565b5085935050505092915050565b611ed081612495565b82525050565b611edf816124a1565b82525050565b6000611ef08261235a565b611efa8185612383565b9350611f0a818560208601612510565b611f138161265d565b840191505092915050565b6000611f298261235a565b611f338185612394565b9350611f43818560208601612510565b80840191505092915050565b6000611f5c602083612383565b9150611f678261266e565b602082019050919050565b6000611f7f600483612383565b9150611f8a82612697565b602082019050919050565b6000611fa2602683612383565b9150611fad826126c0565b604082019050919050565b6000611fc5600983612383565b9150611fd08261270f565b602082019050919050565b6000611fe8600383612383565b9150611ff382612738565b602082019050919050565b600061200b601083612383565b915061201682612761565b602082019050919050565b600061202e602083612383565b91506120398261278a565b602082019050919050565b6000612051600683612383565b915061205c826127b3565b602082019050919050565b6000612074601783612394565b915061207f826127dc565b601782019050919050565b6000612097601183612394565b91506120a282612805565b601182019050919050565b60006120ba602f83612383565b91506120c58261282e565b604082019050919050565b6120d9816124f7565b82525050565b60006120ea82612067565b91506120f68285611f1e565b91506121018261208a565b915061210d8284611f1e565b91508190509392505050565b600060208201905061212e6000830184611e5a565b92915050565b6000602082019050818103600083015261214e8184611e69565b905092915050565b600060208201905061216b6000830184611ec7565b92915050565b60006020820190506121866000830184611ed6565b92915050565b600060208201905081810360008301526121a68184611ee5565b905092915050565b600060208201905081810360008301526121c781611f4f565b9050919050565b600060208201905081810360008301526121e781611f72565b9050919050565b6000602082019050818103600083015261220781611f95565b9050919050565b6000602082019050818103600083015261222781611fb8565b9050919050565b6000602082019050818103600083015261224781611fdb565b9050919050565b6000602082019050818103600083015261226781611ffe565b9050919050565b6000602082019050818103600083015261228781612021565b9050919050565b600060208201905081810360008301526122a781612044565b9050919050565b600060208201905081810360008301526122c7816120ad565b9050919050565b60006020820190506122e360008301846120d0565b92915050565b60006122f3612304565b90506122ff828261259f565b919050565b6000604051905090565b600067ffffffffffffffff8211156123295761232861262e565b5b6123328261265d565b9050602081019050919050565b6000819050602082019050919050565b600081519050919050565b600081519050919050565b6000602082019050919050565b600082825260208201905092915050565b600082825260208201905092915050565b600081905092915050565b60006123aa826124f7565b91506123b5836124f7565b9250827fffffffffffffffffffffffffffffffffffffffffffffffffffffffffffffffff038211156123ea576123e96125d0565b5b828201905092915050565b6000612400826124f7565b915061240b836124f7565b9250817fffffffffffffffffffffffffffffffffffffffffffffffffffffffffffffffff0483118215151615612444576124436125d0565b5b828202905092915050565b600061245a826124f7565b9150612465836124f7565b925082821015612478576124776125d0565b5b828203905092915050565b600061248e826124d7565b9050919050565b60008115159050919050565b6000819050919050565b60007fffffffff0000000000000000000000000000000000000000000000000000000082169050919050565b600073ffffffffffffffffffffffffffffffffffffffff82169050919050565b6000819050919050565b82818337600083830152505050565b60005b8381101561252e578082015181840152602081019050612513565b8381111561253d576000848401525b50505050565b600061254e826124f7565b91506000821415612562576125616125d0565b5b600182039050919050565b6000600282049050600182168061258557607f821691505b60208210811415612599576125986125ff565b5b50919050565b6125a88261265d565b810181811067ffffffffffffffff821117156125c7576125c661262e565b5b80604052505050565b7f4e487b7100000000000000000000000000000000000000000000000000000000600052601160045260246000fd5b7f4e487b7100000000000000000000000000000000000000000000000000000000600052602260045260246000fd5b7f4e487b7100000000000000000000000000000000000000000000000000000000600052604160045260246000fd5b6000601f19601f8301169050919050565b7f537472696e67733a20686578206c656e67746820696e73756666696369656e74600082015250565b7f6e616d6500000000000000000000000000000000000000000000000000000000600082015250565b7f4f776e61626c653a206e6577206f776e657220697320746865207a65726f206160008201527f6464726573730000000000000000000000000000000000000000000000000000602082015250565b7f7075626c69736865720000000000000000000000000000000000000000000000600082015250565b7f6369640000000000000000000000000000000000000000000000000000000000600082015250565b7f5061757361626c653a2070617573656400000000000000000000000000000000600082015250565b7f4f776e61626c653a2063616c6c6572206973206e6f7420746865206f776e6572600082015250565b7f73796d626f6c0000000000000000000000000000000000000000000000000000600082015250565b7f416363657373436f6e74726f6c3a206163636f756e7420000000000000000000600082015250565b7f206973206d697373696e6720726f6c6520000000000000000000000000000000600082015250565b7f416363657373436f6e74726f6c3a2063616e206f6e6c792072656e6f756e636560008201527f20726f6c657320666f722073656c660000000000000000000000000000000000602082015250565b61288681612483565b811461289157600080fd5b50565b61289d816124a1565b81146128a857600080fd5b50565b6128b4816124ab565b81146128bf57600080fd5b50565b6128cb816124f7565b81146128d657600080fd5b5056fea2646970667358221220f8d32cc57ebdc5c34014bda18068d4225cb49eebdfe89331156faed9bb662fa764736f6c63430008040033",
  "linkReferences": {},
  "deployedLinkReferences": {}
}