{
  "_format": "hh-sol-artifact-1",
  "contractName": "License",
  "sourceName": "contracts/License.sol",
  "abi": [
    {
      "inputs": [
        {
          "components": [
            {
              "internalType": "string",
              "name": "name",
              "type": "string"
            },
            {
              "internalType": "string",
              "name": "symbol",
              "type": "string"
            },
            {
              "internalType": "uint256",
              "name": "price",
              "type": "uint256"
            },
            {
              "internalType": "bytes32",
              "name": "cid",
              "type": "bytes32"
            }
          ],
          "internalType": "struct CreateLicenseRequest",
          "name": "request",
          "type": "tuple"
        }
      ],
      "stateMutability": "nonpayable",
      "type": "constructor"
    },
    {
      "inputs": [
        {
          "internalType": "uint256",
          "name": "expectedAmount",
          "type": "uint256"
        },
        {
          "internalType": "uint256",
          "name": "actualAmount",
          "type": "uint256"
        }
      ],
      "name": "InsufficientBalanceError",
      "type": "error"
    },
    {
      "inputs": [
        {
          "internalType": "string",
          "name": "name",
          "type": "string"
        }
      ],
      "name": "NotExistedResourceError",
      "type": "error"
    },
    {
      "inputs": [],
      "name": "UnauthorizedError",
      "type": "error"
    },
    {
      "anonymous": false,
      "inputs": [
        {
          "indexed": true,
          "internalType": "address",
          "name": "owner",
          "type": "address"
        },
        {
          "indexed": true,
          "internalType": "address",
          "name": "approved",
          "type": "address"
        },
        {
          "indexed": true,
          "internalType": "uint256",
          "name": "tokenId",
          "type": "uint256"
        }
      ],
      "name": "Approval",
      "type": "event"
    },
    {
      "anonymous": false,
      "inputs": [
        {
          "indexed": true,
          "internalType": "address",
          "name": "owner",
          "type": "address"
        },
        {
          "indexed": true,
          "internalType": "address",
          "name": "operator",
          "type": "address"
        },
        {
          "indexed": false,
          "internalType": "bool",
          "name": "approved",
          "type": "bool"
        }
      ],
      "name": "ApprovalForAll",
      "type": "event"
    },
    {
      "anonymous": false,
      "inputs": [
        {
          "indexed": true,
          "internalType": "address",
          "name": "previousOwner",
          "type": "address"
        },
        {
          "indexed": true,
          "internalType": "address",
          "name": "newOwner",
          "type": "address"
        }
      ],
      "name": "OwnershipTransferred",
      "type": "event"
    },
    {
      "anonymous": false,
      "inputs": [
        {
          "indexed": false,
          "internalType": "address",
          "name": "account",
          "type": "address"
        }
      ],
      "name": "Paused",
      "type": "event"
    },
    {
      "anonymous": false,
      "inputs": [
        {
          "indexed": true,
          "internalType": "address",
          "name": "from",
          "type": "address"
        },
        {
          "indexed": true,
          "internalType": "address",
          "name": "to",
          "type": "address"
        },
        {
          "indexed": true,
          "internalType": "uint256",
          "name": "tokenId",
          "type": "uint256"
        }
      ],
      "name": "Transfer",
      "type": "event"
    },
    {
      "anonymous": false,
      "inputs": [
        {
          "indexed": false,
          "internalType": "address",
          "name": "account",
          "type": "address"
        }
      ],
      "name": "Unpaused",
      "type": "event"
    },
    {
      "inputs": [
        {
          "internalType": "uint256",
          "name": "_tokenId",
          "type": "uint256"
        }
      ],
      "name": "activate",
      "outputs": [],
      "stateMutability": "nonpayable",
      "type": "function"
    },
    {
      "inputs": [
        {
          "internalType": "address",
          "name": "to",
          "type": "address"
        },
        {
          "internalType": "uint256",
          "name": "tokenId",
          "type": "uint256"
        }
      ],
      "name": "approve",
      "outputs": [],
      "stateMutability": "nonpayable",
      "type": "function"
    },
    {
      "inputs": [
        {
          "internalType": "address",
          "name": "owner",
          "type": "address"
        }
      ],
      "name": "balanceOf",
      "outputs": [
        {
          "internalType": "uint256",
          "name": "",
          "type": "uint256"
        }
      ],
      "stateMutability": "view",
      "type": "function"
    },
    {
      "inputs": [],
      "name": "buyLicense",
      "outputs": [
        {
          "internalType": "uint256",
          "name": "_tokenId",
          "type": "uint256"
        }
      ],
      "stateMutability": "payable",
      "type": "function"
    },
    {
      "inputs": [
        {
          "internalType": "uint256",
          "name": "_tokenId",
          "type": "uint256"
        }
      ],
      "name": "buyLicenseByTokenId",
      "outputs": [],
      "stateMutability": "payable",
      "type": "function"
    },
    {
      "inputs": [],
      "name": "cid",
      "outputs": [
        {
          "internalType": "bytes32",
          "name": "",
          "type": "bytes32"
        }
      ],
      "stateMutability": "view",
      "type": "function"
    },
    {
      "inputs": [
        {
          "internalType": "uint256",
          "name": "tokenId",
          "type": "uint256"
        }
      ],
      "name": "getApproved",
      "outputs": [
        {
          "internalType": "address",
          "name": "",
          "type": "address"
        }
      ],
      "stateMutability": "view",
      "type": "function"
    },
    {
      "inputs": [
        {
          "internalType": "uint256",
          "name": "_tokenId",
          "type": "uint256"
        }
      ],
      "name": "getLicenseByTokenId",
      "outputs": [
        {
          "components": [
            {
              "internalType": "uint256",
              "name": "tokenId",
              "type": "uint256"
            },
            {
              "internalType": "uint256",
              "name": "price",
              "type": "uint256"
            },
            {
              "internalType": "uint256",
              "name": "registeredOn",
              "type": "uint256"
            },
            {
              "internalType": "uint256",
              "name": "expiresOn",
              "type": "uint256"
            },
            {
              "internalType": "address",
              "name": "owner",
              "type": "address"
            },
            {
              "internalType": "enum LicenseState",
              "name": "state",
              "type": "uint8"
            }
          ],
          "internalType": "struct LicenseInfo",
          "name": "",
          "type": "tuple"
        }
      ],
      "stateMutability": "view",
      "type": "function"
    },
    {
      "inputs": [],
      "name": "getLicenseInfo",
      "outputs": [
        {
          "internalType": "uint256[]",
          "name": "",
          "type": "uint256[]"
        }
      ],
      "stateMutability": "view",
      "type": "function"
    },
    {
      "inputs": [
        {
          "internalType": "address",
          "name": "owner",
          "type": "address"
        },
        {
          "internalType": "address",
          "name": "operator",
          "type": "address"
        }
      ],
      "name": "isApprovedForAll",
      "outputs": [
        {
          "internalType": "bool",
          "name": "",
          "type": "bool"
        }
      ],
      "stateMutability": "view",
      "type": "function"
    },
    {
      "inputs": [],
      "name": "name",
      "outputs": [
        {
          "internalType": "string",
          "name": "",
          "type": "string"
        }
      ],
      "stateMutability": "view",
      "type": "function"
    },
    {
      "inputs": [],
      "name": "owner",
      "outputs": [
        {
          "internalType": "address",
          "name": "",
          "type": "address"
        }
      ],
      "stateMutability": "view",
      "type": "function"
    },
    {
      "inputs": [
        {
          "internalType": "uint256",
          "name": "tokenId",
          "type": "uint256"
        }
      ],
      "name": "ownerOf",
      "outputs": [
        {
          "internalType": "address",
          "name": "",
          "type": "address"
        }
      ],
      "stateMutability": "view",
      "type": "function"
    },
    {
      "inputs": [],
      "name": "pause",
      "outputs": [],
      "stateMutability": "nonpayable",
      "type": "function"
    },
    {
      "inputs": [],
      "name": "paused",
      "outputs": [
        {
          "internalType": "bool",
          "name": "",
          "type": "bool"
        }
      ],
      "stateMutability": "view",
      "type": "function"
    },
    {
      "inputs": [],
      "name": "price",
      "outputs": [
        {
          "internalType": "uint256",
          "name": "",
          "type": "uint256"
        }
      ],
      "stateMutability": "view",
      "type": "function"
    },
    {
      "inputs": [
        {
          "internalType": "uint256",
          "name": "_tokenId",
          "type": "uint256"
        },
        {
          "internalType": "uint256",
          "name": "_price",
          "type": "uint256"
        }
      ],
      "name": "putLicenseForSale",
      "outputs": [],
      "stateMutability": "nonpayable",
      "type": "function"
    },
    {
      "inputs": [],
      "name": "renounceOwnership",
      "outputs": [],
      "stateMutability": "nonpayable",
      "type": "function"
    },
    {
      "inputs": [
        {
          "internalType": "address",
          "name": "from",
          "type": "address"
        },
        {
          "internalType": "address",
          "name": "to",
          "type": "address"
        },
        {
          "internalType": "uint256",
          "name": "tokenId",
          "type": "uint256"
        }
      ],
      "name": "safeTransferFrom",
      "outputs": [],
      "stateMutability": "nonpayable",
      "type": "function"
    },
    {
      "inputs": [
        {
          "internalType": "address",
          "name": "from",
          "type": "address"
        },
        {
          "internalType": "address",
          "name": "to",
          "type": "address"
        },
        {
          "internalType": "uint256",
          "name": "tokenId",
          "type": "uint256"
        },
        {
          "internalType": "bytes",
          "name": "data",
          "type": "bytes"
        }
      ],
      "name": "safeTransferFrom",
      "outputs": [],
      "stateMutability": "nonpayable",
      "type": "function"
    },
    {
      "inputs": [
        {
          "internalType": "address",
          "name": "operator",
          "type": "address"
        },
        {
          "internalType": "bool",
          "name": "approved",
          "type": "bool"
        }
      ],
      "name": "setApprovalForAll",
      "outputs": [],
      "stateMutability": "nonpayable",
      "type": "function"
    },
    {
      "inputs": [
        {
          "internalType": "bytes32",
          "name": "_cid",
          "type": "bytes32"
        }
      ],
      "name": "setCid",
      "outputs": [],
      "stateMutability": "nonpayable",
      "type": "function"
    },
    {
      "inputs": [
        {
          "internalType": "uint256",
          "name": "_price",
          "type": "uint256"
        }
      ],
      "name": "setPrice",
      "outputs": [],
      "stateMutability": "nonpayable",
      "type": "function"
    },
    {
      "inputs": [
        {
          "internalType": "bytes4",
          "name": "interfaceId",
          "type": "bytes4"
        }
      ],
      "name": "supportsInterface",
      "outputs": [
        {
          "internalType": "bool",
          "name": "",
          "type": "bool"
        }
      ],
      "stateMutability": "view",
      "type": "function"
    },
    {
      "inputs": [],
      "name": "symbol",
      "outputs": [
        {
          "internalType": "string",
          "name": "",
          "type": "string"
        }
      ],
      "stateMutability": "view",
      "type": "function"
    },
    {
      "inputs": [
        {
          "internalType": "uint256",
          "name": "tokenId",
          "type": "uint256"
        }
      ],
      "name": "tokenURI",
      "outputs": [
        {
          "internalType": "string",
          "name": "",
          "type": "string"
        }
      ],
      "stateMutability": "view",
      "type": "function"
    },
    {
      "inputs": [
        {
          "internalType": "uint256",
          "name": "",
          "type": "uint256"
        }
      ],
      "name": "tokensMapping",
      "outputs": [
        {
          "internalType": "uint256",
          "name": "tokenId",
          "type": "uint256"
        },
        {
          "internalType": "uint256",
          "name": "price",
          "type": "uint256"
        },
        {
          "internalType": "uint256",
          "name": "registeredOn",
          "type": "uint256"
        },
        {
          "internalType": "uint256",
          "name": "expiresOn",
          "type": "uint256"
        },
        {
          "internalType": "address",
          "name": "owner",
          "type": "address"
        },
        {
          "internalType": "enum LicenseState",
          "name": "state",
          "type": "uint8"
        }
      ],
      "stateMutability": "view",
      "type": "function"
    },
    {
      "inputs": [],
      "name": "totalSupply",
      "outputs": [
        {
          "internalType": "uint256",
          "name": "total",
          "type": "uint256"
        }
      ],
      "stateMutability": "view",
      "type": "function"
    },
    {
      "inputs": [
        {
          "internalType": "address",
          "name": "from",
          "type": "address"
        },
        {
          "internalType": "address",
          "name": "to",
          "type": "address"
        },
        {
          "internalType": "uint256",
          "name": "tokenId",
          "type": "uint256"
        }
      ],
      "name": "transferFrom",
      "outputs": [],
      "stateMutability": "nonpayable",
      "type": "function"
    },
    {
      "inputs": [
        {
          "internalType": "address",
          "name": "newOwner",
          "type": "address"
        }
      ],
      "name": "transferOwnership",
      "outputs": [],
      "stateMutability": "nonpayable",
      "type": "function"
    },
    {
      "inputs": [],
      "name": "unpause",
      "outputs": [],
      "stateMutability": "nonpayable",
      "type": "function"
    },
    {
      "inputs": [
        {
          "internalType": "uint256",
          "name": "_tokenId",
          "type": "uint256"
        }
      ],
      "name": "verify",
      "outputs": [
        {
          "internalType": "uint256",
          "name": "state",
          "type": "uint256"
        }
      ],
      "stateMutability": "nonpayable",
      "type": "function"
    },
    {
      "inputs": [],
      "name": "withdraw",
      "outputs": [],
      "stateMutability": "nonpayable",
      "type": "function"
    }
  ],
  "bytecode": "0x60806040523480156200001157600080fd5b5060405162004d0638038062004d0683398181016040528101906200003791906200039c565b806000015181602001518160009080519060200190620000599291906200019b565b508060019080519060200190620000729291906200019b565b5050506000600660006101000a81548160ff021916908315150217905550620000b0620000a4620000cd60201b60201c565b620000d560201b60201c565b806040015160088190555080606001516009819055505062000599565b600033905090565b6000600660019054906101000a900473ffffffffffffffffffffffffffffffffffffffff16905081600660016101000a81548173ffffffffffffffffffffffffffffffffffffffff021916908373ffffffffffffffffffffffffffffffffffffffff1602179055508173ffffffffffffffffffffffffffffffffffffffff168173ffffffffffffffffffffffffffffffffffffffff167f8be0079c531659141344cd1fd0a4f28419497f9722a3daafe3b4186f6b6457e060405160405180910390a35050565b828054620001a9906200048a565b90600052602060002090601f016020900481019282620001cd576000855562000219565b82601f10620001e857805160ff191683800117855562000219565b8280016001018555821562000219579182015b8281111562000218578251825591602001919060010190620001fb565b5b5090506200022891906200022c565b5090565b5b80821115620002475760008160009055506001016200022d565b5090565b6000620002626200025c846200040a565b620003e1565b9050828152602081018484840111156200027b57600080fd5b6200028884828562000454565b509392505050565b600081519050620002a18162000565565b92915050565b600082601f830112620002b957600080fd5b8151620002cb8482602086016200024b565b91505092915050565b600060808284031215620002e757600080fd5b620002f36080620003e1565b9050600082015167ffffffffffffffff8111156200031057600080fd5b6200031e84828501620002a7565b600083015250602082015167ffffffffffffffff8111156200033f57600080fd5b6200034d84828501620002a7565b6020830152506040620003638482850162000385565b6040830152506060620003798482850162000290565b60608301525092915050565b60008151905062000396816200057f565b92915050565b600060208284031215620003af57600080fd5b600082015167ffffffffffffffff811115620003ca57600080fd5b620003d884828501620002d4565b91505092915050565b6000620003ed62000400565b9050620003fb8282620004c0565b919050565b6000604051905090565b600067ffffffffffffffff82111562000428576200042762000525565b5b620004338262000554565b9050602081019050919050565b6000819050919050565b6000819050919050565b60005b838110156200047457808201518184015260208101905062000457565b8381111562000484576000848401525b50505050565b60006002820490506001821680620004a357607f821691505b60208210811415620004ba57620004b9620004f6565b5b50919050565b620004cb8262000554565b810181811067ffffffffffffffff82111715620004ed57620004ec62000525565b5b80604052505050565b7f4e487b7100000000000000000000000000000000000000000000000000000000600052602260045260246000fd5b7f4e487b7100000000000000000000000000000000000000000000000000000000600052604160045260246000fd5b6000601f19601f8301169050919050565b620005708162000440565b81146200057c57600080fd5b50565b6200058a816200044a565b81146200059657600080fd5b50565b61475d80620005a96000396000f3fe6080604052600436106101ee5760003560e01c806370a082311161010d578063a1d0ab69116100a0578063b88d4fde1161006f578063b88d4fde146106bb578063ba7393d0146106e4578063c87b56dd14610702578063e985e9c51461073f578063f2fde38b1461077c576101ee565b8063a1d0ab6914610601578063a22cb4651461063e578063aa3ec0a914610667578063b260c42a14610692576101ee565b80638da5cb5b116100dc5780638da5cb5b1461055757806391b7f5ed1461058257806395d89b41146105ab578063a035b1fe146105d6576101ee565b806370a08231146104af578063715018a6146104ec5780638456cb59146105035780638753367f1461051a576101ee565b806320356ea51161018557806342842e0e1161015457806342842e0e146103dc5780635c975abb1461040557806362eb7b16146104305780636352211e14610472576101ee565b806320356ea51461035c57806323b872dd146103855780633ccfd60b146103ae5780633f4ba83a146103c5576101ee565b80630dc212a7116101c15780630dc212a7146102c1578063121002ed146102ec57806317c646bf1461031557806318160ddd14610331576101ee565b806301ffc9a7146101f357806306fdde0314610230578063081812fc1461025b578063095ea7b314610298575b600080fd5b3480156101ff57600080fd5b5061021a600480360381019061021591906135b4565b6107a5565b6040516102279190613b7d565b60405180910390f35b34801561023c57600080fd5b50610245610887565b6040516102529190613bb3565b60405180910390f35b34801561026757600080fd5b50610282600480360381019061027d9190613606565b610919565b60405161028f9190613af4565b60405180910390f35b3480156102a457600080fd5b506102bf60048036038101906102ba919061354f565b61095f565b005b3480156102cd57600080fd5b506102d6610a77565b6040516102e39190613b5b565b60405180910390f35b3480156102f857600080fd5b50610313600480360381019061030e9190613658565b610a88565b005b61032f600480360381019061032a9190613606565b610ed5565b005b34801561033d57600080fd5b5061034661106b565b6040516103539190613df0565b60405180910390f35b34801561036857600080fd5b50610383600480360381019061037e919061358b565b61107c565b005b34801561039157600080fd5b506103ac60048036038101906103a79190613449565b611096565b005b3480156103ba57600080fd5b506103c36110f6565b005b3480156103d157600080fd5b506103da6111c4565b005b3480156103e857600080fd5b5061040360048036038101906103fe9190613449565b6111d6565b005b34801561041157600080fd5b5061041a6111f6565b6040516104279190613b7d565b60405180910390f35b34801561043c57600080fd5b5061045760048036038101906104529190613606565b61120d565b60405161046996959493929190613e34565b60405180910390f35b34801561047e57600080fd5b5061049960048036038101906104949190613606565b611276565b6040516104a69190613af4565b60405180910390f35b3480156104bb57600080fd5b506104d660048036038101906104d191906133bb565b611328565b6040516104e39190613df0565b60405180910390f35b3480156104f857600080fd5b506105016113e0565b005b34801561050f57600080fd5b506105186113f4565b005b34801561052657600080fd5b50610541600480360381019061053c9190613606565b611406565b60405161054e9190613df0565b60405180910390f35b34801561056357600080fd5b5061056c61185a565b6040516105799190613af4565b60405180910390f35b34801561058e57600080fd5b506105a960048036038101906105a49190613606565b611884565b005b3480156105b757600080fd5b506105c061189e565b6040516105cd9190613bb3565b60405180910390f35b3480156105e257600080fd5b506105eb611930565b6040516105f89190613df0565b60405180910390f35b34801561060d57600080fd5b5061062860048036038101906106239190613606565b611936565b6040516106359190613dd5565b60405180910390f35b34801561064a57600080fd5b5061066560048036038101906106609190613513565b611a68565b005b34801561067357600080fd5b5061067c611a7e565b6040516106899190613b98565b60405180910390f35b34801561069e57600080fd5b506106b960048036038101906106b49190613606565b611a84565b005b3480156106c757600080fd5b506106e260048036038101906106dd9190613498565b611d9f565b005b6106ec611e01565b6040516106f99190613df0565b60405180910390f35b34801561070e57600080fd5b5061072960048036038101906107249190613606565b612148565b6040516107369190613bb3565b60405180910390f35b34801561074b57600080fd5b506107666004803603810190610761919061340d565b6121b0565b6040516107739190613b7d565b60405180910390f35b34801561078857600080fd5b506107a3600480360381019061079e91906133bb565b612244565b005b60007f80ac58cd000000000000000000000000000000000000000000000000000000007bffffffffffffffffffffffffffffffffffffffffffffffffffffffff1916827bffffffffffffffffffffffffffffffffffffffffffffffffffffffff1916148061087057507f5b5e139f000000000000000000000000000000000000000000000000000000007bffffffffffffffffffffffffffffffffffffffffffffffffffffffff1916827bffffffffffffffffffffffffffffffffffffffffffffffffffffffff1916145b80610880575061087f826122c8565b5b9050919050565b60606000805461089690614107565b80601f01602080910402602001604051908101604052809291908181526020018280546108c290614107565b801561090f5780601f106108e45761010080835404028352916020019161090f565b820191906000526020600020905b8154815290600101906020018083116108f257829003601f168201915b5050505050905090565b600061092482612332565b6004600083815260200190815260200160002060009054906101000a900473ffffffffffffffffffffffffffffffffffffffff169050919050565b600061096a82611276565b90508073ffffffffffffffffffffffffffffffffffffffff168373ffffffffffffffffffffffffffffffffffffffff1614156109db576040517f08c379a00000000000000000000000000000000000000000000000000000000081526004016109d290613d95565b60405180910390fd5b8073ffffffffffffffffffffffffffffffffffffffff166109fa61237d565b73ffffffffffffffffffffffffffffffffffffffff161480610a295750610a2881610a2361237d565b6121b0565b5b610a68576040517f08c379a0000000000000000000000000000000000000000000000000000000008152600401610a5f90613d15565b60405180910390fd5b610a728383612385565b505050565b6060610a83600a61243e565b905090565b610a9061245f565b3073ffffffffffffffffffffffffffffffffffffffff16636352211e836040518263ffffffff1660e01b8152600401610ac99190613df0565b60206040518083038186803b158015610ae157600080fd5b505afa158015610af5573d6000803e3d6000fd5b505050506040513d601f19601f82011682018060405250810190610b1991906133e4565b73ffffffffffffffffffffffffffffffffffffffff163373ffffffffffffffffffffffffffffffffffffffff1614610b7d576040517f8b5701f700000000000000000000000000000000000000000000000000000000815260040160405180910390fd5b610b86826124a9565b610bc5576040517f5ada8afd000000000000000000000000000000000000000000000000000000008152600401610bbc90613cb5565b60405180910390fd5b6000600c60008481526020019081526020016000206040518060c0016040529081600082015481526020016001820154815260200160028201548152602001600382015481526020016004820160009054906101000a900473ffffffffffffffffffffffffffffffffffffffff1673ffffffffffffffffffffffffffffffffffffffff1673ffffffffffffffffffffffffffffffffffffffff1681526020016004820160149054906101000a900460ff166003811115610cae577f4e487b7100000000000000000000000000000000000000000000000000000000600052602160045260246000fd5b6003811115610ce6577f4e487b7100000000000000000000000000000000000000000000000000000000600052602160045260246000fd5b81525050905060016003811115610d26577f4e487b7100000000000000000000000000000000000000000000000000000000600052602160045260246000fd5b8160a001516003811115610d63577f4e487b7100000000000000000000000000000000000000000000000000000000600052602160045260246000fd5b14610d6d57600080fd5b60028160a001906003811115610dac577f4e487b7100000000000000000000000000000000000000000000000000000000600052602160045260246000fd5b90816003811115610de6577f4e487b7100000000000000000000000000000000000000000000000000000000600052602160045260246000fd5b815250508181602001818152505080600c60008581526020019081526020016000206000820151816000015560208201518160010155604082015181600201556060820151816003015560808201518160040160006101000a81548173ffffffffffffffffffffffffffffffffffffffff021916908373ffffffffffffffffffffffffffffffffffffffff16021790555060a08201518160040160146101000a81548160ff02191690836003811115610ec8577f4e487b7100000000000000000000000000000000000000000000000000000000600052602160045260246000fd5b0217905550905050505050565b610ede816124a9565b610f1d576040517f5ada8afd000000000000000000000000000000000000000000000000000000008152600401610f1490613cb5565b60405180910390fd5b6000600c600083815260200190815260200160002090508060010154341015610f83578060010154346040517f84c8b7c9000000000000000000000000000000000000000000000000000000008152600401610f7a929190613e0b565b60405180910390fd5b60003073ffffffffffffffffffffffffffffffffffffffff16636352211e846040518263ffffffff1660e01b8152600401610fbe9190613df0565b60206040518083038186803b158015610fd657600080fd5b505afa158015610fea573d6000803e3d6000fd5b505050506040513d601f19601f8201168201806040525081019061100e91906133e4565b905061101b813385612515565b8073ffffffffffffffffffffffffffffffffffffffff166108fc83600101549081150290604051600060405180830381858888f19350505050158015611065573d6000803e3d6000fd5b50505050565b6000611077600761277c565b905090565b61108461278a565b61108c61245f565b8060098190555050565b6110a76110a161237d565b82612808565b6110e6576040517f08c379a00000000000000000000000000000000000000000000000000000000081526004016110dd90613db5565b60405180910390fd5b6110f1838383612515565b505050565b6110fe61278a565b3073ffffffffffffffffffffffffffffffffffffffff16638da5cb5b6040518163ffffffff1660e01b815260040160206040518083038186803b15801561114457600080fd5b505afa158015611158573d6000803e3d6000fd5b505050506040513d601f19601f8201168201806040525081019061117c91906133e4565b73ffffffffffffffffffffffffffffffffffffffff166108fc479081150290604051600060405180830381858888f193505050501580156111c1573d6000803e3d6000fd5b50565b6111cc61278a565b6111d461289d565b565b6111f183838360405180602001604052806000815250611d9f565b505050565b6000600660009054906101000a900460ff16905090565b600c6020528060005260406000206000915090508060000154908060010154908060020154908060030154908060040160009054906101000a900473ffffffffffffffffffffffffffffffffffffffff16908060040160149054906101000a900460ff16905086565b6000806002600084815260200190815260200160002060009054906101000a900473ffffffffffffffffffffffffffffffffffffffff169050600073ffffffffffffffffffffffffffffffffffffffff168173ffffffffffffffffffffffffffffffffffffffff16141561131f576040517f08c379a000000000000000000000000000000000000000000000000000000000815260040161131690613d75565b60405180910390fd5b80915050919050565b60008073ffffffffffffffffffffffffffffffffffffffff168273ffffffffffffffffffffffffffffffffffffffff161415611399576040517f08c379a000000000000000000000000000000000000000000000000000000000815260040161139090613cf5565b60405180910390fd5b600360008373ffffffffffffffffffffffffffffffffffffffff1673ffffffffffffffffffffffffffffffffffffffff168152602001908152602001600020549050919050565b6113e861278a565b6113f26000612900565b565b6113fc61278a565b6114046129c6565b565b600080600c60008481526020019081526020016000206040518060c0016040529081600082015481526020016001820154815260200160028201548152602001600382015481526020016004820160009054906101000a900473ffffffffffffffffffffffffffffffffffffffff1673ffffffffffffffffffffffffffffffffffffffff1673ffffffffffffffffffffffffffffffffffffffff1681526020016004820160149054906101000a900460ff1660038111156114f0577f4e487b7100000000000000000000000000000000000000000000000000000000600052602160045260246000fd5b6003811115611528577f4e487b7100000000000000000000000000000000000000000000000000000000600052602160045260246000fd5b8152505090503073ffffffffffffffffffffffffffffffffffffffff16636352211e846040518263ffffffff1660e01b81526004016115679190613df0565b60206040518083038186803b15801561157f57600080fd5b505afa158015611593573d6000803e3d6000fd5b505050506040513d601f19601f820116820180604052508101906115b791906133e4565b73ffffffffffffffffffffffffffffffffffffffff163373ffffffffffffffffffffffffffffffffffffffff16146115ee57600080fd5b428160600151108015611675575060016003811115611636577f4e487b7100000000000000000000000000000000000000000000000000000000600052602160045260246000fd5b8160a001516003811115611673577f4e487b7100000000000000000000000000000000000000000000000000000000600052602160045260246000fd5b145b156118145760038160a0019060038111156116b9577f4e487b7100000000000000000000000000000000000000000000000000000000600052602160045260246000fd5b908160038111156116f3577f4e487b7100000000000000000000000000000000000000000000000000000000600052602160045260246000fd5b8152505080600c60008581526020019081526020016000206000820151816000015560208201518160010155604082015181600201556060820151816003015560808201518160040160006101000a81548173ffffffffffffffffffffffffffffffffffffffff021916908373ffffffffffffffffffffffffffffffffffffffff16021790555060a08201518160040160146101000a81548160ff021916908360038111156117cb577f4e487b7100000000000000000000000000000000000000000000000000000000600052602160045260246000fd5b021790555090505060038081111561180c577f4e487b7100000000000000000000000000000000000000000000000000000000600052602160045260246000fd5b915050611855565b8060a001516003811115611851577f4e487b7100000000000000000000000000000000000000000000000000000000600052602160045260246000fd5b9150505b919050565b6000600660019054906101000a900473ffffffffffffffffffffffffffffffffffffffff16905090565b61188c61278a565b61189461245f565b8060088190555050565b6060600180546118ad90614107565b80601f01602080910402602001604051908101604052809291908181526020018280546118d990614107565b80156119265780601f106118fb57610100808354040283529160200191611926565b820191906000526020600020905b81548152906001019060200180831161190957829003601f168201915b5050505050905090565b60085481565b61193e613227565b600c60008381526020019081526020016000206040518060c0016040529081600082015481526020016001820154815260200160028201548152602001600382015481526020016004820160009054906101000a900473ffffffffffffffffffffffffffffffffffffffff1673ffffffffffffffffffffffffffffffffffffffff1673ffffffffffffffffffffffffffffffffffffffff1681526020016004820160149054906101000a900460ff166003811115611a25577f4e487b7100000000000000000000000000000000000000000000000000000000600052602160045260246000fd5b6003811115611a5d577f4e487b7100000000000000000000000000000000000000000000000000000000600052602160045260246000fd5b815250509050919050565b611a7a611a7361237d565b8383612a29565b5050565b60095481565b3073ffffffffffffffffffffffffffffffffffffffff16636352211e826040518263ffffffff1660e01b8152600401611abd9190613df0565b60206040518083038186803b158015611ad557600080fd5b505afa158015611ae9573d6000803e3d6000fd5b505050506040513d601f19601f82011682018060405250810190611b0d91906133e4565b73ffffffffffffffffffffffffffffffffffffffff163373ffffffffffffffffffffffffffffffffffffffff1614611b71576040517f8b5701f700000000000000000000000000000000000000000000000000000000815260040160405180910390fd5b6000600c60008381526020019081526020016000209050600081600201541415611b9a57600080fd5b60006003811115611bd4577f4e487b7100000000000000000000000000000000000000000000000000000000600052602160045260246000fd5b8160040160149054906101000a900460ff166003811115611c1e577f4e487b7100000000000000000000000000000000000000000000000000000000600052602160045260246000fd5b14611c2857600080fd5b60018160040160146101000a81548160ff02191690836003811115611c76577f4e487b7100000000000000000000000000000000000000000000000000000000600052602160045260246000fd5b021790555080600c6000848152602001908152602001600020600082015481600001556001820154816001015560028201548160020155600382015481600301556004820160009054906101000a900473ffffffffffffffffffffffffffffffffffffffff168160040160006101000a81548173ffffffffffffffffffffffffffffffffffffffff021916908373ffffffffffffffffffffffffffffffffffffffff1602179055506004820160149054906101000a900460ff168160040160146101000a81548160ff02191690836003811115611d7c577f4e487b7100000000000000000000000000000000000000000000000000000000600052602160045260246000fd5b021790555090505062278d0042611d939190613f67565b81600301819055505050565b611db0611daa61237d565b83612808565b611def576040517f08c379a0000000000000000000000000000000000000000000000000000000008152600401611de690613db5565b60405180910390fd5b611dfb84848484612b96565b50505050565b60003073ffffffffffffffffffffffffffffffffffffffff1663a035b1fe6040518163ffffffff1660e01b815260040160206040518083038186803b158015611e4957600080fd5b505afa158015611e5d573d6000803e3d6000fd5b505050506040513d601f19601f82011682018060405250810190611e81919061362f565b341015611f44573073ffffffffffffffffffffffffffffffffffffffff1663a035b1fe6040518163ffffffff1660e01b815260040160206040518083038186803b158015611ece57600080fd5b505afa158015611ee2573d6000803e3d6000fd5b505050506040513d601f19601f82011682018060405250810190611f06919061362f565b346040517f84c8b7c9000000000000000000000000000000000000000000000000000000008152600401611f3b929190613e0b565b60405180910390fd5b6000611f50600761277c565b905060006040518060c001604052808381526020013073ffffffffffffffffffffffffffffffffffffffff1663a035b1fe6040518163ffffffff1660e01b815260040160206040518083038186803b158015611fab57600080fd5b505afa158015611fbf573d6000803e3d6000fd5b505050506040513d601f19601f82011682018060405250810190611fe3919061362f565b8152602001428152602001600081526020013373ffffffffffffffffffffffffffffffffffffffff1681526020016000600381111561204b577f4e487b7100000000000000000000000000000000000000000000000000000000600052602160045260246000fd5b815250905061205a3383612bf2565b6120646007612dcc565b80600c60008481526020019081526020016000206000820151816000015560208201518160010155604082015181600201556060820151816003015560808201518160040160006101000a81548173ffffffffffffffffffffffffffffffffffffffff021916908373ffffffffffffffffffffffffffffffffffffffff16021790555060a08201518160040160146101000a81548160ff02191690836003811115612138577f4e487b7100000000000000000000000000000000000000000000000000000000600052602160045260246000fd5b0217905550905050819250505090565b606061215382612332565b600061215d612de2565b9050600081511161217d57604051806020016040528060008152506121a8565b8061218784612df9565b604051602001612198929190613ad0565b6040516020818303038152906040525b915050919050565b6000600560008473ffffffffffffffffffffffffffffffffffffffff1673ffffffffffffffffffffffffffffffffffffffff16815260200190815260200160002060008373ffffffffffffffffffffffffffffffffffffffff1673ffffffffffffffffffffffffffffffffffffffff16815260200190815260200160002060009054906101000a900460ff16905092915050565b61224c61278a565b600073ffffffffffffffffffffffffffffffffffffffff168173ffffffffffffffffffffffffffffffffffffffff1614156122bc576040517f08c379a00000000000000000000000000000000000000000000000000000000081526004016122b390613c15565b60405180910390fd5b6122c581612900565b50565b60007f01ffc9a7000000000000000000000000000000000000000000000000000000007bffffffffffffffffffffffffffffffffffffffffffffffffffffffff1916827bffffffffffffffffffffffffffffffffffffffffffffffffffffffff1916149050919050565b61233b816124a9565b61237a576040517f08c379a000000000000000000000000000000000000000000000000000000000815260040161237190613d75565b60405180910390fd5b50565b600033905090565b816004600083815260200190815260200160002060006101000a81548173ffffffffffffffffffffffffffffffffffffffff021916908373ffffffffffffffffffffffffffffffffffffffff160217905550808273ffffffffffffffffffffffffffffffffffffffff166123f883611276565b73ffffffffffffffffffffffffffffffffffffffff167f8c5be1e5ebec7d5bd14f71427d1e84f3dd0314c0f7b2291e5b200ac8c7c3b92560405160405180910390a45050565b6060600061244e83600001612fa6565b905060608190508092505050919050565b6124676111f6565b156124a7576040517f08c379a000000000000000000000000000000000000000000000000000000000815260040161249e90613cd5565b60405180910390fd5b565b60008073ffffffffffffffffffffffffffffffffffffffff166002600084815260200190815260200160002060009054906101000a900473ffffffffffffffffffffffffffffffffffffffff1673ffffffffffffffffffffffffffffffffffffffff1614159050919050565b8273ffffffffffffffffffffffffffffffffffffffff1661253582611276565b73ffffffffffffffffffffffffffffffffffffffff161461258b576040517f08c379a000000000000000000000000000000000000000000000000000000000815260040161258290613c35565b60405180910390fd5b600073ffffffffffffffffffffffffffffffffffffffff168273ffffffffffffffffffffffffffffffffffffffff1614156125fb576040517f08c379a00000000000000000000000000000000000000000000000000000000081526004016125f290613c75565b60405180910390fd5b612606838383613002565b612611600082612385565b6001600360008573ffffffffffffffffffffffffffffffffffffffff1673ffffffffffffffffffffffffffffffffffffffff16815260200190815260200160002060008282546126619190613fee565b925050819055506001600360008473ffffffffffffffffffffffffffffffffffffffff1673ffffffffffffffffffffffffffffffffffffffff16815260200190815260200160002060008282546126b89190613f67565b92505081905550816002600083815260200190815260200160002060006101000a81548173ffffffffffffffffffffffffffffffffffffffff021916908373ffffffffffffffffffffffffffffffffffffffff160217905550808273ffffffffffffffffffffffffffffffffffffffff168473ffffffffffffffffffffffffffffffffffffffff167fddf252ad1be2c89b69c2b068fc378daa952ba7f163c4a11628f55a4df523b3ef60405160405180910390a461277783838361301a565b505050565b600081600001549050919050565b61279261237d565b73ffffffffffffffffffffffffffffffffffffffff166127b061185a565b73ffffffffffffffffffffffffffffffffffffffff1614612806576040517f08c379a00000000000000000000000000000000000000000000000000000000081526004016127fd90613d55565b60405180910390fd5b565b60008061281483611276565b90508073ffffffffffffffffffffffffffffffffffffffff168473ffffffffffffffffffffffffffffffffffffffff161480612856575061285581856121b0565b5b8061289457508373ffffffffffffffffffffffffffffffffffffffff1661287c84610919565b73ffffffffffffffffffffffffffffffffffffffff16145b91505092915050565b6128a561301f565b6000600660006101000a81548160ff0219169083151502179055507f5db9ee0a495bf2e6ff9c91a7834c1ba4fdd244a5e8aa4e537bd38aeae4b073aa6128e961237d565b6040516128f69190613af4565b60405180910390a1565b6000600660019054906101000a900473ffffffffffffffffffffffffffffffffffffffff16905081600660016101000a81548173ffffffffffffffffffffffffffffffffffffffff021916908373ffffffffffffffffffffffffffffffffffffffff1602179055508173ffffffffffffffffffffffffffffffffffffffff168173ffffffffffffffffffffffffffffffffffffffff167f8be0079c531659141344cd1fd0a4f28419497f9722a3daafe3b4186f6b6457e060405160405180910390a35050565b6129ce61245f565b6001600660006101000a81548160ff0219169083151502179055507f62e78cea01bee320cd4e420270b5ea74000d11b0c9f74754ebdbfc544b05a258612a1261237d565b604051612a1f9190613af4565b60405180910390a1565b8173ffffffffffffffffffffffffffffffffffffffff168373ffffffffffffffffffffffffffffffffffffffff161415612a98576040517f08c379a0000000000000000000000000000000000000000000000000000000008152600401612a8f90613c95565b60405180910390fd5b80600560008573ffffffffffffffffffffffffffffffffffffffff1673ffffffffffffffffffffffffffffffffffffffff16815260200190815260200160002060008473ffffffffffffffffffffffffffffffffffffffff1673ffffffffffffffffffffffffffffffffffffffff16815260200190815260200160002060006101000a81548160ff0219169083151502179055508173ffffffffffffffffffffffffffffffffffffffff168373ffffffffffffffffffffffffffffffffffffffff167f17307eab39ab6107e8899845ad3d59bd9653f200f220920489ca2b5937696c3183604051612b899190613b7d565b60405180910390a3505050565b612ba1848484612515565b612bad84848484613068565b612bec576040517f08c379a0000000000000000000000000000000000000000000000000000000008152600401612be390613bf5565b60405180910390fd5b50505050565b600073ffffffffffffffffffffffffffffffffffffffff168273ffffffffffffffffffffffffffffffffffffffff161415612c62576040517f08c379a0000000000000000000000000000000000000000000000000000000008152600401612c5990613d35565b60405180910390fd5b612c6b816124a9565b15612cab576040517f08c379a0000000000000000000000000000000000000000000000000000000008152600401612ca290613c55565b60405180910390fd5b612cb760008383613002565b6001600360008473ffffffffffffffffffffffffffffffffffffffff1673ffffffffffffffffffffffffffffffffffffffff1681526020019081526020016000206000828254612d079190613f67565b92505081905550816002600083815260200190815260200160002060006101000a81548173ffffffffffffffffffffffffffffffffffffffff021916908373ffffffffffffffffffffffffffffffffffffffff160217905550808273ffffffffffffffffffffffffffffffffffffffff16600073ffffffffffffffffffffffffffffffffffffffff167fddf252ad1be2c89b69c2b068fc378daa952ba7f163c4a11628f55a4df523b3ef60405160405180910390a4612dc86000838361301a565b5050565b6001816000016000828254019250508190555050565b606060405180602001604052806000815250905090565b60606000821415612e41576040518060400160405280600181526020017f30000000000000000000000000000000000000000000000000000000000000008152509050612fa1565b600082905060005b60008214612e73578080612e5c9061416a565b915050600a82612e6c9190613fbd565b9150612e49565b60008167ffffffffffffffff811115612eb5577f4e487b7100000000000000000000000000000000000000000000000000000000600052604160045260246000fd5b6040519080825280601f01601f191660200182016040528015612ee75781602001600182028036833780820191505090505b5090505b60008514612f9a57600182612f009190613fee565b9150600a85612f0f91906141b3565b6030612f1b9190613f67565b60f81b818381518110612f57577f4e487b7100000000000000000000000000000000000000000000000000000000600052603260045260246000fd5b60200101907effffffffffffffffffffffffffffffffffffffffffffffffffffffffffffff1916908160001a905350600a85612f939190613fbd565b9450612eeb565b8093505050505b919050565b606081600001805480602002602001604051908101604052809291908181526020018280548015612ff657602002820191906000526020600020905b815481526020019060010190808311612fe2575b50505050509050919050565b61300a61245f565b6130158383836131ff565b505050565b505050565b6130276111f6565b613066576040517f08c379a000000000000000000000000000000000000000000000000000000000815260040161305d90613bd5565b60405180910390fd5b565b60006130898473ffffffffffffffffffffffffffffffffffffffff16613204565b156131f2578373ffffffffffffffffffffffffffffffffffffffff1663150b7a026130b261237d565b8786866040518563ffffffff1660e01b81526004016130d49493929190613b0f565b602060405180830381600087803b1580156130ee57600080fd5b505af192505050801561311f57506040513d601f19601f8201168201806040525081019061311c91906135dd565b60015b6131a2573d806000811461314f576040519150601f19603f3d011682016040523d82523d6000602084013e613154565b606091505b5060008151141561319a576040517f08c379a000000000000000000000000000000000000000000000000000000000815260040161319190613bf5565b60405180910390fd5b805181602001fd5b63150b7a0260e01b7bffffffffffffffffffffffffffffffffffffffffffffffffffffffff1916817bffffffffffffffffffffffffffffffffffffffffffffffffffffffff1916149150506131f7565b600190505b949350505050565b505050565b6000808273ffffffffffffffffffffffffffffffffffffffff163b119050919050565b6040518060c0016040528060008152602001600081526020016000815260200160008152602001600073ffffffffffffffffffffffffffffffffffffffff168152602001600060038111156132a5577f4e487b7100000000000000000000000000000000000000000000000000000000600052602160045260246000fd5b81525090565b60006132be6132b984613eba565b613e95565b9050828152602081018484840111156132d657600080fd5b6132e18482856140c5565b509392505050565b6000813590506132f8816146b4565b92915050565b60008151905061330d816146b4565b92915050565b600081359050613322816146cb565b92915050565b600081359050613337816146e2565b92915050565b60008135905061334c816146f9565b92915050565b600081519050613361816146f9565b92915050565b600082601f83011261337857600080fd5b81356133888482602086016132ab565b91505092915050565b6000813590506133a081614710565b92915050565b6000815190506133b581614710565b92915050565b6000602082840312156133cd57600080fd5b60006133db848285016132e9565b91505092915050565b6000602082840312156133f657600080fd5b6000613404848285016132fe565b91505092915050565b6000806040838503121561342057600080fd5b600061342e858286016132e9565b925050602061343f858286016132e9565b9150509250929050565b60008060006060848603121561345e57600080fd5b600061346c868287016132e9565b935050602061347d868287016132e9565b925050604061348e86828701613391565b9150509250925092565b600080600080608085870312156134ae57600080fd5b60006134bc878288016132e9565b94505060206134cd878288016132e9565b93505060406134de87828801613391565b925050606085013567ffffffffffffffff8111156134fb57600080fd5b61350787828801613367565b91505092959194509250565b6000806040838503121561352657600080fd5b6000613534858286016132e9565b925050602061354585828601613313565b9150509250929050565b6000806040838503121561356257600080fd5b6000613570858286016132e9565b925050602061358185828601613391565b9150509250929050565b60006020828403121561359d57600080fd5b60006135ab84828501613328565b91505092915050565b6000602082840312156135c657600080fd5b60006135d48482850161333d565b91505092915050565b6000602082840312156135ef57600080fd5b60006135fd84828501613352565b91505092915050565b60006020828403121561361857600080fd5b600061362684828501613391565b91505092915050565b60006020828403121561364157600080fd5b600061364f848285016133a6565b91505092915050565b6000806040838503121561366b57600080fd5b600061367985828601613391565b925050602061368a85828601613391565b9150509250929050565b60006136a08383613ab2565b60208301905092915050565b6136b581614022565b82525050565b6136c481614022565b82525050565b60006136d582613efb565b6136df8185613f29565b93506136ea83613eeb565b8060005b8381101561371b5781516137028882613694565b975061370d83613f1c565b9250506001810190506136ee565b5085935050505092915050565b61373181614034565b82525050565b61374081614040565b82525050565b600061375182613f06565b61375b8185613f3a565b935061376b8185602086016140d4565b613774816142cf565b840191505092915050565b613788816140b3565b82525050565b613797816140b3565b82525050565b60006137a882613f11565b6137b28185613f4b565b93506137c28185602086016140d4565b6137cb816142cf565b840191505092915050565b60006137e182613f11565b6137eb8185613f5c565b93506137fb8185602086016140d4565b80840191505092915050565b6000613814601483613f4b565b915061381f826142e0565b602082019050919050565b6000613837603283613f4b565b915061384282614309565b604082019050919050565b600061385a602683613f4b565b915061386582614358565b604082019050919050565b600061387d602583613f4b565b9150613888826143a7565b604082019050919050565b60006138a0601c83613f4b565b91506138ab826143f6565b602082019050919050565b60006138c3602483613f4b565b91506138ce8261441f565b604082019050919050565b60006138e6601983613f4b565b91506138f18261446e565b602082019050919050565b6000613909600783613f4b565b915061391482614497565b602082019050919050565b600061392c601083613f4b565b9150613937826144c0565b602082019050919050565b600061394f602983613f4b565b915061395a826144e9565b604082019050919050565b6000613972603e83613f4b565b915061397d82614538565b604082019050919050565b6000613995602083613f4b565b91506139a082614587565b602082019050919050565b60006139b8602083613f4b565b91506139c3826145b0565b602082019050919050565b60006139db601883613f4b565b91506139e6826145d9565b602082019050919050565b60006139fe602183613f4b565b9150613a0982614602565b604082019050919050565b6000613a21602e83613f4b565b9150613a2c82614651565b604082019050919050565b60c082016000820151613a4d6000850182613ab2565b506020820151613a606020850182613ab2565b506040820151613a736040850182613ab2565b506060820151613a866060850182613ab2565b506080820151613a9960808501826136ac565b5060a0820151613aac60a085018261377f565b50505050565b613abb816140a9565b82525050565b613aca816140a9565b82525050565b6000613adc82856137d6565b9150613ae882846137d6565b91508190509392505050565b6000602082019050613b0960008301846136bb565b92915050565b6000608082019050613b2460008301876136bb565b613b3160208301866136bb565b613b3e6040830185613ac1565b8181036060830152613b508184613746565b905095945050505050565b60006020820190508181036000830152613b7581846136ca565b905092915050565b6000602082019050613b926000830184613728565b92915050565b6000602082019050613bad6000830184613737565b92915050565b60006020820190508181036000830152613bcd818461379d565b905092915050565b60006020820190508181036000830152613bee81613807565b9050919050565b60006020820190508181036000830152613c0e8161382a565b9050919050565b60006020820190508181036000830152613c2e8161384d565b9050919050565b60006020820190508181036000830152613c4e81613870565b9050919050565b60006020820190508181036000830152613c6e81613893565b9050919050565b60006020820190508181036000830152613c8e816138b6565b9050919050565b60006020820190508181036000830152613cae816138d9565b9050919050565b60006020820190508181036000830152613cce816138fc565b9050919050565b60006020820190508181036000830152613cee8161391f565b9050919050565b60006020820190508181036000830152613d0e81613942565b9050919050565b60006020820190508181036000830152613d2e81613965565b9050919050565b60006020820190508181036000830152613d4e81613988565b9050919050565b60006020820190508181036000830152613d6e816139ab565b9050919050565b60006020820190508181036000830152613d8e816139ce565b9050919050565b60006020820190508181036000830152613dae816139f1565b9050919050565b60006020820190508181036000830152613dce81613a14565b9050919050565b600060c082019050613dea6000830184613a37565b92915050565b6000602082019050613e056000830184613ac1565b92915050565b6000604082019050613e206000830185613ac1565b613e2d6020830184613ac1565b9392505050565b600060c082019050613e496000830189613ac1565b613e566020830188613ac1565b613e636040830187613ac1565b613e706060830186613ac1565b613e7d60808301856136bb565b613e8a60a083018461378e565b979650505050505050565b6000613e9f613eb0565b9050613eab8282614139565b919050565b6000604051905090565b600067ffffffffffffffff821115613ed557613ed46142a0565b5b613ede826142cf565b9050602081019050919050565b6000819050602082019050919050565b600081519050919050565b600081519050919050565b600081519050919050565b6000602082019050919050565b600082825260208201905092915050565b600082825260208201905092915050565b600082825260208201905092915050565b600081905092915050565b6000613f72826140a9565b9150613f7d836140a9565b9250827fffffffffffffffffffffffffffffffffffffffffffffffffffffffffffffffff03821115613fb257613fb16141e4565b5b828201905092915050565b6000613fc8826140a9565b9150613fd3836140a9565b925082613fe357613fe2614213565b5b828204905092915050565b6000613ff9826140a9565b9150614004836140a9565b925082821015614017576140166141e4565b5b828203905092915050565b600061402d82614089565b9050919050565b60008115159050919050565b6000819050919050565b60007fffffffff0000000000000000000000000000000000000000000000000000000082169050919050565b6000819050614084826146a0565b919050565b600073ffffffffffffffffffffffffffffffffffffffff82169050919050565b6000819050919050565b60006140be82614076565b9050919050565b82818337600083830152505050565b60005b838110156140f25780820151818401526020810190506140d7565b83811115614101576000848401525b50505050565b6000600282049050600182168061411f57607f821691505b6020821081141561413357614132614271565b5b50919050565b614142826142cf565b810181811067ffffffffffffffff82111715614161576141606142a0565b5b80604052505050565b6000614175826140a9565b91507fffffffffffffffffffffffffffffffffffffffffffffffffffffffffffffffff8214156141a8576141a76141e4565b5b600182019050919050565b60006141be826140a9565b91506141c9836140a9565b9250826141d9576141d8614213565b5b828206905092915050565b7f4e487b7100000000000000000000000000000000000000000000000000000000600052601160045260246000fd5b7f4e487b7100000000000000000000000000000000000000000000000000000000600052601260045260246000fd5b7f4e487b7100000000000000000000000000000000000000000000000000000000600052602160045260246000fd5b7f4e487b7100000000000000000000000000000000000000000000000000000000600052602260045260246000fd5b7f4e487b7100000000000000000000000000000000000000000000000000000000600052604160045260246000fd5b6000601f19601f8301169050919050565b7f5061757361626c653a206e6f7420706175736564000000000000000000000000600082015250565b7f4552433732313a207472616e7366657220746f206e6f6e20455243373231526560008201527f63656976657220696d706c656d656e7465720000000000000000000000000000602082015250565b7f4f776e61626c653a206e6577206f776e657220697320746865207a65726f206160008201527f6464726573730000000000000000000000000000000000000000000000000000602082015250565b7f4552433732313a207472616e736665722066726f6d20696e636f72726563742060008201527f6f776e6572000000000000000000000000000000000000000000000000000000602082015250565b7f4552433732313a20746f6b656e20616c7265616479206d696e74656400000000600082015250565b7f4552433732313a207472616e7366657220746f20746865207a65726f2061646460008201527f7265737300000000000000000000000000000000000000000000000000000000602082015250565b7f4552433732313a20617070726f766520746f2063616c6c657200000000000000600082015250565b7f746f6b656e496400000000000000000000000000000000000000000000000000600082015250565b7f5061757361626c653a2070617573656400000000000000000000000000000000600082015250565b7f4552433732313a2061646472657373207a65726f206973206e6f74206120766160008201527f6c6964206f776e65720000000000000000000000000000000000000000000000602082015250565b7f4552433732313a20617070726f76652063616c6c6572206973206e6f7420746f60008201527f6b656e206f776e6572206e6f7220617070726f76656420666f7220616c6c0000602082015250565b7f4552433732313a206d696e7420746f20746865207a65726f2061646472657373600082015250565b7f4f776e61626c653a2063616c6c6572206973206e6f7420746865206f776e6572600082015250565b7f4552433732313a20696e76616c696420746f6b656e2049440000000000000000600082015250565b7f4552433732313a20617070726f76616c20746f2063757272656e74206f776e6560008201527f7200000000000000000000000000000000000000000000000000000000000000602082015250565b7f4552433732313a2063616c6c6572206973206e6f7420746f6b656e206f776e6560008201527f72206e6f7220617070726f766564000000000000000000000000000000000000602082015250565b600481106146b1576146b0614242565b5b50565b6146bd81614022565b81146146c857600080fd5b50565b6146d481614034565b81146146df57600080fd5b50565b6146eb81614040565b81146146f657600080fd5b50565b6147028161404a565b811461470d57600080fd5b50565b614719816140a9565b811461472457600080fd5b5056fea26469706673582212207f77d19efc55b926e63359233bb7049fccc8b6fe46674c37239df3604c907ce664736f6c63430008040033",
  "linkReferences": {},
  "deployedLinkReferences": {}
}