{
  "_format": "hh-sol-artifact-1",
  "contractName": "License",
  "sourceName": "contracts/License.sol",
  "abi": [
    {
      "inputs": [
        {
          "components": [
            {
              "internalType": "string",
              "name": "name",
              "type": "string"
            },
            {
              "internalType": "string",
              "name": "symbol",
              "type": "string"
            },
            {
              "internalType": "uint256",
              "name": "price",
              "type": "uint256"
            },
            {
              "internalType": "bytes32",
              "name": "cid",
              "type": "bytes32"
            }
          ],
          "internalType": "struct CreateLicenseRequest",
          "name": "request",
          "type": "tuple"
        }
      ],
      "stateMutability": "nonpayable",
      "type": "constructor"
    },
    {
      "inputs": [
        {
          "internalType": "uint256",
          "name": "expectedAmount",
          "type": "uint256"
        },
        {
          "internalType": "uint256",
          "name": "actualAmount",
          "type": "uint256"
        }
      ],
      "name": "InsufficientBalanceError",
      "type": "error"
    },
    {
      "inputs": [
        {
          "internalType": "string",
          "name": "name",
          "type": "string"
        }
      ],
      "name": "NotExistedResourceError",
      "type": "error"
    },
    {
      "inputs": [],
      "name": "UnauthorizedError",
      "type": "error"
    },
    {
      "anonymous": false,
      "inputs": [
        {
          "indexed": true,
          "internalType": "address",
          "name": "owner",
          "type": "address"
        },
        {
          "indexed": true,
          "internalType": "address",
          "name": "approved",
          "type": "address"
        },
        {
          "indexed": true,
          "internalType": "uint256",
          "name": "tokenId",
          "type": "uint256"
        }
      ],
      "name": "Approval",
      "type": "event"
    },
    {
      "anonymous": false,
      "inputs": [
        {
          "indexed": true,
          "internalType": "address",
          "name": "owner",
          "type": "address"
        },
        {
          "indexed": true,
          "internalType": "address",
          "name": "operator",
          "type": "address"
        },
        {
          "indexed": false,
          "internalType": "bool",
          "name": "approved",
          "type": "bool"
        }
      ],
      "name": "ApprovalForAll",
      "type": "event"
    },
    {
      "anonymous": false,
      "inputs": [
        {
          "indexed": true,
          "internalType": "address",
          "name": "previousOwner",
          "type": "address"
        },
        {
          "indexed": true,
          "internalType": "address",
          "name": "newOwner",
          "type": "address"
        }
      ],
      "name": "OwnershipTransferred",
      "type": "event"
    },
    {
      "anonymous": false,
      "inputs": [
        {
          "indexed": false,
          "internalType": "address",
          "name": "account",
          "type": "address"
        }
      ],
      "name": "Paused",
      "type": "event"
    },
    {
      "anonymous": false,
      "inputs": [
        {
          "indexed": true,
          "internalType": "address",
          "name": "from",
          "type": "address"
        },
        {
          "indexed": true,
          "internalType": "address",
          "name": "to",
          "type": "address"
        },
        {
          "indexed": true,
          "internalType": "uint256",
          "name": "tokenId",
          "type": "uint256"
        }
      ],
      "name": "Transfer",
      "type": "event"
    },
    {
      "anonymous": false,
      "inputs": [
        {
          "indexed": false,
          "internalType": "address",
          "name": "account",
          "type": "address"
        }
      ],
      "name": "Unpaused",
      "type": "event"
    },
    {
      "inputs": [
        {
          "internalType": "uint256",
          "name": "_tokenId",
          "type": "uint256"
        }
      ],
      "name": "activate",
      "outputs": [],
      "stateMutability": "nonpayable",
      "type": "function"
    },
    {
      "inputs": [
        {
          "internalType": "address",
          "name": "to",
          "type": "address"
        },
        {
          "internalType": "uint256",
          "name": "tokenId",
          "type": "uint256"
        }
      ],
      "name": "approve",
      "outputs": [],
      "stateMutability": "nonpayable",
      "type": "function"
    },
    {
      "inputs": [
        {
          "internalType": "address",
          "name": "owner",
          "type": "address"
        }
      ],
      "name": "balanceOf",
      "outputs": [
        {
          "internalType": "uint256",
          "name": "",
          "type": "uint256"
        }
      ],
      "stateMutability": "view",
      "type": "function"
    },
    {
      "inputs": [],
      "name": "buyLicense",
      "outputs": [
        {
          "internalType": "uint256",
          "name": "_tokenId",
          "type": "uint256"
        }
      ],
      "stateMutability": "payable",
      "type": "function"
    },
    {
      "inputs": [
        {
          "internalType": "uint256",
          "name": "_tokenId",
          "type": "uint256"
        }
      ],
      "name": "buyLicenseByTokenId",
      "outputs": [],
      "stateMutability": "payable",
      "type": "function"
    },
    {
      "inputs": [],
      "name": "cid",
      "outputs": [
        {
          "internalType": "bytes32",
          "name": "",
          "type": "bytes32"
        }
      ],
      "stateMutability": "view",
      "type": "function"
    },
    {
      "inputs": [
        {
          "internalType": "uint256",
          "name": "tokenId",
          "type": "uint256"
        }
      ],
      "name": "getApproved",
      "outputs": [
        {
          "internalType": "address",
          "name": "",
          "type": "address"
        }
      ],
      "stateMutability": "view",
      "type": "function"
    },
    {
      "inputs": [
        {
          "internalType": "uint256",
          "name": "_tokenId",
          "type": "uint256"
        }
      ],
      "name": "getLicenseByTokenId",
      "outputs": [
        {
          "components": [
            {
              "internalType": "uint256",
              "name": "tokenId",
              "type": "uint256"
            },
            {
              "internalType": "uint256",
              "name": "price",
              "type": "uint256"
            },
            {
              "internalType": "uint256",
              "name": "registeredOn",
              "type": "uint256"
            },
            {
              "internalType": "uint256",
              "name": "expiresOn",
              "type": "uint256"
            },
            {
              "internalType": "address",
              "name": "owner",
              "type": "address"
            },
            {
              "internalType": "enum LicenseState",
              "name": "state",
              "type": "uint8"
            }
          ],
          "internalType": "struct LicenseInfo",
          "name": "",
          "type": "tuple"
        }
      ],
      "stateMutability": "view",
      "type": "function"
    },
    {
      "inputs": [],
      "name": "getLicenseInfo",
      "outputs": [
        {
          "internalType": "uint256[]",
          "name": "",
          "type": "uint256[]"
        }
      ],
      "stateMutability": "view",
      "type": "function"
    },
    {
      "inputs": [
        {
          "internalType": "address",
          "name": "owner",
          "type": "address"
        },
        {
          "internalType": "address",
          "name": "operator",
          "type": "address"
        }
      ],
      "name": "isApprovedForAll",
      "outputs": [
        {
          "internalType": "bool",
          "name": "",
          "type": "bool"
        }
      ],
      "stateMutability": "view",
      "type": "function"
    },
    {
      "inputs": [],
      "name": "name",
      "outputs": [
        {
          "internalType": "string",
          "name": "",
          "type": "string"
        }
      ],
      "stateMutability": "view",
      "type": "function"
    },
    {
      "inputs": [],
      "name": "owner",
      "outputs": [
        {
          "internalType": "address",
          "name": "",
          "type": "address"
        }
      ],
      "stateMutability": "view",
      "type": "function"
    },
    {
      "inputs": [
        {
          "internalType": "uint256",
          "name": "tokenId",
          "type": "uint256"
        }
      ],
      "name": "ownerOf",
      "outputs": [
        {
          "internalType": "address",
          "name": "",
          "type": "address"
        }
      ],
      "stateMutability": "view",
      "type": "function"
    },
    {
      "inputs": [],
      "name": "pause",
      "outputs": [],
      "stateMutability": "nonpayable",
      "type": "function"
    },
    {
      "inputs": [],
      "name": "paused",
      "outputs": [
        {
          "internalType": "bool",
          "name": "",
          "type": "bool"
        }
      ],
      "stateMutability": "view",
      "type": "function"
    },
    {
      "inputs": [],
      "name": "price",
      "outputs": [
        {
          "internalType": "uint256",
          "name": "",
          "type": "uint256"
        }
      ],
      "stateMutability": "view",
      "type": "function"
    },
    {
      "inputs": [
        {
          "internalType": "uint256",
          "name": "_tokenId",
          "type": "uint256"
        },
        {
          "internalType": "uint256",
          "name": "_price",
          "type": "uint256"
        }
      ],
      "name": "putLicenseForSale",
      "outputs": [],
      "stateMutability": "nonpayable",
      "type": "function"
    },
    {
      "inputs": [],
      "name": "renounceOwnership",
      "outputs": [],
      "stateMutability": "nonpayable",
      "type": "function"
    },
    {
      "inputs": [
        {
          "internalType": "address",
          "name": "from",
          "type": "address"
        },
        {
          "internalType": "address",
          "name": "to",
          "type": "address"
        },
        {
          "internalType": "uint256",
          "name": "tokenId",
          "type": "uint256"
        }
      ],
      "name": "safeTransferFrom",
      "outputs": [],
      "stateMutability": "nonpayable",
      "type": "function"
    },
    {
      "inputs": [
        {
          "internalType": "address",
          "name": "from",
          "type": "address"
        },
        {
          "internalType": "address",
          "name": "to",
          "type": "address"
        },
        {
          "internalType": "uint256",
          "name": "tokenId",
          "type": "uint256"
        },
        {
          "internalType": "bytes",
          "name": "data",
          "type": "bytes"
        }
      ],
      "name": "safeTransferFrom",
      "outputs": [],
      "stateMutability": "nonpayable",
      "type": "function"
    },
    {
      "inputs": [
        {
          "internalType": "address",
          "name": "operator",
          "type": "address"
        },
        {
          "internalType": "bool",
          "name": "approved",
          "type": "bool"
        }
      ],
      "name": "setApprovalForAll",
      "outputs": [],
      "stateMutability": "nonpayable",
      "type": "function"
    },
    {
      "inputs": [
        {
          "internalType": "bytes32",
          "name": "_cid",
          "type": "bytes32"
        }
      ],
      "name": "setCid",
      "outputs": [],
      "stateMutability": "nonpayable",
      "type": "function"
    },
    {
      "inputs": [
        {
          "internalType": "uint256",
          "name": "_price",
          "type": "uint256"
        }
      ],
      "name": "setPrice",
      "outputs": [],
      "stateMutability": "nonpayable",
      "type": "function"
    },
    {
      "inputs": [
        {
          "internalType": "bytes4",
          "name": "interfaceId",
          "type": "bytes4"
        }
      ],
      "name": "supportsInterface",
      "outputs": [
        {
          "internalType": "bool",
          "name": "",
          "type": "bool"
        }
      ],
      "stateMutability": "view",
      "type": "function"
    },
    {
      "inputs": [],
      "name": "symbol",
      "outputs": [
        {
          "internalType": "string",
          "name": "",
          "type": "string"
        }
      ],
      "stateMutability": "view",
      "type": "function"
    },
    {
      "inputs": [
        {
          "internalType": "uint256",
          "name": "tokenId",
          "type": "uint256"
        }
      ],
      "name": "tokenURI",
      "outputs": [
        {
          "internalType": "string",
          "name": "",
          "type": "string"
        }
      ],
      "stateMutability": "view",
      "type": "function"
    },
    {
      "inputs": [
        {
          "internalType": "uint256",
          "name": "",
          "type": "uint256"
        }
      ],
      "name": "tokensMapping",
      "outputs": [
        {
          "internalType": "uint256",
          "name": "tokenId",
          "type": "uint256"
        },
        {
          "internalType": "uint256",
          "name": "price",
          "type": "uint256"
        },
        {
          "internalType": "uint256",
          "name": "registeredOn",
          "type": "uint256"
        },
        {
          "internalType": "uint256",
          "name": "expiresOn",
          "type": "uint256"
        },
        {
          "internalType": "address",
          "name": "owner",
          "type": "address"
        },
        {
          "internalType": "enum LicenseState",
          "name": "state",
          "type": "uint8"
        }
      ],
      "stateMutability": "view",
      "type": "function"
    },
    {
      "inputs": [],
      "name": "totalSupply",
      "outputs": [
        {
          "internalType": "uint256",
          "name": "total",
          "type": "uint256"
        }
      ],
      "stateMutability": "view",
      "type": "function"
    },
    {
      "inputs": [
        {
          "internalType": "address",
          "name": "from",
          "type": "address"
        },
        {
          "internalType": "address",
          "name": "to",
          "type": "address"
        },
        {
          "internalType": "uint256",
          "name": "tokenId",
          "type": "uint256"
        }
      ],
      "name": "transferFrom",
      "outputs": [],
      "stateMutability": "nonpayable",
      "type": "function"
    },
    {
      "inputs": [
        {
          "internalType": "address",
          "name": "newOwner",
          "type": "address"
        }
      ],
      "name": "transferOwnership",
      "outputs": [],
      "stateMutability": "nonpayable",
      "type": "function"
    },
    {
      "inputs": [],
      "name": "unpause",
      "outputs": [],
      "stateMutability": "nonpayable",
      "type": "function"
    },
    {
      "inputs": [
        {
          "components": [
            {
              "internalType": "string",
              "name": "name",
              "type": "string"
            },
            {
              "internalType": "string",
              "name": "symbol",
              "type": "string"
            },
            {
              "internalType": "uint256",
              "name": "price",
              "type": "uint256"
            },
            {
              "internalType": "bytes32",
              "name": "cid",
              "type": "bytes32"
            }
          ],
          "internalType": "struct CreateLicenseRequest",
          "name": "request",
          "type": "tuple"
        }
      ],
      "name": "update",
      "outputs": [],
      "stateMutability": "nonpayable",
      "type": "function"
    },
    {
      "inputs": [
        {
          "internalType": "uint256",
          "name": "_tokenId",
          "type": "uint256"
        }
      ],
      "name": "verify",
      "outputs": [
        {
          "internalType": "uint256",
          "name": "state",
          "type": "uint256"
        }
      ],
      "stateMutability": "nonpayable",
      "type": "function"
    },
    {
      "inputs": [],
      "name": "withdraw",
      "outputs": [],
      "stateMutability": "nonpayable",
      "type": "function"
    }
  ],
  "bytecode": "0x60806040523480156200001157600080fd5b5060405162004ee138038062004ee183398181016040528101906200003791906200039c565b806000015181602001518160009080519060200190620000599291906200019b565b508060019080519060200190620000729291906200019b565b5050506000600660006101000a81548160ff021916908315150217905550620000b0620000a4620000cd60201b60201c565b620000d560201b60201c565b806040015160088190555080606001516009819055505062000599565b600033905090565b6000600660019054906101000a900473ffffffffffffffffffffffffffffffffffffffff16905081600660016101000a81548173ffffffffffffffffffffffffffffffffffffffff021916908373ffffffffffffffffffffffffffffffffffffffff1602179055508173ffffffffffffffffffffffffffffffffffffffff168173ffffffffffffffffffffffffffffffffffffffff167f8be0079c531659141344cd1fd0a4f28419497f9722a3daafe3b4186f6b6457e060405160405180910390a35050565b828054620001a9906200048a565b90600052602060002090601f016020900481019282620001cd576000855562000219565b82601f10620001e857805160ff191683800117855562000219565b8280016001018555821562000219579182015b8281111562000218578251825591602001919060010190620001fb565b5b5090506200022891906200022c565b5090565b5b80821115620002475760008160009055506001016200022d565b5090565b6000620002626200025c846200040a565b620003e1565b9050828152602081018484840111156200027b57600080fd5b6200028884828562000454565b509392505050565b600081519050620002a18162000565565b92915050565b600082601f830112620002b957600080fd5b8151620002cb8482602086016200024b565b91505092915050565b600060808284031215620002e757600080fd5b620002f36080620003e1565b9050600082015167ffffffffffffffff8111156200031057600080fd5b6200031e84828501620002a7565b600083015250602082015167ffffffffffffffff8111156200033f57600080fd5b6200034d84828501620002a7565b6020830152506040620003638482850162000385565b6040830152506060620003798482850162000290565b60608301525092915050565b60008151905062000396816200057f565b92915050565b600060208284031215620003af57600080fd5b600082015167ffffffffffffffff811115620003ca57600080fd5b620003d884828501620002d4565b91505092915050565b6000620003ed62000400565b9050620003fb8282620004c0565b919050565b6000604051905090565b600067ffffffffffffffff82111562000428576200042762000525565b5b620004338262000554565b9050602081019050919050565b6000819050919050565b6000819050919050565b60005b838110156200047457808201518184015260208101905062000457565b8381111562000484576000848401525b50505050565b60006002820490506001821680620004a357607f821691505b60208210811415620004ba57620004b9620004f6565b5b50919050565b620004cb8262000554565b810181811067ffffffffffffffff82111715620004ed57620004ec62000525565b5b80604052505050565b7f4e487b7100000000000000000000000000000000000000000000000000000000600052602260045260246000fd5b7f4e487b7100000000000000000000000000000000000000000000000000000000600052604160045260246000fd5b6000601f19601f8301169050919050565b620005708162000440565b81146200057c57600080fd5b50565b6200058a816200044a565b81146200059657600080fd5b50565b61493880620005a96000396000f3fe6080604052600436106101f95760003560e01c8063715018a61161010d578063a22cb465116100a0578063ba7393d01161006f578063ba7393d0146106ef578063c1ae2df41461070d578063c87b56dd14610736578063e985e9c514610773578063f2fde38b146107b0576101f9565b8063a22cb46514610649578063aa3ec0a914610672578063b260c42a1461069d578063b88d4fde146106c6576101f9565b806391b7f5ed116100dc57806391b7f5ed1461058d57806395d89b41146105b6578063a035b1fe146105e1578063a1d0ab691461060c576101f9565b8063715018a6146104f75780638456cb591461050e5780638753367f146105255780638da5cb5b14610562576101f9565b806320356ea51161019057806342842e0e1161015f57806342842e0e146103e75780635c975abb1461041057806362eb7b161461043b5780636352211e1461047d57806370a08231146104ba576101f9565b806320356ea51461036757806323b872dd146103905780633ccfd60b146103b95780633f4ba83a146103d0576101f9565b80630dc212a7116101cc5780630dc212a7146102cc578063121002ed146102f757806317c646bf1461032057806318160ddd1461033c576101f9565b806301ffc9a7146101fe57806306fdde031461023b578063081812fc14610266578063095ea7b3146102a3575b600080fd5b34801561020a57600080fd5b506102256004803603810190610220919061371d565b6107d9565b6040516102329190613d27565b60405180910390f35b34801561024757600080fd5b506102506108bb565b60405161025d9190613d5d565b60405180910390f35b34801561027257600080fd5b5061028d600480360381019061028891906137b0565b61094d565b60405161029a9190613c9e565b60405180910390f35b3480156102af57600080fd5b506102ca60048036038101906102c591906136b8565b610993565b005b3480156102d857600080fd5b506102e1610aab565b6040516102ee9190613d05565b60405180910390f35b34801561030357600080fd5b5061031e60048036038101906103199190613802565b610abc565b005b61033a600480360381019061033591906137b0565b610f09565b005b34801561034857600080fd5b5061035161109f565b60405161035e9190613f9a565b60405180910390f35b34801561037357600080fd5b5061038e600480360381019061038991906136f4565b6110b0565b005b34801561039c57600080fd5b506103b760048036038101906103b291906135b2565b6110ca565b005b3480156103c557600080fd5b506103ce61112a565b005b3480156103dc57600080fd5b506103e56111f8565b005b3480156103f357600080fd5b5061040e600480360381019061040991906135b2565b61120a565b005b34801561041c57600080fd5b5061042561122a565b6040516104329190613d27565b60405180910390f35b34801561044757600080fd5b50610462600480360381019061045d91906137b0565b611241565b60405161047496959493929190613fde565b60405180910390f35b34801561048957600080fd5b506104a4600480360381019061049f91906137b0565b6112aa565b6040516104b19190613c9e565b60405180910390f35b3480156104c657600080fd5b506104e160048036038101906104dc9190613524565b61135c565b6040516104ee9190613f9a565b60405180910390f35b34801561050357600080fd5b5061050c611414565b005b34801561051a57600080fd5b50610523611428565b005b34801561053157600080fd5b5061054c600480360381019061054791906137b0565b61143a565b6040516105599190613f9a565b60405180910390f35b34801561056e57600080fd5b5061057761188e565b6040516105849190613c9e565b60405180910390f35b34801561059957600080fd5b506105b460048036038101906105af91906137b0565b6118b8565b005b3480156105c257600080fd5b506105cb6118d2565b6040516105d89190613d5d565b60405180910390f35b3480156105ed57600080fd5b506105f6611964565b6040516106039190613f9a565b60405180910390f35b34801561061857600080fd5b50610633600480360381019061062e91906137b0565b61196a565b6040516106409190613f7f565b60405180910390f35b34801561065557600080fd5b50610670600480360381019061066b919061367c565b611a9c565b005b34801561067e57600080fd5b50610687611ab2565b6040516106949190613d42565b60405180910390f35b3480156106a957600080fd5b506106c460048036038101906106bf91906137b0565b611ab8565b005b3480156106d257600080fd5b506106ed60048036038101906106e89190613601565b611dd3565b005b6106f7611e35565b6040516107049190613f9a565b60405180910390f35b34801561071957600080fd5b50610734600480360381019061072f919061376f565b61217c565b005b34801561074257600080fd5b5061075d600480360381019061075891906137b0565b6121a5565b60405161076a9190613d5d565b60405180910390f35b34801561077f57600080fd5b5061079a60048036038101906107959190613576565b61220d565b6040516107a79190613d27565b60405180910390f35b3480156107bc57600080fd5b506107d760048036038101906107d29190613524565b6122a1565b005b60007f80ac58cd000000000000000000000000000000000000000000000000000000007bffffffffffffffffffffffffffffffffffffffffffffffffffffffff1916827bffffffffffffffffffffffffffffffffffffffffffffffffffffffff191614806108a457507f5b5e139f000000000000000000000000000000000000000000000000000000007bffffffffffffffffffffffffffffffffffffffffffffffffffffffff1916827bffffffffffffffffffffffffffffffffffffffffffffffffffffffff1916145b806108b457506108b382612325565b5b9050919050565b6060600080546108ca906142e2565b80601f01602080910402602001604051908101604052809291908181526020018280546108f6906142e2565b80156109435780601f1061091857610100808354040283529160200191610943565b820191906000526020600020905b81548152906001019060200180831161092657829003601f168201915b5050505050905090565b60006109588261238f565b6004600083815260200190815260200160002060009054906101000a900473ffffffffffffffffffffffffffffffffffffffff169050919050565b600061099e826112aa565b90508073ffffffffffffffffffffffffffffffffffffffff168373ffffffffffffffffffffffffffffffffffffffff161415610a0f576040517f08c379a0000000000000000000000000000000000000000000000000000000008152600401610a0690613f3f565b60405180910390fd5b8073ffffffffffffffffffffffffffffffffffffffff16610a2e6123da565b73ffffffffffffffffffffffffffffffffffffffff161480610a5d5750610a5c81610a576123da565b61220d565b5b610a9c576040517f08c379a0000000000000000000000000000000000000000000000000000000008152600401610a9390613ebf565b60405180910390fd5b610aa683836123e2565b505050565b6060610ab7600a61249b565b905090565b610ac46124bc565b3073ffffffffffffffffffffffffffffffffffffffff16636352211e836040518263ffffffff1660e01b8152600401610afd9190613f9a565b60206040518083038186803b158015610b1557600080fd5b505afa158015610b29573d6000803e3d6000fd5b505050506040513d601f19601f82011682018060405250810190610b4d919061354d565b73ffffffffffffffffffffffffffffffffffffffff163373ffffffffffffffffffffffffffffffffffffffff1614610bb1576040517f8b5701f700000000000000000000000000000000000000000000000000000000815260040160405180910390fd5b610bba82612506565b610bf9576040517f5ada8afd000000000000000000000000000000000000000000000000000000008152600401610bf090613e5f565b60405180910390fd5b6000600c60008481526020019081526020016000206040518060c0016040529081600082015481526020016001820154815260200160028201548152602001600382015481526020016004820160009054906101000a900473ffffffffffffffffffffffffffffffffffffffff1673ffffffffffffffffffffffffffffffffffffffff1673ffffffffffffffffffffffffffffffffffffffff1681526020016004820160149054906101000a900460ff166003811115610ce2577f4e487b7100000000000000000000000000000000000000000000000000000000600052602160045260246000fd5b6003811115610d1a577f4e487b7100000000000000000000000000000000000000000000000000000000600052602160045260246000fd5b81525050905060016003811115610d5a577f4e487b7100000000000000000000000000000000000000000000000000000000600052602160045260246000fd5b8160a001516003811115610d97577f4e487b7100000000000000000000000000000000000000000000000000000000600052602160045260246000fd5b14610da157600080fd5b60028160a001906003811115610de0577f4e487b7100000000000000000000000000000000000000000000000000000000600052602160045260246000fd5b90816003811115610e1a577f4e487b7100000000000000000000000000000000000000000000000000000000600052602160045260246000fd5b815250508181602001818152505080600c60008581526020019081526020016000206000820151816000015560208201518160010155604082015181600201556060820151816003015560808201518160040160006101000a81548173ffffffffffffffffffffffffffffffffffffffff021916908373ffffffffffffffffffffffffffffffffffffffff16021790555060a08201518160040160146101000a81548160ff02191690836003811115610efc577f4e487b7100000000000000000000000000000000000000000000000000000000600052602160045260246000fd5b0217905550905050505050565b610f1281612506565b610f51576040517f5ada8afd000000000000000000000000000000000000000000000000000000008152600401610f4890613e5f565b60405180910390fd5b6000600c600083815260200190815260200160002090508060010154341015610fb7578060010154346040517f84c8b7c9000000000000000000000000000000000000000000000000000000008152600401610fae929190613fb5565b60405180910390fd5b60003073ffffffffffffffffffffffffffffffffffffffff16636352211e846040518263ffffffff1660e01b8152600401610ff29190613f9a565b60206040518083038186803b15801561100a57600080fd5b505afa15801561101e573d6000803e3d6000fd5b505050506040513d601f19601f82011682018060405250810190611042919061354d565b905061104f813385612572565b8073ffffffffffffffffffffffffffffffffffffffff166108fc83600101549081150290604051600060405180830381858888f19350505050158015611099573d6000803e3d6000fd5b50505050565b60006110ab60076127d9565b905090565b6110b86127e7565b6110c06124bc565b8060098190555050565b6110db6110d56123da565b82612865565b61111a576040517f08c379a000000000000000000000000000000000000000000000000000000000815260040161111190613f5f565b60405180910390fd5b611125838383612572565b505050565b6111326127e7565b3073ffffffffffffffffffffffffffffffffffffffff16638da5cb5b6040518163ffffffff1660e01b815260040160206040518083038186803b15801561117857600080fd5b505afa15801561118c573d6000803e3d6000fd5b505050506040513d601f19601f820116820180604052508101906111b0919061354d565b73ffffffffffffffffffffffffffffffffffffffff166108fc479081150290604051600060405180830381858888f193505050501580156111f5573d6000803e3d6000fd5b50565b6112006127e7565b6112086128fa565b565b61122583838360405180602001604052806000815250611dd3565b505050565b6000600660009054906101000a900460ff16905090565b600c6020528060005260406000206000915090508060000154908060010154908060020154908060030154908060040160009054906101000a900473ffffffffffffffffffffffffffffffffffffffff16908060040160149054906101000a900460ff16905086565b6000806002600084815260200190815260200160002060009054906101000a900473ffffffffffffffffffffffffffffffffffffffff169050600073ffffffffffffffffffffffffffffffffffffffff168173ffffffffffffffffffffffffffffffffffffffff161415611353576040517f08c379a000000000000000000000000000000000000000000000000000000000815260040161134a90613f1f565b60405180910390fd5b80915050919050565b60008073ffffffffffffffffffffffffffffffffffffffff168273ffffffffffffffffffffffffffffffffffffffff1614156113cd576040517f08c379a00000000000000000000000000000000000000000000000000000000081526004016113c490613e9f565b60405180910390fd5b600360008373ffffffffffffffffffffffffffffffffffffffff1673ffffffffffffffffffffffffffffffffffffffff168152602001908152602001600020549050919050565b61141c6127e7565b611426600061295d565b565b6114306127e7565b611438612a23565b565b600080600c60008481526020019081526020016000206040518060c0016040529081600082015481526020016001820154815260200160028201548152602001600382015481526020016004820160009054906101000a900473ffffffffffffffffffffffffffffffffffffffff1673ffffffffffffffffffffffffffffffffffffffff1673ffffffffffffffffffffffffffffffffffffffff1681526020016004820160149054906101000a900460ff166003811115611524577f4e487b7100000000000000000000000000000000000000000000000000000000600052602160045260246000fd5b600381111561155c577f4e487b7100000000000000000000000000000000000000000000000000000000600052602160045260246000fd5b8152505090503073ffffffffffffffffffffffffffffffffffffffff16636352211e846040518263ffffffff1660e01b815260040161159b9190613f9a565b60206040518083038186803b1580156115b357600080fd5b505afa1580156115c7573d6000803e3d6000fd5b505050506040513d601f19601f820116820180604052508101906115eb919061354d565b73ffffffffffffffffffffffffffffffffffffffff163373ffffffffffffffffffffffffffffffffffffffff161461162257600080fd5b4281606001511080156116a957506001600381111561166a577f4e487b7100000000000000000000000000000000000000000000000000000000600052602160045260246000fd5b8160a0015160038111156116a7577f4e487b7100000000000000000000000000000000000000000000000000000000600052602160045260246000fd5b145b156118485760038160a0019060038111156116ed577f4e487b7100000000000000000000000000000000000000000000000000000000600052602160045260246000fd5b90816003811115611727577f4e487b7100000000000000000000000000000000000000000000000000000000600052602160045260246000fd5b8152505080600c60008581526020019081526020016000206000820151816000015560208201518160010155604082015181600201556060820151816003015560808201518160040160006101000a81548173ffffffffffffffffffffffffffffffffffffffff021916908373ffffffffffffffffffffffffffffffffffffffff16021790555060a08201518160040160146101000a81548160ff021916908360038111156117ff577f4e487b7100000000000000000000000000000000000000000000000000000000600052602160045260246000fd5b0217905550905050600380811115611840577f4e487b7100000000000000000000000000000000000000000000000000000000600052602160045260246000fd5b915050611889565b8060a001516003811115611885577f4e487b7100000000000000000000000000000000000000000000000000000000600052602160045260246000fd5b9150505b919050565b6000600660019054906101000a900473ffffffffffffffffffffffffffffffffffffffff16905090565b6118c06127e7565b6118c86124bc565b8060088190555050565b6060600180546118e1906142e2565b80601f016020809104026020016040519081016040528092919081815260200182805461190d906142e2565b801561195a5780601f1061192f5761010080835404028352916020019161195a565b820191906000526020600020905b81548152906001019060200180831161193d57829003601f168201915b5050505050905090565b60085481565b611972613284565b600c60008381526020019081526020016000206040518060c0016040529081600082015481526020016001820154815260200160028201548152602001600382015481526020016004820160009054906101000a900473ffffffffffffffffffffffffffffffffffffffff1673ffffffffffffffffffffffffffffffffffffffff1673ffffffffffffffffffffffffffffffffffffffff1681526020016004820160149054906101000a900460ff166003811115611a59577f4e487b7100000000000000000000000000000000000000000000000000000000600052602160045260246000fd5b6003811115611a91577f4e487b7100000000000000000000000000000000000000000000000000000000600052602160045260246000fd5b815250509050919050565b611aae611aa76123da565b8383612a86565b5050565b60095481565b3073ffffffffffffffffffffffffffffffffffffffff16636352211e826040518263ffffffff1660e01b8152600401611af19190613f9a565b60206040518083038186803b158015611b0957600080fd5b505afa158015611b1d573d6000803e3d6000fd5b505050506040513d601f19601f82011682018060405250810190611b41919061354d565b73ffffffffffffffffffffffffffffffffffffffff163373ffffffffffffffffffffffffffffffffffffffff1614611ba5576040517f8b5701f700000000000000000000000000000000000000000000000000000000815260040160405180910390fd5b6000600c60008381526020019081526020016000209050600081600201541415611bce57600080fd5b60006003811115611c08577f4e487b7100000000000000000000000000000000000000000000000000000000600052602160045260246000fd5b8160040160149054906101000a900460ff166003811115611c52577f4e487b7100000000000000000000000000000000000000000000000000000000600052602160045260246000fd5b14611c5c57600080fd5b60018160040160146101000a81548160ff02191690836003811115611caa577f4e487b7100000000000000000000000000000000000000000000000000000000600052602160045260246000fd5b021790555080600c6000848152602001908152602001600020600082015481600001556001820154816001015560028201548160020155600382015481600301556004820160009054906101000a900473ffffffffffffffffffffffffffffffffffffffff168160040160006101000a81548173ffffffffffffffffffffffffffffffffffffffff021916908373ffffffffffffffffffffffffffffffffffffffff1602179055506004820160149054906101000a900460ff168160040160146101000a81548160ff02191690836003811115611db0577f4e487b7100000000000000000000000000000000000000000000000000000000600052602160045260246000fd5b021790555090505062278d0042611dc79190614142565b81600301819055505050565b611de4611dde6123da565b83612865565b611e23576040517f08c379a0000000000000000000000000000000000000000000000000000000008152600401611e1a90613f5f565b60405180910390fd5b611e2f84848484612bf3565b50505050565b60003073ffffffffffffffffffffffffffffffffffffffff1663a035b1fe6040518163ffffffff1660e01b815260040160206040518083038186803b158015611e7d57600080fd5b505afa158015611e91573d6000803e3d6000fd5b505050506040513d601f19601f82011682018060405250810190611eb591906137d9565b341015611f78573073ffffffffffffffffffffffffffffffffffffffff1663a035b1fe6040518163ffffffff1660e01b815260040160206040518083038186803b158015611f0257600080fd5b505afa158015611f16573d6000803e3d6000fd5b505050506040513d601f19601f82011682018060405250810190611f3a91906137d9565b346040517f84c8b7c9000000000000000000000000000000000000000000000000000000008152600401611f6f929190613fb5565b60405180910390fd5b6000611f8460076127d9565b905060006040518060c001604052808381526020013073ffffffffffffffffffffffffffffffffffffffff1663a035b1fe6040518163ffffffff1660e01b815260040160206040518083038186803b158015611fdf57600080fd5b505afa158015611ff3573d6000803e3d6000fd5b505050506040513d601f19601f8201168201806040525081019061201791906137d9565b8152602001428152602001600081526020013373ffffffffffffffffffffffffffffffffffffffff1681526020016000600381111561207f577f4e487b7100000000000000000000000000000000000000000000000000000000600052602160045260246000fd5b815250905061208e3383612c4f565b6120986007612e29565b80600c60008481526020019081526020016000206000820151816000015560208201518160010155604082015181600201556060820151816003015560808201518160040160006101000a81548173ffffffffffffffffffffffffffffffffffffffff021916908373ffffffffffffffffffffffffffffffffffffffff16021790555060a08201518160040160146101000a81548160ff0219169083600381111561216c577f4e487b7100000000000000000000000000000000000000000000000000000000600052602160045260246000fd5b0217905550905050819250505090565b6121846127e7565b61218c6124bc565b8060400151600881905550806060015160098190555050565b60606121b08261238f565b60006121ba612e3f565b905060008151116121da5760405180602001604052806000815250612205565b806121e484612e56565b6040516020016121f5929190613c7a565b6040516020818303038152906040525b915050919050565b6000600560008473ffffffffffffffffffffffffffffffffffffffff1673ffffffffffffffffffffffffffffffffffffffff16815260200190815260200160002060008373ffffffffffffffffffffffffffffffffffffffff1673ffffffffffffffffffffffffffffffffffffffff16815260200190815260200160002060009054906101000a900460ff16905092915050565b6122a96127e7565b600073ffffffffffffffffffffffffffffffffffffffff168173ffffffffffffffffffffffffffffffffffffffff161415612319576040517f08c379a000000000000000000000000000000000000000000000000000000000815260040161231090613dbf565b60405180910390fd5b6123228161295d565b50565b60007f01ffc9a7000000000000000000000000000000000000000000000000000000007bffffffffffffffffffffffffffffffffffffffffffffffffffffffff1916827bffffffffffffffffffffffffffffffffffffffffffffffffffffffff1916149050919050565b61239881612506565b6123d7576040517f08c379a00000000000000000000000000000000000000000000000000000000081526004016123ce90613f1f565b60405180910390fd5b50565b600033905090565b816004600083815260200190815260200160002060006101000a81548173ffffffffffffffffffffffffffffffffffffffff021916908373ffffffffffffffffffffffffffffffffffffffff160217905550808273ffffffffffffffffffffffffffffffffffffffff16612455836112aa565b73ffffffffffffffffffffffffffffffffffffffff167f8c5be1e5ebec7d5bd14f71427d1e84f3dd0314c0f7b2291e5b200ac8c7c3b92560405160405180910390a45050565b606060006124ab83600001613003565b905060608190508092505050919050565b6124c461122a565b15612504576040517f08c379a00000000000000000000000000000000000000000000000000000000081526004016124fb90613e7f565b60405180910390fd5b565b60008073ffffffffffffffffffffffffffffffffffffffff166002600084815260200190815260200160002060009054906101000a900473ffffffffffffffffffffffffffffffffffffffff1673ffffffffffffffffffffffffffffffffffffffff1614159050919050565b8273ffffffffffffffffffffffffffffffffffffffff16612592826112aa565b73ffffffffffffffffffffffffffffffffffffffff16146125e8576040517f08c379a00000000000000000000000000000000000000000000000000000000081526004016125df90613ddf565b60405180910390fd5b600073ffffffffffffffffffffffffffffffffffffffff168273ffffffffffffffffffffffffffffffffffffffff161415612658576040517f08c379a000000000000000000000000000000000000000000000000000000000815260040161264f90613e1f565b60405180910390fd5b61266383838361305f565b61266e6000826123e2565b6001600360008573ffffffffffffffffffffffffffffffffffffffff1673ffffffffffffffffffffffffffffffffffffffff16815260200190815260200160002060008282546126be91906141c9565b925050819055506001600360008473ffffffffffffffffffffffffffffffffffffffff1673ffffffffffffffffffffffffffffffffffffffff16815260200190815260200160002060008282546127159190614142565b92505081905550816002600083815260200190815260200160002060006101000a81548173ffffffffffffffffffffffffffffffffffffffff021916908373ffffffffffffffffffffffffffffffffffffffff160217905550808273ffffffffffffffffffffffffffffffffffffffff168473ffffffffffffffffffffffffffffffffffffffff167fddf252ad1be2c89b69c2b068fc378daa952ba7f163c4a11628f55a4df523b3ef60405160405180910390a46127d4838383613077565b505050565b600081600001549050919050565b6127ef6123da565b73ffffffffffffffffffffffffffffffffffffffff1661280d61188e565b73ffffffffffffffffffffffffffffffffffffffff1614612863576040517f08c379a000000000000000000000000000000000000000000000000000000000815260040161285a90613eff565b60405180910390fd5b565b600080612871836112aa565b90508073ffffffffffffffffffffffffffffffffffffffff168473ffffffffffffffffffffffffffffffffffffffff1614806128b357506128b2818561220d565b5b806128f157508373ffffffffffffffffffffffffffffffffffffffff166128d98461094d565b73ffffffffffffffffffffffffffffffffffffffff16145b91505092915050565b61290261307c565b6000600660006101000a81548160ff0219169083151502179055507f5db9ee0a495bf2e6ff9c91a7834c1ba4fdd244a5e8aa4e537bd38aeae4b073aa6129466123da565b6040516129539190613c9e565b60405180910390a1565b6000600660019054906101000a900473ffffffffffffffffffffffffffffffffffffffff16905081600660016101000a81548173ffffffffffffffffffffffffffffffffffffffff021916908373ffffffffffffffffffffffffffffffffffffffff1602179055508173ffffffffffffffffffffffffffffffffffffffff168173ffffffffffffffffffffffffffffffffffffffff167f8be0079c531659141344cd1fd0a4f28419497f9722a3daafe3b4186f6b6457e060405160405180910390a35050565b612a2b6124bc565b6001600660006101000a81548160ff0219169083151502179055507f62e78cea01bee320cd4e420270b5ea74000d11b0c9f74754ebdbfc544b05a258612a6f6123da565b604051612a7c9190613c9e565b60405180910390a1565b8173ffffffffffffffffffffffffffffffffffffffff168373ffffffffffffffffffffffffffffffffffffffff161415612af5576040517f08c379a0000000000000000000000000000000000000000000000000000000008152600401612aec90613e3f565b60405180910390fd5b80600560008573ffffffffffffffffffffffffffffffffffffffff1673ffffffffffffffffffffffffffffffffffffffff16815260200190815260200160002060008473ffffffffffffffffffffffffffffffffffffffff1673ffffffffffffffffffffffffffffffffffffffff16815260200190815260200160002060006101000a81548160ff0219169083151502179055508173ffffffffffffffffffffffffffffffffffffffff168373ffffffffffffffffffffffffffffffffffffffff167f17307eab39ab6107e8899845ad3d59bd9653f200f220920489ca2b5937696c3183604051612be69190613d27565b60405180910390a3505050565b612bfe848484612572565b612c0a848484846130c5565b612c49576040517f08c379a0000000000000000000000000000000000000000000000000000000008152600401612c4090613d9f565b60405180910390fd5b50505050565b600073ffffffffffffffffffffffffffffffffffffffff168273ffffffffffffffffffffffffffffffffffffffff161415612cbf576040517f08c379a0000000000000000000000000000000000000000000000000000000008152600401612cb690613edf565b60405180910390fd5b612cc881612506565b15612d08576040517f08c379a0000000000000000000000000000000000000000000000000000000008152600401612cff90613dff565b60405180910390fd5b612d146000838361305f565b6001600360008473ffffffffffffffffffffffffffffffffffffffff1673ffffffffffffffffffffffffffffffffffffffff1681526020019081526020016000206000828254612d649190614142565b92505081905550816002600083815260200190815260200160002060006101000a81548173ffffffffffffffffffffffffffffffffffffffff021916908373ffffffffffffffffffffffffffffffffffffffff160217905550808273ffffffffffffffffffffffffffffffffffffffff16600073ffffffffffffffffffffffffffffffffffffffff167fddf252ad1be2c89b69c2b068fc378daa952ba7f163c4a11628f55a4df523b3ef60405160405180910390a4612e2560008383613077565b5050565b6001816000016000828254019250508190555050565b606060405180602001604052806000815250905090565b60606000821415612e9e576040518060400160405280600181526020017f30000000000000000000000000000000000000000000000000000000000000008152509050612ffe565b600082905060005b60008214612ed0578080612eb990614345565b915050600a82612ec99190614198565b9150612ea6565b60008167ffffffffffffffff811115612f12577f4e487b7100000000000000000000000000000000000000000000000000000000600052604160045260246000fd5b6040519080825280601f01601f191660200182016040528015612f445781602001600182028036833780820191505090505b5090505b60008514612ff757600182612f5d91906141c9565b9150600a85612f6c919061438e565b6030612f789190614142565b60f81b818381518110612fb4577f4e487b7100000000000000000000000000000000000000000000000000000000600052603260045260246000fd5b60200101907effffffffffffffffffffffffffffffffffffffffffffffffffffffffffffff1916908160001a905350600a85612ff09190614198565b9450612f48565b8093505050505b919050565b60608160000180548060200260200160405190810160405280929190818152602001828054801561305357602002820191906000526020600020905b81548152602001906001019080831161303f575b50505050509050919050565b6130676124bc565b61307283838361325c565b505050565b505050565b61308461122a565b6130c3576040517f08c379a00000000000000000000000000000000000000000000000000000000081526004016130ba90613d7f565b60405180910390fd5b565b60006130e68473ffffffffffffffffffffffffffffffffffffffff16613261565b1561324f578373ffffffffffffffffffffffffffffffffffffffff1663150b7a0261310f6123da565b8786866040518563ffffffff1660e01b81526004016131319493929190613cb9565b602060405180830381600087803b15801561314b57600080fd5b505af192505050801561317c57506040513d601f19601f820116820180604052508101906131799190613746565b60015b6131ff573d80600081146131ac576040519150601f19603f3d011682016040523d82523d6000602084013e6131b1565b606091505b506000815114156131f7576040517f08c379a00000000000000000000000000000000000000000000000000000000081526004016131ee90613d9f565b60405180910390fd5b805181602001fd5b63150b7a0260e01b7bffffffffffffffffffffffffffffffffffffffffffffffffffffffff1916817bffffffffffffffffffffffffffffffffffffffffffffffffffffffff191614915050613254565b600190505b949350505050565b505050565b6000808273ffffffffffffffffffffffffffffffffffffffff163b119050919050565b6040518060c0016040528060008152602001600081526020016000815260200160008152602001600073ffffffffffffffffffffffffffffffffffffffff16815260200160006003811115613302577f4e487b7100000000000000000000000000000000000000000000000000000000600052602160045260246000fd5b81525090565b600061331b61331684614064565b61403f565b90508281526020810184848401111561333357600080fd5b61333e8482856142a0565b509392505050565b600061335961335484614095565b61403f565b90508281526020810184848401111561337157600080fd5b61337c8482856142a0565b509392505050565b6000813590506133938161488f565b92915050565b6000815190506133a88161488f565b92915050565b6000813590506133bd816148a6565b92915050565b6000813590506133d2816148bd565b92915050565b6000813590506133e7816148d4565b92915050565b6000815190506133fc816148d4565b92915050565b600082601f83011261341357600080fd5b8135613423848260208601613308565b91505092915050565b600082601f83011261343d57600080fd5b813561344d848260208601613346565b91505092915050565b60006080828403121561346857600080fd5b613472608061403f565b9050600082013567ffffffffffffffff81111561348e57600080fd5b61349a8482850161342c565b600083015250602082013567ffffffffffffffff8111156134ba57600080fd5b6134c68482850161342c565b60208301525060406134da848285016134fa565b60408301525060606134ee848285016133c3565b60608301525092915050565b600081359050613509816148eb565b92915050565b60008151905061351e816148eb565b92915050565b60006020828403121561353657600080fd5b600061354484828501613384565b91505092915050565b60006020828403121561355f57600080fd5b600061356d84828501613399565b91505092915050565b6000806040838503121561358957600080fd5b600061359785828601613384565b92505060206135a885828601613384565b9150509250929050565b6000806000606084860312156135c757600080fd5b60006135d586828701613384565b93505060206135e686828701613384565b92505060406135f7868287016134fa565b9150509250925092565b6000806000806080858703121561361757600080fd5b600061362587828801613384565b945050602061363687828801613384565b9350506040613647878288016134fa565b925050606085013567ffffffffffffffff81111561366457600080fd5b61367087828801613402565b91505092959194509250565b6000806040838503121561368f57600080fd5b600061369d85828601613384565b92505060206136ae858286016133ae565b9150509250929050565b600080604083850312156136cb57600080fd5b60006136d985828601613384565b92505060206136ea858286016134fa565b9150509250929050565b60006020828403121561370657600080fd5b6000613714848285016133c3565b91505092915050565b60006020828403121561372f57600080fd5b600061373d848285016133d8565b91505092915050565b60006020828403121561375857600080fd5b6000613766848285016133ed565b91505092915050565b60006020828403121561378157600080fd5b600082013567ffffffffffffffff81111561379b57600080fd5b6137a784828501613456565b91505092915050565b6000602082840312156137c257600080fd5b60006137d0848285016134fa565b91505092915050565b6000602082840312156137eb57600080fd5b60006137f98482850161350f565b91505092915050565b6000806040838503121561381557600080fd5b6000613823858286016134fa565b9250506020613834858286016134fa565b9150509250929050565b600061384a8383613c5c565b60208301905092915050565b61385f816141fd565b82525050565b61386e816141fd565b82525050565b600061387f826140d6565b6138898185614104565b9350613894836140c6565b8060005b838110156138c55781516138ac888261383e565b97506138b7836140f7565b925050600181019050613898565b5085935050505092915050565b6138db8161420f565b82525050565b6138ea8161421b565b82525050565b60006138fb826140e1565b6139058185614115565b93506139158185602086016142af565b61391e816144aa565b840191505092915050565b6139328161428e565b82525050565b6139418161428e565b82525050565b6000613952826140ec565b61395c8185614126565b935061396c8185602086016142af565b613975816144aa565b840191505092915050565b600061398b826140ec565b6139958185614137565b93506139a58185602086016142af565b80840191505092915050565b60006139be601483614126565b91506139c9826144bb565b602082019050919050565b60006139e1603283614126565b91506139ec826144e4565b604082019050919050565b6000613a04602683614126565b9150613a0f82614533565b604082019050919050565b6000613a27602583614126565b9150613a3282614582565b604082019050919050565b6000613a4a601c83614126565b9150613a55826145d1565b602082019050919050565b6000613a6d602483614126565b9150613a78826145fa565b604082019050919050565b6000613a90601983614126565b9150613a9b82614649565b602082019050919050565b6000613ab3600783614126565b9150613abe82614672565b602082019050919050565b6000613ad6601083614126565b9150613ae18261469b565b602082019050919050565b6000613af9602983614126565b9150613b04826146c4565b604082019050919050565b6000613b1c603e83614126565b9150613b2782614713565b604082019050919050565b6000613b3f602083614126565b9150613b4a82614762565b602082019050919050565b6000613b62602083614126565b9150613b6d8261478b565b602082019050919050565b6000613b85601883614126565b9150613b90826147b4565b602082019050919050565b6000613ba8602183614126565b9150613bb3826147dd565b604082019050919050565b6000613bcb602e83614126565b9150613bd68261482c565b604082019050919050565b60c082016000820151613bf76000850182613c5c565b506020820151613c0a6020850182613c5c565b506040820151613c1d6040850182613c5c565b506060820151613c306060850182613c5c565b506080820151613c436080850182613856565b5060a0820151613c5660a0850182613929565b50505050565b613c6581614284565b82525050565b613c7481614284565b82525050565b6000613c868285613980565b9150613c928284613980565b91508190509392505050565b6000602082019050613cb36000830184613865565b92915050565b6000608082019050613cce6000830187613865565b613cdb6020830186613865565b613ce86040830185613c6b565b8181036060830152613cfa81846138f0565b905095945050505050565b60006020820190508181036000830152613d1f8184613874565b905092915050565b6000602082019050613d3c60008301846138d2565b92915050565b6000602082019050613d5760008301846138e1565b92915050565b60006020820190508181036000830152613d778184613947565b905092915050565b60006020820190508181036000830152613d98816139b1565b9050919050565b60006020820190508181036000830152613db8816139d4565b9050919050565b60006020820190508181036000830152613dd8816139f7565b9050919050565b60006020820190508181036000830152613df881613a1a565b9050919050565b60006020820190508181036000830152613e1881613a3d565b9050919050565b60006020820190508181036000830152613e3881613a60565b9050919050565b60006020820190508181036000830152613e5881613a83565b9050919050565b60006020820190508181036000830152613e7881613aa6565b9050919050565b60006020820190508181036000830152613e9881613ac9565b9050919050565b60006020820190508181036000830152613eb881613aec565b9050919050565b60006020820190508181036000830152613ed881613b0f565b9050919050565b60006020820190508181036000830152613ef881613b32565b9050919050565b60006020820190508181036000830152613f1881613b55565b9050919050565b60006020820190508181036000830152613f3881613b78565b9050919050565b60006020820190508181036000830152613f5881613b9b565b9050919050565b60006020820190508181036000830152613f7881613bbe565b9050919050565b600060c082019050613f946000830184613be1565b92915050565b6000602082019050613faf6000830184613c6b565b92915050565b6000604082019050613fca6000830185613c6b565b613fd76020830184613c6b565b9392505050565b600060c082019050613ff36000830189613c6b565b6140006020830188613c6b565b61400d6040830187613c6b565b61401a6060830186613c6b565b6140276080830185613865565b61403460a0830184613938565b979650505050505050565b600061404961405a565b90506140558282614314565b919050565b6000604051905090565b600067ffffffffffffffff82111561407f5761407e61447b565b5b614088826144aa565b9050602081019050919050565b600067ffffffffffffffff8211156140b0576140af61447b565b5b6140b9826144aa565b9050602081019050919050565b6000819050602082019050919050565b600081519050919050565b600081519050919050565b600081519050919050565b6000602082019050919050565b600082825260208201905092915050565b600082825260208201905092915050565b600082825260208201905092915050565b600081905092915050565b600061414d82614284565b915061415883614284565b9250827fffffffffffffffffffffffffffffffffffffffffffffffffffffffffffffffff0382111561418d5761418c6143bf565b5b828201905092915050565b60006141a382614284565b91506141ae83614284565b9250826141be576141bd6143ee565b5b828204905092915050565b60006141d482614284565b91506141df83614284565b9250828210156141f2576141f16143bf565b5b828203905092915050565b600061420882614264565b9050919050565b60008115159050919050565b6000819050919050565b60007fffffffff0000000000000000000000000000000000000000000000000000000082169050919050565b600081905061425f8261487b565b919050565b600073ffffffffffffffffffffffffffffffffffffffff82169050919050565b6000819050919050565b600061429982614251565b9050919050565b82818337600083830152505050565b60005b838110156142cd5780820151818401526020810190506142b2565b838111156142dc576000848401525b50505050565b600060028204905060018216806142fa57607f821691505b6020821081141561430e5761430d61444c565b5b50919050565b61431d826144aa565b810181811067ffffffffffffffff8211171561433c5761433b61447b565b5b80604052505050565b600061435082614284565b91507fffffffffffffffffffffffffffffffffffffffffffffffffffffffffffffffff821415614383576143826143bf565b5b600182019050919050565b600061439982614284565b91506143a483614284565b9250826143b4576143b36143ee565b5b828206905092915050565b7f4e487b7100000000000000000000000000000000000000000000000000000000600052601160045260246000fd5b7f4e487b7100000000000000000000000000000000000000000000000000000000600052601260045260246000fd5b7f4e487b7100000000000000000000000000000000000000000000000000000000600052602160045260246000fd5b7f4e487b7100000000000000000000000000000000000000000000000000000000600052602260045260246000fd5b7f4e487b7100000000000000000000000000000000000000000000000000000000600052604160045260246000fd5b6000601f19601f8301169050919050565b7f5061757361626c653a206e6f7420706175736564000000000000000000000000600082015250565b7f4552433732313a207472616e7366657220746f206e6f6e20455243373231526560008201527f63656976657220696d706c656d656e7465720000000000000000000000000000602082015250565b7f4f776e61626c653a206e6577206f776e657220697320746865207a65726f206160008201527f6464726573730000000000000000000000000000000000000000000000000000602082015250565b7f4552433732313a207472616e736665722066726f6d20696e636f72726563742060008201527f6f776e6572000000000000000000000000000000000000000000000000000000602082015250565b7f4552433732313a20746f6b656e20616c7265616479206d696e74656400000000600082015250565b7f4552433732313a207472616e7366657220746f20746865207a65726f2061646460008201527f7265737300000000000000000000000000000000000000000000000000000000602082015250565b7f4552433732313a20617070726f766520746f2063616c6c657200000000000000600082015250565b7f746f6b656e496400000000000000000000000000000000000000000000000000600082015250565b7f5061757361626c653a2070617573656400000000000000000000000000000000600082015250565b7f4552433732313a2061646472657373207a65726f206973206e6f74206120766160008201527f6c6964206f776e65720000000000000000000000000000000000000000000000602082015250565b7f4552433732313a20617070726f76652063616c6c6572206973206e6f7420746f60008201527f6b656e206f776e6572206e6f7220617070726f76656420666f7220616c6c0000602082015250565b7f4552433732313a206d696e7420746f20746865207a65726f2061646472657373600082015250565b7f4f776e61626c653a2063616c6c6572206973206e6f7420746865206f776e6572600082015250565b7f4552433732313a20696e76616c696420746f6b656e2049440000000000000000600082015250565b7f4552433732313a20617070726f76616c20746f2063757272656e74206f776e6560008201527f7200000000000000000000000000000000000000000000000000000000000000602082015250565b7f4552433732313a2063616c6c6572206973206e6f7420746f6b656e206f776e6560008201527f72206e6f7220617070726f766564000000000000000000000000000000000000602082015250565b6004811061488c5761488b61441d565b5b50565b614898816141fd565b81146148a357600080fd5b50565b6148af8161420f565b81146148ba57600080fd5b50565b6148c68161421b565b81146148d157600080fd5b50565b6148dd81614225565b81146148e857600080fd5b50565b6148f481614284565b81146148ff57600080fd5b5056fea2646970667358221220c9d97c2a8313f7762201fa003183c06d4f51c3a69789821f7f6135ec05838a7564736f6c63430008040033",
  "linkReferences": {},
  "deployedLinkReferences": {}
}